:100000000A5D040000000000000000000000000085
:1000100000000000000000000000000000000000E0
:1000200000000000000000000000000000000000D0
:1000300000000000000000000000000000000000C0
:1000400000000000000000000000000000000000B0
:1000500000000000965C00000000000000000000AE
:100060000000000000000000000000000000000090
:100070000000000000000000000000000000000080
:100080000000000000000000000000000000000070
:100090000000000000000000000000000000000060
:1000A0007E5E000000000000000000000000000074
:1000B0000000000000000000000000000000000040
:1000C0000000000000000000000000000000000030
:1000D0000000000000000000000000000000000020
:1000E0000000000000000000000000000000000010
:1000F0000000000000000000000000000000000000
:1001000000000000000000000000000000000000EF
:1001100000000000000000000000000000000000DF
:100120004E5E000000000000000000000000000023
:1001300000000000000000000000000000000000BF
:1001400000000000000000000000000000000000AF
:10015000000000000000000000000000000000009F
:10016000000000000000000000000000000000008F
:10BA14006FF12100F0FF270020A0B70010202000C4
:10BA240032A0B700400020004420B7000800FA000C
:10BA3400FC5E020000000000065F0200000000003F
:10BA44008A1F78008B1F78000000200010479800A0
:10BA540000002000204798000000200020079800E4
:10BA64000000200030079800AEFD07008960A9009F
:10BA74009960A8001620EF004AC0B30044FA0700FA
:10BA8400D4FA07004B5A2000CA5120008BFC07004F
:10BA94007AFC0700F1FB07000040E2000A003A00CC
:10BAA4001BC0B3004AC0B30039FA07001620EF00E8
:10BAB4003AC0B30036FA0700C18E20000020EF0020
:10BAC4008048780003003700BAD60700C18E2000F2
:10BAD40080487800A04C2800801F7800601821005E
:10BAE400801F78007EFD07004F00B1000060FE005B
:10BAF400F0B621001004E00043003200D7FA07003A
:10BB0400004798000040E2000D003A003E0190001A
:10BB1400BE009000660047006188400080A92300B1
:10BB24000010E100060031000060FE005700200014
:10BB34000E20ED00FEFF3A0000000000EFFF37008A
:10BB4400600047001004E0002D003200DE46AA0029
:10BB54001E4190009E4090006100470061C8400073
:10BB64007414E100090039002E419000F1CFB300B4
:10BB740062004700014869000020EF001047980068
:10BB8400AE4590003AC0B30099E60700C085200096
:10BB9400104078006504E1000A003A00C0852000E6
:10BBA400104078006504E10005003A00D0852000CB
:10BBB400104078006004E10001003A000100370001
:10BBC40001003700A7FE0700D08520001040780050
:10BBD4006104E10001003A00C0FA070060AF2000F0
:10BBE4001000E00005003200BB5780006A422100CB
:10BBF4006BFE07000020EF00B057880001003700FB
:10BC04001CEF07000400370057052D000E20ED003F
:10BC1400FEFF3A00000000000020EF00300798000B
:10BC2400808820001004E00006003200FBC780007A
:10BC34000A90210024FC0700818820000020EF00E6
:10BC4400804878002E019000AE0090006400470008
:10BC540061884000802520000010E10008003600C3
:10BC64000020EF0020079800E8F907006004E100D5
:10BC740003003A00FBF90700C18E200080487800D9
:10BC840028EF070099FF3700CF0578004F057800AB
:08BC94000080FA00FFFF3700F9
:10B128008A1F78008B1F78000030230000A1B70029
:10B138000012230002A1B7000621EF006821EF00EA
:10B148006A21EF006C21EF000821EF000070200059
:10B158000AA1B7000C21EF000E21EF001021EF002B
:10B168008826EF009C26EF00B026EF00C426EF00EB
:10B17800D826EF00EC26EF008626EF009A26EF008F
:10B18800AE26EF00C226EF00D626EF00EA26EF0033
:10B198007C26EF009026EF00A426EF00B826EF00EB
:10B1A800CC26EF00E026EF0000F82F0078A1B700CA
:10B1B800F0FF2F007AA1B700F0DF2F007CA1B700C5
:10B1C800F0FF2F007EA1B700F0FF2F0080A1B7008D
:10B1D800F0FF2F0082A1B700F0FF2F0084A1B70075
:10B1E800F0FF2F0086A1B700F10B2000001020000F
:10B1F800108860000030200080007800C07E2000A9
:10B208009080680000F0270080806000C07E2000E9
:10B2180090806800613F880040C1B300804078009A
:10B22800407B200090C06800F0C3B30080C060007D
:10B23800407B200090C06800407B200001487800D7
:10B248000080200080007800407E20009080680008
:10B2580000F0270080806000407E20009080680019
:10B26800213F880070C0B30080407800207F200014
:10B2780090C06800F0C7B30080C06000207F200045
:10B2880090C06800207F20000148780000C1B3000A
:10B2980080407800807B200090C06800F0C3B30035
:10B2A80080C06000807B200090C06800807B200008
:10B2B80001487800C0C0B30080407800607B20005F
:10B2C80090C06800F0C3B30080C06000607B2000BD
:10B2D80090C06800607B2000014878000050200082
:10B2E80080007800607D20009080680000F02700D2
:10B2F80080806000607D200090806800B13E8800FA
:10B30800010420000010200010887000B6A6A900D3
:10B31800B2A6A900B6C6A900B2C6A900B6E6A90099
:10B32800B2E6A900DEC6A900E2C6A900DAC6A900ED
:10B33800DEE6A900DCE6A900E2E6A900DAE6A90053
:10B34800DF06A900E306A900DB06A900DF26A9009D
:10B35800E326A900DB26A9007AA6A9007EA6A900F3
:10B3680076A6A90078A6A9007A86A9007E86A900F3
:10B378007686A9007A66A9007E66A9007666A90085
:10B388007A46A9007E46A9007646A9007A26A90031
:10B398007E26A9007826A9007626A9007A06A900A3
:10B3A8007E06A9007606A9007AC6A9007EC6A9006D
:10B3B80076C6A9007AE6A9007EE6A90076E6A90085
:10B3C8007B06A9007F06A9007706A9007B26A900AD
:10B3D8007F26A9007726A9007B46A9007F46A900F9
:10B3E8007746A9007B66A9007F66A9007766A90051
:10B3F8007B86A9007F86A9007786A9007BA6A9007D
:10B408007FA6A90077A6A9007BC6A8007FC6A900C9
:10B4180077C6A9007BE6A8007FE6A90077E6A90021
:10B42800CA86A900C686A900CAA6A900C6A6A900F8
:10B43800CAA6A900C866A900C666A800CA46A90087
:10B44800C646A900CA46A900CAC6A900C8C6A90016
:10B45800C6C6A900DE66A900DC66A900DA66A900EE
:10B46800DE46A900DA46A900A106A9009F06A900A0
:10B47800A326A900A126A9009F26A900A346A900E2
:10B488009F46A900A366A9009F66A800A206A90076
:10B498009E06A900A226A9009E26A900A246A900E8
:10B4A8009E46A900A266A9009E66A900A286A900D8
:10B4B8009E86A900A2A6A9009EA6A800A2C6A900C9
:10B4C800A6C6A9009EC6A900A2E6A800A6E6A900ED
:10B4D8009EE6A900CA06A900C606A900CA26A900B0
:10B4E800C626A900B606A900B206A900B626A90074
:10B4F800B226A900B646A900B246A900B666A900B8
:10B50800B266A900B686A900BA86A900B286A900C3
:10B518008FA6A90093A6A9008BA6A9008FC6A9008B
:10B5280093C6A9008BC6A90010A1A8000B0024008F
:10B538001A002000BCF00700305020004AA7B700CE
:10B548000A102E000B00200009FB07000A482800FB
:10B55800EB01200037F10700980020007735220022
:10B568000E20ED00FEFF3A001020ED00FCFF3A002F
:10B5780040622800801F780060182100801F780032
:10B58800D6FE07004F00B1009BC0A9009960A90032
:0CB59800CF0578004F0578000000060089
:107830000000FA0020962200605B8800000720000C
:1078400046A7B700CA50DD006074200010887000A1
:1078500001002E008074200001886500F0F32100F3
:107860004AA7B7005027EF004E27EF0047E7A800D0
:087870000080FA000000060090
:10A178000800FA0040D02000809A8800602D250051
:10A18800909A8800202E2500B09A8800F0FF2F00B2
:10A19800A09A8800AE23EF0000002800B0A3B70003
:10A1A800AE63A900D7EB07000001BE00803E200087
:10A1B800010020007BEB07000001BE0062EB0700F6
:10A1C8004100DE0064004000800078006000470025
:10A1D8000A88BE008100E900030035001018D0008D
:10A1E8001090D200FBFF3700829FBE008A9FBE00FE
:10A1F8000200BE000E0190009E0190000002EB00DC
:10A208006CE007004F05BE004F01BE002007980014
:10A21800310798008A9FBE000200BE000E01900020
:10A228009E0190000002EB0039E007004F05BE00D8
:10A238008001780001027800600047005001D100D9
:10A24800C080D300640047003008E1002090E1009E
:10A258000700310061804100E0004A008002780078
:10A2680001037800050178008601780002003700B4
:10A2780003017800840178000280710033003A00FD
:10A28800A0EB07000001BE00803E20000100200076
:10A2980044EB07000001BE002BEB07004100DE0085
:10A2A80000A0EC0080007800600047000A88BE002B
:10A2B8008100E900030035001018D0001090D2008A
:10A2C800FBFF3700829FBE000200BE000E01900017
:10A2D8009E0190000002EB0036E007004F01BE002F
:10A2E80020079800310798000200BE000E01900078
:10A2F8009E0190000002EB0005E007008001780055
:10A3080001027800600047005001D100C080D300EE
:10A31800640047003008E1002090E10007003100A8
:10A3280061804100E0004A00800278000103780063
:10A3380005017800860178000200370003017800E3
:10A3480084017800AE63A800000037006100510066
:10A35800E0805900B01D8800B023A900AFE3A80031
:10A36800B143A800F1EA0700F0EA07000080FA000C
:04A3780000000600DB
:0C510C0000D02700010020000000060079
:084F5000200020000000060013
:104F340098002000773522000E20ED00FEFF3A0095
:0C4F44001020ED00FCFF3A000000060009
:104FAC000000FA00020AB800500088000200B800A5
:104FBC0081004200032AB800810042000080FA0000
:044FCC0000000600DB
:1023BC000000FA00020007003212040000000000C6
:1023CC000800E20002003A001000070000000600BE
:1023DC00811F78000200E20002003D006000100046
:1023EC00E08018000600E20002003D0060011100D0
:1023FC00E0811900050007004F00E00002003B00DF
:10240C0060001000E08018000000060002000700C9
:10241C000480BE00000006006022B8000602200006
:10242C000000D0008180D2000482D2008582D200CC
:10243C000000A8000202520083825A0003003B00F5
:10244C000202420083824A000000A1000603E90058
:10245C00F3FF3A00000006000080FA0000000600BE
:102318000000FA0002000700DA11040000000000C3
:102328000800E20002003A00100007000000060062
:10233800839F68000200E20002003D006000100078
:10234800E08018000600E20002003D006001110074
:10235800E0811900050007004F00E00002003B0083
:1023680060001000E0801800000006006022B8003D
:10237800060220000000D0008180D2000482D20032
:102388008582D2000000A8000202520083825A000F
:1023980003003B000202420083824A000000A100C1
:1023A8000603E900F3FF3A00000006000080FA0087
:0423B800000006001B
:107A3C000800FA0060452000809A8800E01B2500B1
:107A4C00909A8800E01F2500B09A8800F0FF2F0064
:107A5C00A09A88009823EF00000028009AA3B70092
:107A6C009863A900A6F507000001BE00803E200027
:107A7C00010020004AF507000001BE0031F50700A7
:107A8C004100DE0064004000800078006000470088
:107A9C000A88BE008100E900030035001018D000F0
:107AAC001090D200FBFF3700829FBE008A9FBE0061
:107ABC000200BE000E0190009E0190000002EB003F
:107ACC003BEA07004F05BE004F01BE00200798009F
:107ADC00310798008A9FBE000200BE000E01900084
:107AEC009E0190000002EB0008EA07004F05BE0063
:107AFC008001780001027800600047005001D1003D
:107B0C00C080D300640047003008E1002090E10001
:107B1C000700310061804100E0004A0080027800DB
:107B2C000103780005017800860178000200370017
:107B3C0003017800840178000280710033003A0060
:107B4C006FF507000001BE00803E20000100200000
:107B5C0013F507000001BE00FAF407004100DE0037
:107B6C0000A0EC0080007800600047000A88BE008E
:107B7C008100E900030035001018D0001090D200ED
:107B8C00FBFF3700829FBE000200BE000E0190007A
:107B9C009E0190000002EB0005EA07004F01BE00B9
:107BAC0020079800310798000200BE000E019000DB
:107BBC009E0190000002EB00D4E9070080017800E0
:107BCC0001027800600047005001D100C080D30052
:107BDC00640047003008E1002090E100070031000C
:107BEC0061804100E0004A008002780001037800C7
:107BFC000501780086017800020037000301780047
:107C0C00840178009863A8000000370061005100DF
:107C1C00E0805900001D88009A23A90099E3A80070
:107C2C009B43A800C0F40700BFF407000080FA00D3
:047C3C00000006003E
:10B0E4000200FA008A1F78008B1F78008C1F7800FA
:10B0F4004EB99700E00047006A00570080087800C6
:10B1040001067800BEBD97000205780059F30700D8
:10B114004F067800CF0578004F0578000080FA00CC
:04B124000000060021
:107E78002400FA0000002000500F98008B007800C2
:107E8800618045008005780011407800204F9800F7
:107E98000040E20066083200AE48900050C2B300CD
:107EA800000CE100090032008C1F78008A9FBE0098
:107EB8008A1F78002E4D9000CF0478000900010039
:107EC8004F05BE004F067800ECFF37000020EF009A
:107ED800600798000020EF00700798001F00370027
:107EE800FE0090006E0047006888700061804500C1
:107EF800800578002E003700FE0090006E004700D5
:107F0800618870006180450080057800280037008E
:107F1800FE0090006E004700628870006180450096
:107F280080057800220037007E0190000180200043
:107F38006E004700010871006180450080057800E7
:107F48001B003700FE0090006E0047006488700038
:107F58006180450080057800150037009B40780057
:107F6800D0C2B300000CE100DDFF32009B40780076
:107F780000C2B300000CE100DFFF32009B40780034
:107F8800B0C2B300000CE100E1FF32009B40780072
:107F980030C2B300000CE100E3FF32009B407800E0
:107FA80000C3B300000CE100E6FF32000100370017
:107FB800CAFF37006E0047001010A6000400370003
:107FC800E2FF2F00EE0047006E0047001108610035
:107FD8006E0047001030A60004003700B2FF2F00E3
:107FE800EE0047006E004700110861001B40780052
:107FF8000080FB008A1F78000045780006E807002B
:108008004F0578000000E200160032000020EF0063
:1080180060079800EE009000A00020000089B900D9
:108028001B4078000080FB00000141000103200094
:108038006C00470001085100618045008005780008
:108048001B4078000080FB008A1F780000457800FC
:10805800F1E707004F0578000000E200EDFF3A0065
:108068000D0037009B407800A0C2B300000CE1006F
:1080780009003A008C0078001C00780000A0ED0090
:10808800000E780011007800100078006007980052
:1080980061804500800578009B407800E0C2B3000D
:1080A800000CE10027003A00618045008005780057
:1080B8009B407800A0C2B300000CE1000A003A001F
:1080C8008C0078001C00780000A0ED00000E7800FD
:1080D8001100780010007800400798006180450082
:1080E80080057800160037000020EF004007980050
:1080F8001B4078000080FB008A1F7800004578004C
:10810800C5E707004F0578000000E2000C003200C8
:10811800CE009000A00020000089B9001B40780024
:108128000080FB00000141000103200068004700B7
:10813800010851006180450080057800ECFF370098
:10814800060037000020EF00400798007E019000ED
:10815800010021006E004700010871008B007800C3
:10816800618045008005780011407800204F980014
:108178009B0037005E089000AE073700FE009000B5
:108188006E00470070887000F4FF37007E01900091
:10819800014020006E00470001087100D000370040
:1081A80002022000EE0047006E004700110871002F
:1081B8007E019000011020006E0047000108710048
:1081C800C70037007E019000012020006E004700A4
:1081D80001087100C200370002042000EE004700C9
:1081E8006E00470011087100BD003700BC00370061
:1081F80002022000EE0047006E00470011087100DF
:1082080002082000EE0047006E00470011087100C8
:10821800B30037008C0078001C00780000A0ED0047
:10822800000E78001100780010007800300F9800D8
:108238006000E10002003A0090AE2000300F980084
:108248000020EF00400F9800BE089000780047001B
:10825800108040001004E000040032004E08900036
:108268000020EC00400F9800F7FF37006800470037
:108278001000E00006003200CE00900078004700B1
:108288001008E100020031004E009000400F9800F5
:10829800EE009000780047001008E1000500360065
:1082A8006E019000F80047006C004700110851006B
:1082B800020037000020EF00600798006E004700BA
:1082C8001030A7000F0037006E019000EE009000FC
:1082D8006C004700618850000400E2000900320089
:1082E8008C1F78008A9FBE008A1F78000AC2B300DC
:1082F800CF047800090001004F05BE004F06780042
:10830800F1FF3700CE0890004E0890000020ED00E5
:10831800400F98000200E2000D0032003E08900075
:108328008C1F78008A9FBE008A1F7800104578004D
:10833800CF047800090001004F05BE004F06780001
:108348003E0890000020EC00300F9800EDFF370049
:108358006E0047001030A6000F0037006E01900035
:10836800EE0090006C004700618850000400E200B5
:10837800090032008C1F78008A9FBE008A1F78008F
:108388000AC2B300CF047800090001004F05BE00FF
:108398004F067800F1FF3700B8FE37008C007800F0
:1083A8001C00780000A0ED00000E78001100780095
:1083B80010007800204F98006A004700300F98009E
:1083C80010002000400F9800A8FF3700020C200082
:1083D800EE0047006E0047001108710040003700AA
:1083E8002E4890006004E10062FF3200AE48900021
:1083F800C0C6B300000CE10060FF3200AE48900038
:10840800C0C4B300000CE1005CFF3200AE4890002D
:1084180060C6B300000CE1005CFF3200AE4890007B
:1084280050C4B300000CE1005DFF3200AE4890007C
:1084380050C6B300000CE1005DFF3200AE4890006A
:1084480070C6B300000CE1005EFF3200AE48900039
:10845800F0C6B300000CE1005FFF3200AE489000A8
:1084680040C6B300000CE10060FF3200AE48900047
:1084780090C6B300000CE1005CFF3200AE489000EB
:1084880000C7B300000CE10059FF3200AE4890006D
:1084980080C5B300000CE10055FF3200AE489000E3
:1084A80080C7B300000CE10055FF3200AE489000D1
:1084B80030C7B300000CE10056FF3200AE48900010
:1084C80030C6B300000CE100B4FF3200AE489000A3
:1084D80050C7B300000CE100BCFF3200B6FF370004
:1084E800FE0090000070200000806000AF043200A1
:1084F8006E00470010C0A600020037006000200090
:10850800400798008C0078001C0078006400500038
:10851800000E7800110178001200BE00000F9800CC
:10852800110F98008C1F78008A9FBE000420EF006E
:108538000620EF003AE907000000E0000060EF00C5
:1085480001003D000060EC004F05BE004F067800BA
:108558000040E2000A0032008E0990001E0A9000D6
:1085680001002000020028007000470001986900FF
:1085780002106A00FE0090006E00470063887000D9
:108588000020EF00200F98008C1F78008A9FBE0003
:108598000E0890009E0890000420EF000620EF00CF
:1085A8001FE907000000E0000060EF000100320052
:1085B8000060EC004F05BE004F0678000040E20066
:1085C80049003200F401470070004700B00078000D
:1085D80020017800C710DE000001EB00F00F20003A
:1085E80080806000E007200000805000800978004B
:1085F800110020007400470010881000AE08900099
:10860800300020000088B900200F9800A200200048
:10861800110009000200D800200F98006000E10056
:1086280003003D001100200074004700108810006E
:108638002E089000600010008C1F78008A9FBE00F2
:108648000045780081E607000E0990009E09900019
:10865800F5E40700300F9800410F98000200200051
:1086680003F823003E089000CE089000ECE80700CD
:108678000000E0000060EF0001003D000060EC0039
:108688004F05BE004F0678000040E20004003200AB
:1086980011002000740047001088100012003700F5
:1086A8008C1F78008A9FBE0002002000031224005D
:1086B8003E089000CE089000DEE807000000E000C9
:1086C8000060EF00010035000060EC004F05BE00BF
:1086D8004F0678000040E20003003200110020003D
:1086E80074004700108840002E0890006000E100E8
:1086F80003003C0010C0B300204F98000200370070
:108708004E509000204F98006E0047001080A70040
:108718000E0037006E0047001090A6000A003700D0
:10872800C1FF2F00740047001008E10005003C005D
:10873800AE089000680047001008E10001003D0005
:1087480001003700010037001102370068004700B8
:108758001000E000060032006E0047001090A600EE
:1087680003003700CE009000680047006188500081
:108778004E0090006800E1000300360080C0B3009E
:10878800204F9800020037000E489000204F9800B4
:108798008C1F78008A9FBE000E0890009E089000EB
:1087A8000420EF000620EF009DE807000000E0002D
:1087B8000060EF00010032000060EC004F05BE00D1
:1087C8004F0678000040E200720032008C1F7800EB
:1087D8008A9FBE004E5590001CE607000001BE00AF
:1087E8000E0890009E08900094E70700000F98007C
:1087F800110F98006A0047001080FB00600010000D
:108808000045780011E607000001BE000E08900040
:108818009E08900089E70700000F9800110F980044
:1088280010E7070001F30700600F9800710F980028
:108838000E0890009E0890006E099000FE099000B6
:10884800B4F207000200200003F0230079E80700D3
:108858000000E0000060EF00010035000060EC005F
:108868004F05BE004F0678000040E2000B003200C2
:108878000E0990009E0990000000200001F02300DE
:108888008C1F78008A9FBE002DE507004F05BE00AB
:108898004F067800000F9800110F98008C1F780081
:1088A8008A9FBE000E0890009E089000EDE6070023
:1088B8004F05BE004F0678006A0147001281FB0091
:1088C8000420EC00C211DD00E24728000302410049
:1088D8001401BE000200E1000388E1000F00390026
:1088E8008C1F78008A9FBE000E0890009E0890009A
:1088F800D2CC2C00C3DC23004BE407004F05BE009C
:108908004F067800000F9800110F98001100200002
:1089180074004700108840001E0037008C1F780044
:108928008A9FBE000E0890009E089000CDE60700C2
:108938004F05BE004F0678006A0147001281FB0010
:10894800C211DD00E2472800030241001401BE0005
:108958000200E1000388E1000E0031008C1F78005E
:108968008A9FBE000E0890009E089000020020001A
:10897800031224002CE407004F05BE004F067800C0
:10898800000F9800110F9800110020007400470094
:10899800108810006E0047001090A60049003700AC
:1089A8006E00470010B0A700460037004E00900048
:1089B8006A00E10002003400A0002000400798008F
:1089C8008C1F78008A9FBE000E0890009E089000B9
:1089D800A4E607004F05BE004F067800300F980048
:1089E800410F9800F6004700310078002100700020
:1089F8001D0032008C1F78008A9FBE00A200200054
:108A0800030020003E089000CE0890000002EB0012
:108A180068E607004F05BE004F0678006000E100D9
:108A28006088E10010003A00CE009000680047001E
:108A3800618850008C1F78008A9FBE00A200200029
:108A4800030020003E089000CE0890000002EB00D2
:108A58002FE607004F05BE004F067800300F98003C
:108A6800410F9800DFFF37006A0047009080FB0045
:108A7800680047001008E100120034006A0047004F
:108A88009080FB0068004700108050008C1F780021
:108A98008A9FBE00004578006CE507000001BE0013
:108AA8000E0890009E089000E4E607004F05BE00FF
:108AB8004F067800000F9800110F98000E4890009C
:108AC800204F98004E00900065014000EC004700E0
:108AD8006C00470011081100680047001000E00012
:108AE80004003A006E00470010B0A70001003700EC
:108AF80003003700EE0090006C00470061885000CA
:108B08007E009000630060000000E2000300320075
:108B1800EE0090006C004700618850006E0047002E
:108B28001020A6002F0037006E0047001010A60086
:108B3800110037006E0047001000A6000300370040
:108B4800D0C2B3000047980002003700B0C2B3009B
:108B5800004798008C1F78008A9FBE008A1F780003
:108B68000E459000CF047800090001004F05BE00B3
:108B78004F0678000B0037006E0047001000A60073
:108B8800080037008C1F78008A9FBE008A1F780073
:108B98000AC2B300CF047800090001004F05BE00E7
:108BA8004F0678006E0090006000E1000C00340071
:108BB8008C1F78008A9FBE008A1F78000AC3B30002
:108BC800CF047800090001004F05BE004F06780069
:108BD800EE0090006C00470061885000F1FF3700FC
:108BE800310037006E0047001030A7000F00370033
:108BF8006E0090006000E1000C0034008C1F7800CB
:108C08008A9FBE008A1F78000AC2B300CF0478008A
:108C1800090001004F05BE004F067800EE009000E5
:108C28006C00470061885000F1FF37006E00470074
:108C38001010A600110037006E0047001000A600B3
:108C480003003700D0C2B300104798000200370075
:108C5800B0C2B300104798008C1F78008A9FBE00EE
:108C68008A1F78001E459000CF0478000900010093
:108C78004F05BE004F0678000B0037006E00470016
:108C88001000A600080037008C1F78008A9FBE00DD
:108C98008A1F78000AC2B300CF04780009000100D7
:108CA8004F05BE004F0678008C1F78008A9FBE00D3
:108CB8000E0890009E089000EAE50700300F980023
:108CC800410F98006A0047001080FB00C200DD00D9
:108CD800E0472800810040001101BE003E089000D6
:108CE800CE0890000002EB0089E507004F05BE00A2
:108CF8000203200003002000020040008A9FBE00FB
:108D08008A1F780000457800CF0478000900010028
:108D18004F05BE004F067800680047001000E000CD
:108D280004003A006E00470010B0A70001003700A9
:108D38003E0037008C1F78008A9FBE008A1F78008B
:108D4800EAC2B300CF047800090001004F05BE0055
:108D58004F0678006A0047001081FB00E8004700D2
:108D680068004700110811006A0047001004E0007D
:108D78001F00320011C0B3006A00470010C810007D
:108D88006A0047001080FB00C200DD00E0472800B1
:108D9800810040001101BE008C1F78008A9FBE0030
:108DA8003E089000CE0890000002EB0058E507004E
:108DB800A2002000030020000002EB007DE5070070
:108DC8004F05BE0002032000030020000000410000
:108DD8008A9FBE008A1F780000457800CF0478007B
:108DE800090001004F05BE004F067800DEFF37007E
:108DF800680047001000E0000C0032008C1F78006B
:108E08008A9FBE008A1F78000AC3B300CF04780087
:108E1800090001004F05BE004F067800CE00900003
:108E28006800470061885000F1FF37006E00470076
:108E38001050A600090037008C1F78008A9FBE00DA
:108E48008A1F78005AC4B300CF04780009000100D3
:108E58004F05BE004F067800080037008C1F7800C9
:108E68008A9FBE008A1F78005AC6B300CF047800D4
:108E7800090001004F05BE004F0678002E0890003B
:108E88006000E1000C003D00AE089000740047004F
:108E9800608810008C1F78008A9FBE008A1F7800A7
:108EA800DAC2B300CF047800090001004F05BE0004
:108EB8004F067800080037008C1F78008A9FBE0094
:108EC8008A1F7800BAC2B300CF04780009000100F5
:108ED8004F05BE004F0678002E089000A200200023
:108EE800110009000200D80080007800000320006B
:108EF800008040008C1F78008A9FBE008A1F78007F
:108F080000457800CF047800090001004F05BE0035
:108F18002E089000A2002000110009000200D800CD
:108F280000032000008040008A9FBE008A1F78004E
:108F380000457800CF047800090001004F05BE0005
:108F48004F0678006E0047001030A6000F0037006B
:108F58006E0090006000E1000C0034008C1F780067
:108F68008A9FBE008A1F78000AC2B300CF04780027
:108F7800090001004F05BE004F0678006E00900002
:108F88000020ED0060079800F4FF3A00BBFB3700B3
:108F98006E0047001090A600670037002E0890006A
:108FA8006000E10005003D002E08900061015000BE
:108FB800E800470068004700110811008C1F78007E
:108FC8008A9FBE000E0890009E08900025E50700C5
:108FD8004F05BE004F067800300F9800410F9800EB
:108FE80010C0B300204F98006A0047001080FB00B3
:108FF8006A00E100100032006A0047001080FB00A0
:10900800C200DD00E047280081014000B30078007D
:1090180023017800760047003008E1002090E10045
:10902800010036000400370011C0B3006A00470091
:1090380010C84000ECFF37006A0047001081FB00B1
:10904800E800470068004700110811008C1F7800ED
:109058008A9FBE003E089000CE089000F3F00700FB
:10906800600F9800710F98000E0890009E089000FD
:109078006E099000FE099000A6F0070000179800FE
:10908800111798000E4D9000F0E307000E119000A4
:109098009E11900064E207000200200003F0230004
:1090A80027E30700EFE407004F05BE004F067800EE
:1090B800300F9800410F9800680047001000E0004A
:1090C8001D0032008C1F78008A9FBE00A20020007D
:1090D800030020003E089000CE0890000002EB003C
:1090E800B4E407004F05BE004F0678006000E100B9
:1090F8006088E10010003A008C1F78008A9FBE004B
:10910800A2002000030020003E089000CE08900036
:109118000002EB007EE407004F05BE004F06780012
:10912800300F9800410F9800CE009000680047006B
:1091380061885000E0FF37004E0090006C00E100AD
:109148000B003C008C1F78008A9FBE000E4D9000DB
:10915800D5E507000E0990009E099000F8E2070087
:109168004F05BE004F067800000F9800110F9800B9
:109178008C1F78008A9FBE000E0890009E08900001
:109188000420EF000620EF0025E607000000E000BD
:109198000060EF00010032000060EC004F05BE00E7
:1091A8004F0678000040E200390032008C1F78003A
:1091B8008A9FBE000E0890009E089000A9E4070050
:1091C8004F05BE004F0678006000E1006088E100AE
:1091D8002F003A002E0890006100E1002C003400B6
:1091E8008C1F78008A9FBE004E55900097E30700B9
:1091F8000001BE000E0890009E0890000FE50700D1
:10920800F20527009308240005E607000000E000A7
:109218000060EF0001003D000060EC004F05BE005B
:109228004F0678000040E200040032009100200060
:1092380074004700108810000300370081002000E8
:1092480074004700108810008C1F78008A9FBE00A9
:109258004E5590007DE307000001BE000E08900007
:109268009E089000F5E407007EE407004F05BE0065
:109278004F067800300F9800410F98000020EF004B
:109288000220EF00000F9800110F98001700370018
:109298008C1F78008A9FBE000E0890009E089000E0
:1092A80070E40700300F9800410F98003E089000C6
:1092B800CE0890005DF00700600F9800710F9800CD
:1092C8000E0890009E0890006E099000FE0990001C
:1092D80010F007004F05BE004F067800000F9800F9
:1092E800110F98000020EF00200F980010C0B30065
:1092F800204F98006A0047001080FB006A00E100D8
:10930800100032006A0047001080FB00C200DD0038
:10931800E047280081014000B3007800230178006D
:10932800760047003008E1002090E1000100360097
:109338000400370011C0B3006A00470010C840009D
:10934800ECFF37006A0047009080FB006800470088
:10935800908040007400470010814000EC004700F6
:109368006C004700110811006E00470010B0A700FC
:1093780004003700680047001000E00001003A00D0
:1093880003003700EE0090006C0047006188500031
:109398007E009000630060000000E20003003200DD
:1093A800EE0090006C004700618850006E00470096
:1093B8001020A6002F0037006E0047001010A600EE
:1093C800110037006E0047001000A60003003700A8
:1093D800D0C2B3002047980002003700B0C2B300E3
:1093E800204798008C1F78008A9FBE008A1F78004B
:1093F8002E459000CF047800090001004F05BE00FB
:109408004F0678000B0037006E0047001000A600DA
:10941800080037008C1F78008A9FBE008A1F7800DA
:109428000AC2B300CF047800090001004F05BE004E
:109438004F0678006E0090006000E1000C003400D8
:109448008C1F78008A9FBE008A1F78000AC3B30069
:10945800CF047800090001004F05BE004F067800D0
:10946800EE0090006C00470061885000F1FF370063
:10947800310037006E0047001030A7000F0037009A
:109488006E0090006000E1000C0034008C1F780032
:109498008A9FBE008A1F78000AC2B300CF047800F2
:1094A800090001004F05BE004F067800EE0090004D
:1094B8006C00470061885000F1FF37006E004700DC
:1094C8001010A600110037006E0047001000A6001B
:1094D80003003700D0C2B3003047980002003700BD
:1094E800B0C2B300304798008C1F78008A9FBE0036
:1094F8008A1F78003E459000CF04780009000100DB
:109508004F05BE004F0678000B0037006E0047007D
:109518001000A600080037008C1F78008A9FBE0044
:109528008A1F78000AC2B300CF047800090001003E
:109538004F05BE004F0678002E49900011C0B300B9
:109548006A00470010C810000440E2001C00320006
:109558006A0047001080FB00C200DD00E0472800D9
:10956800810040001101BE008C1F78008A9FBE0058
:109578003E089000CE0890000002EB0064E307006C
:10958800A2002000030020000002EB0089E307008E
:109598004F05BE0002032000030020000000410028
:1095A8008A9FBE008A1F780000457800CF047800A3
:1095B800090001004F05BE004F067800DEFF3700A6
:1095C8002E0890006000E1000C0034008C1F780029
:1095D8008A9FBE008A1F78000AC3B300CF047800B0
:1095E800090001004F05BE004F0678001100200059
:1095F8007400470010881000F1FF37004E009000FB
:109608006800E1000300340080C0B300204F9800D8
:10961800020037000E489000204F98006A0047006B
:109628001081FB00E800470068004700110811009E
:109638006A0047001004E00004003A006E0047008A
:1096480010B0A70001003700080037008C1F780011
:109658008A9FBE008A1F7800EAC2B300CF04780050
:10966800090001004F05BE004F0678008C1F7800E6
:109678008A9FBE002E4D900074E207000E099000EC
:109688009E099000E8E0070027EF07004F05BE009D
:109698004F067800300F9800410F98006A00470085
:1096A8001004E0001F00320011C0B3006A00470038
:1096B80010C810006A0047001080FB00C200DD00DF
:1096C800E0472800810040001101BE008C1F78008F
:1096D8008A9FBE003E089000CE0890000002EB0072
:1096E8000BE30700A2002000030020000002EB00AB
:1096F80030E307004F05BE000203200003002000EE
:10970800000041008A9FBE008A1F7800004578004B
:10971800CF047800090001004F05BE004F0678000D
:10972800DEFF3700680047001000E0000C00320040
:109738008C1F78008A9FBE008A1F78000AC3B30076
:10974800CF047800090001004F05BE004F067800DD
:10975800CE0090006800470061885000F1FF370094
:109768006E0047001030A6000F0037006E00900012
:109778006000E1000C0034008C1F78008A9FBE0056
:109788008A1F78000AC2B300CF04780009000100DC
:109798004F05BE004F0678006E0090000020ED00D7
:1097A80060079800F4FF3A00B4F93700010C200074
:1097B8006E004700108060006000E10024003A005D
:1097C8006E0047001040A600090037008C007800A2
:1097D8001C00780064005000000E78001101780029
:1097E8001200BE00300F9800410F980009003700A2
:1097F8008C0078001C00780000A0ED00000E7800B6
:109808001100780010007800CF80DE00300F98003B
:10981800410F98003E089000CE0890006000E100DB
:109828006088E10009003D00FE0090006E004700DE
:10983800638870003E089000CE0890006000100019
:10984800E0801800300F9800410F9800150037008D
:109858006E0047001040A600090037008C00780011
:109868001C00780064005000000E78001101780098
:109878001200BE00300F9800410F98000900370011
:109888008C0078001C00780000A0ED00000E780025
:1098980011007800100078008000EB00300F98006D
:1098A800410F98004E0090006000E10008003A0067
:1098B8003E089000CE0890006000E1006088E1005A
:1098C80003003A00CE00900068004700618840001D
:1098D800010C20006E0047001080600000427800F4
:1098E8004500370010C0B300204F98006A004700B9
:1098F8001080FB006A00E100100032006A00470097
:109908001080FB00C200DD00E04728008101400014
:10991800B300780023017800760047003008E100A2
:109928002090E1000100360004003700AE489000A6
:109938006A00470061C84000ECFF37003900370073
:1099480010C0B300204F98006A0047001080FB0049
:109958006800E100100032006A0047001080FB0038
:10996800C200DD000053280081014000B3007800E8
:1099780023017800760047003008E1002090E100DC
:109988000100360004003700AE4890006A00470026
:1099980061C84000ECFF37002200370010C0B30058
:1099A800204F98006A0047001080FB006C00E1001F
:1099B800100032006A0047001080FB00C200DD0082
:1099C800603F280081014000B3007800230178003F
:1099D800760047003008E1002090E10001003600E1
:1099E80004003700AE4890006A00470061C8400094
:1099F800ECFF37000B0037006024E100B9FF3200AC
:109A080000CCB3000024E100B6FF320000C8B30068
:109A18000024E100CAFF320000C4B3000024E100C2
:109A2800DEFF32006A0047009080FB0068004700B4
:109A38001008E10003003D000E489000204F9800F8
:109A4800080037006A0047009080FB006800470064
:109A58001008E100030034006A0047001080FB0092
:109A6800400798006C0047001000E0000700320033
:109A78007E009000630060000000E20003003200F6
:109A8800EE0090006C00470061885000EE009000E6
:109A9800680047001008E100050034006E019000DE
:109AA800E80047006C004700110851000200370029
:109AB8000020EF0060079800FE009000408C200016
:109AC80080806000008420000008E10007003A0060
:109AD8006C0047001000E00003003200EE00900028
:109AE8006C004700618850000F003700FE009000AE
:109AF800008C200080806000008820000008E100C1
:109B080009003A006E0090006200E1000400340091
:109B1800EE0090006C004700628850000200370099
:109B28000020EF00600798006E0047001020A60094
:109B38004E0037006E0047001010A60011003700D5
:109B48006E0047001000A60003003700D0C2B30023
:109B58004047980002003700B0C2B3004047980061
:109B68008C1F78008A9FBE008A1F78004E4590009F
:109B7800CF047800090001004F05BE004F067800A9
:109B88002A0037006E0047001000A60009003700C1
:109B98008C1F78008A9FBE008A1F78000AC2B30013
:109BA800CF047800090001004F05BE004F06780079
:109BB8001E003700FE009000008C200080806000AE
:109BC800008820000008E10018003A008C1F780087
:109BD8008A9FBE008A1F78000AC3B300CF047800AA
:109BE800090001004F05BE004F0678006E004700CF
:109BF8001050A6000300370080C5B30050479800F6
:109C08000200370080C7B300504798008C1F7800C7
:109C18008A9FBE008A1F78005E459000CF047800B6
:109C2800090001004F05BE004F0678006C00470090
:109C38001000E0000C0032008C1F78008A9FBE00E4
:109C48008A1F78000AC3B300CF0478000900010016
:109C58004F05BE004F0678006E0090000020ED0012
:109C680060079800F4FF3A005E0037006C00470078
:109C78001000E0000F0032006E0047001030A7000F
:109C88000C0037008C1F78008A9FBE008A1F78005E
:109C98000AC2B300CF047800090001004F05BE00D6
:109CA8004F0678006E0090000020ED0060079800D5
:109CB800F4FF3A006E0047001010A60011003700AC
:109CC8006E0047001000A60003003700D0C2B300A2
:109CD8006047980002003700B0C2B30060479800A0
:109CE8008C1F78008A9FBE008A1F78006E459000FE
:109CF800CF047800090001004F05BE004F06780028
:109D08000B0037006E0047001000A600080037005F
:109D18008C1F78008A9FBE008A1F78000AC2B30091
:109D2800CF047800090001004F05BE004F067800F7
:109D3800FE009000008C20008080600000842000DD
:109D48000008E10009003A008C1F78008A9FBE00D5
:109D58008A1F78000AC3B300CF0478000900010005
:109D68004F05BE004F0678001E003700FE00900029
:109D7800008C200080806000008820000008E1003E
:109D880018003A008C1F78008A9FBE008A1F78004E
:109D98000AC3B300CF047800090001004F05BE00D4
:109DA8004F0678006E0047001050A60003003700E9
:109DB80080C5B300704798000200370080C7B30021
:109DC800704798008C1F78008A9FBE008A1F780011
:109DD8007E459000CF047800090001004F05BE00C1
:109DE8004F0678006A0047009080FB006800470033
:109DF8001008E10009003D008C1F78008A9FBE0012
:109E08008A1F78000AC3B300CF0478000900010054
:109E18004F05BE004F067800F2FF37004E01900054
:109E2800CE00900068004700618850000400E200FE
:109E38006C003200010C20006E00470010806000AA
:109E480000679800520037004E009000C200DD0005
:109E5800E0472800810040001101BE008C1F7800F7
:109E68008A9FBE003E089000CE0890000002EB00DA
:109E780027E10700A2002000030020000002EB00F9
:109E88004CE107004F05BE004F06780003C3B3003E
:109E98006A01470003494000490037006E00470047
:109EA8001050A600140037004E009000C200DD00DC
:109EB80000532800810040001101BE008C1F78006B
:109EC8008A9FBE003E089000CE0890000002EB007A
:109ED8000FE107004F05BE004F0678006F016000D4
:109EE800E0816000D07228008200400011407800B4
:109EF800204F9800130037004E009000C200DD008C
:109F080000532800810040001101BE008C1F78001A
:109F18008A9FBE003E089000CE0890000002EB0029
:109F2800FBE007004F05BE004F0678006F01600098
:109F3800E0816000C0712800820040001140780074
:109F4800204F98001E0037004E009000C200DD0030
:109F5800603F2800810040001101BE008C1F78007E
:109F68008A9FBE003E089000CE0890000002EB00D9
:109F7800E7E007004F05BE004F0678006701600064
:109F880001C3B3006A004700014841000C003700D4
:109F98008E609000600CE100ABFF320000CCB30093
:109FA800000CE100A8FF320000C8B300000CE1007B
:109FB800BAFF320000C4B300000CE100E2FF320037
:109FC8008C1F78008A9FBE008A1F78002E4D900053
:109FD800CF047800090001004F05BE004F06780045
:109FE8008EFF37006E0047001030A6000F003700C4
:109FF8006E0090006000E1000C0034008C1F7800B7
:10A008008A9FBE008A1F78000AC2B300CF04780076
:10A01800090001004F05BE004F0678006E00900051
:10A028000020ED0060079800F4FF3A0093F737002E
:0CA038005E0890000080FA0000000600A6
:0C230C000A85FB00BDFD07000000060074
:101A08000000FA00B103AF0001003700FDFF370006
:0C1A18009A1D88000080FA000000060003
:102020000000FA0090C3B3000054E10005003E0038
:1020300000C3B3000054E1000200390010C0B30037
:10204000010037000020EF000080FB000080FA0054
:042050000000060086
:102054000400FA006054E10052003D000A00FB0055
:10206400E000100001457800E0C6B300000CE10078
:102074002C0035000A00FB00420620001100090074
:102084000200D80072004000C200DD00203C28009D
:10209400010140001200BE000007980011079800DB
:1020A4000A00FB0042062000110009000200D800CB
:1020B40001007800A2002000110009000200D800ED
:1020C40069004000C200DD00203C2800810040007F
:1020D4001101BE000E0090009E0090008A1F78003F
:1020E40052FE07004F05780000079800110798007A
:1020F4000A00FB00A2002000110009000200D80021
:1021040001007800C200DD00203C2800810040006E
:102114001101BE000E0090009E00900043FE0700D7
:102124006E0037006A54E100180034000A00FB0016
:10213400A2002000110009000200D800690040003C
:10214400C200DD00203C2800010140001200BE0056
:1021540000079800110798000A00FB00A200200065
:10216400110009000200D80001007800C200DD005F
:10217400203C2800810040001101BE000E009000A8
:102184009E00900029FE0700540037000A00FB005F
:10219400C200DD00203C2800010140001200BE0006
:1021A4004E003700E0C6B3000054E1002C003500B7
:1021B4000A00FB0042062000110009000200D800BA
:1021C40072004000C200DD00E03828000101400038
:1021D4001200BE0000079800110798000A00FB00D7
:1021E40042062000110009000200D8000100780016
:1021F400A2002000110009000200D800690040007C
:10220400C200DD00E0382800810040001101BE005A
:102214000E0090009E0090008A1F780003FE0700C5
:102224004F05780000079800110798000A00FB008A
:10223400A2002000110009000200D800010078006B
:10224400C200DD00E0382800810040001101BE001A
:102254000E0090009E009000F4FD07001F00370060
:102264006A54E100180034000A00FB00A2002000B8
:10227400110009000200D80069004000C200DD001E
:10228400E0382800010140001200BE000007980059
:10229400110798000A00FB00A200200011000900A9
:1022A4000200D80001007800C200DD00E0382800F8
:1022B400810040001101BE000E0090009E009000BD
:1022C400DAFD0700050037000A00FB00C200DD004C
:1022D400E0382800010140001200BE000080FA002E
:0422E40000000600F0
:101A30000000FA00020007002E0E04000000000063
:101A4000889FBE008A9FBE008C1F78003000070070
:101A50003700330003866C006450E100240032003C
:101A60006420E100270032006150E10022003200D2
:101A70006120E100210032008B854200EB07B100BC
:101A80000134B800003AB8000804420089844A00D2
:101A9000013AB8000030B8008880400009014A00CF
:101AA000040033000000400081804800020149002A
:101AB0008B05E900C909DD008301700001003200D7
:101AC00013002000C814DE004814DD004709DE00C2
:101AD0001200B200C808DE0008847000240007006D
:101AE00001F0A1000CF0A70003E0A80019003700E6
:101AF0006120E1001B0032000881BE000280BE00B0
:101B0000F7FF37006150E100FCFF3A001500370095
:101B10000084BE003C0007000083BE000485BE00B8
:101B20000280BE0038000700844F750000000600E8
:101B30000280BE006450E100050036006420E10030
:101B4000020036000968A30001003A000880BE00C8
:101B500002C0A8004F0678004F05BE004F04BE002B
:101B600000000600F0FF2F00F1FF2700F9FF37000B
:101B700081002000618055000B003D000B0020001B
:101B800061FE2F000100E1001D0034008281710020
:101B9000610164008904D1000884D3000000E800DA
:101BA000FAFF3A0071002000610064000300700039
:101BB000020060000900320061044400E0844C002F
:101BC0000988A500050032008B05E8006808E100DF
:101BD00002003A008904D1000884D300F20F2000EB
:101BE0000258E10005003D00C75DDD00F907B200C5
:101BF0008980750008008800000006000BF82700A7
:101C00001B00880000000500C70ADE00F107B200D3
:101C1000F50FB20008003200E1CF420002003200AE
:101C200002E0A80024000500810F700001003200CE
:101C30000408050044000500810F700002003A000E
:101C4000140005008502E9000000400081C0480042
:101C5000FCFF3B0002E0A800240005000080FA0021
:041C6000000006007A
:1028B0000400FA00E0C6B3000054E1003100390022
:1028C0000A80FB0042062000110009000200D80027
:1028D00072004000C200DD00203C280001014000E1
:1028E0001200BE008A1F78000200200003F02300BF
:1028F0004FFC07004F05780000079800110798006B
:102900000A80FB0042062000110009000200D800E6
:1029100001007800A2002000110009000200D80088
:1029200069004000C200DD00203C2800810040001A
:102930001101BE000E0090009E0090008A1F7800DA
:102940003BFC07004F05780000079800110798002E
:102950000A80FB00A2002000110009000200D8003C
:1029600001007800C200DD00203C2800810040000A
:102970001101BE000E0090009E0090002CFC07008C
:10298000270037006A54E1001D0036000A80FB0072
:10299000A2002000110009000200D80069004000D8
:1029A000C200DD00203C2800010140001200BE00F2
:1029B0008A1F78000200200003F023001CFC07009F
:1029C0004F05780000079800110798000A80FB0067
:1029D000A2002000110009000200D80001007800C8
:1029E000C200DD00203C2800810040001101BE0033
:1029F0000E0090009E0090000DFC070008003700BC
:102A00000A80FB00C200DD00203C280001014000DC
:102A10001200BE000200200003F0230004FC0700A7
:082A20000080FA00000006002E
:102A28000000FA00140020008CFC07000080FA0067
:042A38000000060094
:101C64000000FA0002000700A00E040000000000BB
:101C7400841F7800140007004F007800110033001F
:101C8400F0FF2F00838F6C0006003B000405650005
:101C94000A00A7000800370009F0A6001000200081
:101CA40008003700820F5400838F5C000300390062
:101CB4001000200001003E000000200009F0A700F1
:101CC4000000EA00000006000084BE0006000700D1
:101CD4000083BE000485BE000280BE00020007002F
:101CE400844F750000000600C70ADE00F107B20049
:101CF400F50FB20008003200E1CF420002003200CA
:101D040002E0A80024000500810F700001003200E9
:101D14000408050044000500810F700002003A0029
:101D2400140005008502E9000000400081C048005D
:101D3400FCFF3B0002E0A800240005000080FA003C
:041D44000000060095
:102A3C000000FA00F4FF2F0087FC07000080FA006A
:042A4C000000060080
:102644000000FA0002000700541404000000000017
:10265400889FBE008A9FBE008C1F78003E00070042
:102664004500330003866C006450E1002E00320004
:102674006420E100330032006150E1002F00320099
:102684006120E1003100320085855500EB07B00080
:102694000900200008042000050037000804440055
:1026A40089844C000A0031000603430087834B00F1
:1026B4000001530081815B00F8FF33000283BE00F8
:1026C4001000A8000804440089844C00F6FF390077
:1026D400C639DD00830173000100320013002000BD
:1026E4008904D1000884D3000998A30005003200AE
:1026F4000800A7000600A8008904D1000884D300BC
:102704008B05E8008904D1000884D3000001EB00A4
:102714000281D2002800070001F0A1000CF0A700FC
:1027240003E0A8001D0037006420E1001F00320010
:102734000881BE000280BE00F7FF37006120E1007F
:102744001A0032006000B800F3FF370000002000D8
:1027540001F82700F0FF37000084BE003C000700AA
:102764000083BE000485BE000280BE00380007005E
:10277400844F7500000006000280BE006450E10032
:10278400050036006420E100020036000968A30059
:1027940001003A000880BE0002C0A8004F0678007D
:1027A4004F05BE004F04BE0000000600F0FF2F00DE
:1027B400F1FF2700F9FF37008100200061805500F8
:1027C4000B003D000B00200061FE2F000100E10022
:1027D4001D00340082817100610164008904D1000C
:1027E4000884D3000000E800FAFF3A0071002000DA
:1027F4006100640003007000020060000900320000
:1028040061044400E0844C000988A50005003200FE
:102814008B05E8006808E10002003A008904D10051
:102824000884D300F20F20000258E10005003D00A7
:10283400C75DDD00F907B2008980750008008800D3
:10284400000006000BF827001B00880000000500AC
:10285400C70ADE00F107B200F50FB200080032002B
:10286400E1CF42000200320002E0A800240005008B
:10287400810F7000010032000408050044000500C7
:10288400810F700002003A00140005008502E9007F
:102894000000400081C04800FCFF3B0002E0A800AB
:0C28A400240005000080FA00000006007F
:10246C000000FA00020007009E12040000000000A9
:10247C000081BE00190007000470A70003F0A10042
:10248C0003F8A30013003A006509B10010003200F4
:10249C00090035006928E100020035000100280020
:1024AC000000050000004000818048008502E90022
:1024BC00FCFF3A0000000600F88F420005003500D2
:1024CC008100D1000080D3008502E800FCFF3A00B7
:1024DC00000006008000EB0000000500C70ADE00CB
:1024EC00F107B200F50FB20008003200E1CF420054
:1024FC000200320002E0A80024000500810F7000E9
:10250C00010032000408050044000500810F700032
:10251C0002003A00140005008502E90000004000AA
:10252C0081C04800FCFF3B0002E0A800240005002D
:08253C000080FA000000060017
:105434000000FA0002000700CC2A0400000000006B
:105444000400E20006003A000005EB000200E2005E
:105454000F003E000000E200270032000C0037007D
:10546400A10088000200E2000400350008003C00AE
:105474000000E20020003200050037006000100048
:10548400E080180002003B0001F02C001A003700F5
:105494000084BE006011B8006B0920000982CF00AF
:1054A400020039000882CF000441B0006942520072
:1054B4000E00320008003B0082817100610164002B
:1054C4008904D1000884D3008B05E8000442E80075
:1054D400F9FF3A00050037000804440089844C00B1
:1054E4008B05E9000442E900FBFF3A0003000700D2
:1054F4000AF0A70003E0A8000000060081002000D5
:10550400618055000B003D000B00200061FE2F0060
:105514000100E1001D00340082817100610164001A
:105524008904D1000884D3000000E800FAFF3A009F
:10553400710020006100640003007000020060003C
:105544000900320061044400E0844C000988A5008D
:10555400050032008B05E8006808E10002003A000B
:105564008904D1000884D300F20F20000258E1001E
:1055740005003D00C75DDD00F907B20089807500B4
:1055840008008800000006000BF827001B008800B4
:0C559400000005000080FA000000060086
:10531C000000FA0007E0AA0088F207000080FA00FB
:04532C000000060077
:101D48000000FA00020007000C1004000000000068
:101D5800889FBE008A9FBE008C1F7800590007002C
:101D6800600033006450E1004F0032006420E1005D
:101D78005200320003826C0007003B000905D000C6
:101D88000306D000820F54000C065D0002003900E3
:101D98000200320039008800C3008800858255009F
:101DA80004003D000003FD008103FD008502EA00F8
:101DB8008B854200840F720002003B006000100017
:101DC800E08018006011B8000005EB007A28E100F7
:101DD8000A00390006008800C75DDD00F707B20079
:101DE800878075002D003700828171002A008800E5
:101DF800610560008180D1000080D3008502E90080
:101E0800F9FF3B00060440008784480002003B00BD
:101E180060041400E0841C000988A3000700320055
:101E28008A81710082817100610164008904D10096
:101E38000884D3008B05E800170037000978A30051
:101E480013003A001600E200130034008B05E90085
:101E58000804440089844C000A4474000978A300EB
:101E68000D003A001600E200070034008B05E90077
:101E78000804440089844C0001003A000B0020004B
:101E88000978A300F7FF32000001EB0002003700D9
:101E9800828171002A008800220007000CF0A70048
:101EA80003E0A800180037006420E10002003A00AF
:101EB800838F6C00180033000881BE000280BE00CA
:101EC800110037000084BE003C0007000083BE00FC
:101ED8000485BE000280BE0038000700844F7500EC
:101EE800000006000280BE006450E10005003600D4
:101EF8006420E100020036000968A30001003A00EE
:101F08000880BE0002C0A8004F0678004F05BE003A
:101F18004F04BE0000000600F0FF2F00F1FF27006D
:101F2800F9FF370081002000618055000B003D005B
:101F38000B00200061FE2F000100E1001D003400AD
:101F480082817100610164008904D1000884D30092
:101F58000000E800FAFF3A00710020006100640008
:101F680003007000020060000900320061044400B0
:101F7800E0844C000988A500050032008B05E800C4
:101F88006808E10002003A008904D1000884D300FF
:101F9800F20F20000258E10005003D00C75DDD009A
:101FA800F907B20089807500080088000000060063
:101FB8000BF827001B00880000000500C70ADE0098
:101FC800F107B200F50FB20008003200E1CF42007D
:101FD8000200320002E0A80024000500810F700012
:101FE800010032000408050044000500810F70005C
:101FF80002003A00140005008502E90000004000D4
:1020080081C04800FCFF3B0002E0A8002400050056
:082018000080FA000000060040
:105330000000FA00020007000C2A04000000000030
:105340000081BE001F0007000470A70003F0A10049
:105350006509B100160032000D0035006828E10033
:1053600006003500F0FF2F00F1FF27000600E200E5
:1053700013003B0001002800000005000000400071
:10538000818048008502E900FCFF3A0008003700F0
:10539000F88F420002003C008000EB000000050096
:1053A0008100D1000080D3008502E800FCFF3A00B4
:1053B0000600E20002003B0060001000E0801800E0
:1053C00000000600C70ADE00F107B200F50FB200C8
:1053D00008003200E1CF42000200320002E0A800E3
:1053E00024000500810F7000010032000408050050
:1053F00044000500810F700002003A00140005000F
:105400008502E9000000400081C04800FCFF3B002D
:1054100002E0A800240005000080FA000000060059
:10A39400120037006354E10002003A007BC6A900B2
:10A3A400010037007BE6A900120037006354E10086
:10A3B40002003A007BC6A800010037007BE6A80033
:10A3C4000C0037006354E10002003A007BC6AA0087
:10A3D400010037007BE6AA0006003700605CE1005C
:10A3E400ECFF3200615CE100F0FF3200625CE100EE
:08A3F400F4FF32000000060036
:10A5D8008A1F78008B1F78004B0620001AC0B30032
:10A5E800C8F50700CEF4070093F50700B9F5070092
:10A5F80057052D000E20ED00FEFF3A000000000078
:10A60800C6C6A8009F26A900A326A8007AA6A80067
:10A618007EA6A90076A6A900B2A6A900B6A6A8009B
:10A62800CA86A80097F507000CF407001BC0B30002
:10A638001420EF00EDEB07001BC0B3003AC0B300D5
:10A64800EAEB07002CF407005BEF0700CF05780062
:08A658004F0578000000060028
:107D0C000D003700B6E6A8000020EF000B00E100E4
:107D1C0006003100574D21000E20ED00FEFF3A0009
:107D2C00000000000020EC00F8FF370006003700D0
:107D3C00B6E6A900040037006154E100F1FF3200FF
:0C7D4C006054E100FAFF32000000060065
:107928000400FA008A1F78007E06A8007606A800E0
:10793800A266A8007FA6A80077A6A800A2C6A800ED
:10794800DA0020005DF60700DA0020005BF6070089
:107958008000EB00B5F607000007980011079800B3
:10796800DA00200055F607008000EB00AFF60700AC
:107978000E0190009E019000F1E80700020020002F
:10798800030024002DEB0700F22621003300240019
:1079980025E8070002002F00F357240027EB070013
:1079A80002DB2300031824001FE807000001BE00C3
:1079B800829FBE00020020000309240018EC070083
:1079C8000000E0000060EF0001003C000060EC00F7
:1079D8004F01BE000040E200050032007986AF008A
:1079E800030037001AC0B30044F607000E00370042
:1079F8000200BE0002002000030924000DEC07006D
:107A08000000E0000060EF00010034000060EC00BE
:107A18000040E200040032007986AE000200370020
:107A28001420EF0035F607004F0578000080FA00B3
:047A38000000060044
:1052C4000000FA007050E1000400310010002000DA
:1052D4008A00DD00E0672000108870006A3A8800C8
:1052E4004627A8004607AF0001003700FDFF37003E
:1052F4004607A9001287BF000080FA0000000600DC
:105304001440E200020032007B86A800010037004E
:085314007B86A90000000600E1
:107C40000000FA00003D2000805B8800C059200041
:107C5000705B88009920A9009940A9009F40A90065
:107C6000F5E3A9000024EF000224EF00F403A900CB
:107C70000424EF00FCC3A90000122000F4A3B70005
:0C7C8000F5E3A8000080FA0000000600F8
:107CDC00F623EF00F823EF00FC23EF001000200048
:107CEC0004A4B7000824EF000A24EF000C24EF00D2
:107CFC000E24EF0010122800F4A3B70000000600B9
:107C8C008A1F78008B1F78007AA6A8007EA6A90010
:107C9C0076A6A9008BC2B3001420EF007AF507007A
:107CAC000BC1B3001AC0B30077F50700EBCFB300DC
:107CBC003AC1B30074F507007BC1B3002AC1B3000D
:107CCC0071F50700CF0578004F057800000006001D
:105294008A1F78007AA6A9008A1F78000AC4B3007E
:1052A400DFF107004F057800DDF107000B457800BA
:1052B400DBF107007AA6A8004F057800000006007D
:0C1A24000A85FB0043FC070000000600E0
:100B38000000FA0018FF07000080FA000000060015
:1007A0000000FA00FCC3A900FC23AE0001003700E2
:1007B000FDFF37000A208800FC03AF00010037006E
:1007C000FDFF37000084BF000080FA000000060033
:107664008A1F78008B1F7800B2A6A900B6A6A800CE
:107674001620EF002AC0B300DDF7070057052D00E0
:107684000E20ED00FEFF3A00000000001BC0B30016
:107694002AC0B300D6F7070057052D000E20ED00D1
:1076A400FEFF3A00000000003BC8B3003AC0B3003C
:1076B40098F807008BC0B3001420EF0095F807007A
:1076C4001620EF001AC0B30092F807003BC0B300C5
:1076D4003AC0B3008FF807007BC0B3002AC0B300E0
:1076E4008CF807003BC0B3001AC0B30089F8070048
:0C76F400CF0578004F057800000006006C
:1055F4008A1F78008B1F7800A90037003AC1B300D6
:10560400F4F00700804078001640E2000200320007
:1056140061C0700002003700E0CFB30000C060003A
:10562400804578005AC1B30019FF0700B60037005F
:105634003AC1B300E7F00700804078001640E2006A
:105644000200320062C0700002003700D0CFB30005
:1056540000C06000804578005AC1B3000CFF070009
:10566400A90037003AC1B300DAF00700804078009F
:105674001640E2000200320064C0700002003700ED
:10568400B0CFB30000C06000804578005AC1B300B9
:10569400FFFE07009C0037003AC1B300CDF00700BD
:1056A400804078001640E2000200320068C07000BA
:1056B4000200370070CFB30000C06000804578005E
:1056C4005AC1B300F2FE07008F0037003AC1B3009D
:1056D400C0F00700804078001640E200030032006A
:1056E40000C2B30000C0700002003700F0CDB30068
:1056F40000C06000804578005AC1B300E4FE070092
:10570400810037003AC1B300B2F00700804078004E
:105714001640E2000300320000C4B30000C0700071
:1057240002003700F0CBB30000C060008045780071
:105734005AC1B300D6FE0700730037003AC1B30064
:10574400A4F00700804078001640E2000300320015
:1057540000C8B30000C0700002003700F0C7B300F7
:1057640000C06000804578005AC1B300C8FE07003D
:10577400650037002AC1B30096F007008040780026
:105784001640E2000200320062C0700002003700DE
:10579400D0CFB30000C06000804578004AC1B30098
:1057A400BBFE0700580037002AC1B30089F0070088
:1057B400804078001640E2000200320064C07000AD
:1057C40002003700B0CFB30000C06000804578000D
:1057D4004AC1B300AEFE07004B0037002AC1B30034
:1057E4007CF00700804078001640E200020032009E
:1057F40070C0700002003700F0CEB30000C060003B
:10580400804578004AC1B300A1FE07003E0037007E
:105814002AC1B3006FF0070000A0AE0002003700F9
:1058240010C0B300380037000020EF003600370006
:105834002AC1B30067F00700804078001640E200F8
:105844000300320000C4B30000C07000020037003F
:10585400F0CBB30000C06000804578004AC1B300BB
:105864008BFE0700280037002AC1B30059F0070057
:10587400804078001640E2000300320000C8B30004
:1058840000C0700002003700F0C7B30000C0600021
:10589400804578004AC1B3007DFE07001A00370036
:1058A4006054E10055FF32006154E10060FF3200B2
:1058B4006254E1006BFF32006354E10076FF320072
:1058C4006454E10081FF32006554E1008DFF320031
:1058D4006654E10099FF32006C54E100A5FF3200E8
:1058E4006B54E100B0FF32006A54E100BBFF3200A8
:1058F4006954E100C6FF32006854E100CCFF320075
:105904006754E100D8FF3200CF0578004F057800D6
:045914000000060089
:1019D8008A1F78007AA6A9008A1F78001AC4B30063
:1019E8000E0007004F0578000C0007001420EF00D8
:1019F80084FC07007AA6A8004F05780000000600BE
:0C0C0C000A85FB00E3FE07000000060064
:105918008A1F78000A80FB004300DD0000457800FC
:105928008080FB00F00720000080600000457800C0
:10593800B6A6A90000457800C7EE07000B45780019
:10594800C5EE0700B6A6A8004F05780000000600BF
:0C1460000A85FB00B4FD07000000060038
:107700008A1F78008B1F78009F26A900A326A80057
:107710001BC0B3004AC0B300B6F707001420EF0047
:10772000ABF60700CF0578004F0578000000060093
:1051D000A326A9008A1F78001AC0B3003CF007007C
:1051E0004F0578003AF00700A326A800000006004B
:0C12D0000A85FB0018FE07000000060065
:1063C0008A1F7800A2E6A80057052D000E20ED00D8
:1063D000FEFF3A0000000000A2E6A9006A002000CB
:1063E000D5E90700A2E6A8006BFB07000040E20029
:1063F00001003A00FCFF3700A2E6A9001A002000C5
:10640000CDE907002A002000CBE90700A2E6A8009A
:086410004F05780000000600B2
:105198008A1F7800A2E6A9005A00200064EE0700E2
:1051A8001420EF007CED0700A2E6A8000000AF0085
:1051B8000200370010C0B300010037000020EF00E4
:0851C8004F057800000006000D
:0CACC0009ADB88008BDB88000000060097
:10AC80004200FA008A1F7800600047000005780043
:10AC9000B2EB070007FD07006000470000057800E1
:10ACA0002DF40700FBFC070060004700000578005A
:10ACB000E4FC07004F0578000080FA000000060061
:105B5C008A1F78008B1F78008C1F78008D1F7800AF
:105B6C001A20EF001CC0B3008B0220009DFD070023
:105B7C00F80045008A1F78001A20EF001CC0B30003
:105B8C00800578000105780096FD07004F05780028
:105B9C00E60045008A1F78001A20EF001CC0B300F5
:105BAC0080057800010578008EFD07004F05780010
:105BBC00EC0045008A1F78001A20EF001CC0B300CF
:105BCC00800578000105780086FD07004F057800F8
:105BDC00C1032000810045008A1F78001A20EF00C5
:105BEC001CC0B30080057800010578007DFD07001E
:105BFC004F057800F20045008A1F78001A20EF004C
:105C0C001CC0B300800578000105780075FD070005
:105C1C004F057800FE0045008A1F7800EDC1B300E7
:105C2C002CC0B30080057800010578006DFD0700DD
:105C3C004F05780041022000810045008A1F780042
:105C4C00EDC1B3001CC0B3008005780001057800DD
:105C5C0064FD07004F057800A1022000810045007B
:105C6C008A1F7800EDC1B3001CC0B300800578001A
:105C7C00010578005BFD07004F057800010320004B
:105C8C00810045008A1F78008DC0B3001CC0B30092
:105C9C00800578000105780052FD07004F0578005B
:105CAC0061032000810045004DC1B3001CC0B3004E
:105CBC0080057800010578004AFD0700CF067800C2
:105CCC004F067800CF0578004F05780000000600DD
:1051F0000B0D7800640045000C4878001A40E2006E
:10520000020032000D417800010037000C417800A7
:10521000E20045000280FB00008045008008780025
:0C5220006200450010007800000006004D
:10A0B4008A1F78001420EF0073EC07004F05780026
:04A0C4000000060092
:08528C0013F00700000006000A
:0C12DC0081DB8000010001000000060022
:100B4800931107000040E20001003A00FCFF370063
:100B5800A2E6A9008A1F78003A002000F4FF0700E7
:100B68004F05780000F02F00000065004800DE0007
:100B78008A1F780000057800EDFF07004F05780010
:100B8800F00F2000000065008A1F7800000578003B
:100B9800E7FF07001420EF00FFFE07004F0578006D
:080BA800A2E6A800000006000F
:100998000000FA009A84BF007F0060000000E200B7
:1009A80001003200FBFF37009A64A800CBFF070064
:1009B8009A84BF007F0060000000E200010032005E
:1009C800FBFF37001400E200020032009AA4A800DE
:1009D800010037009AA4A9009A84A800BFFF070065
:0C09E80094C4BF000080FA00000006006C
:1008E4000000FA008A20AF0001003700FDFF370046
:0C08F4008A20A9000080FA000000060025
:100ADC000000FA00AA84BF007F0060000000E20062
:100AEC0001003200FBFF3700AA64A80073FF070067
:100AFC00AA84BF007F0060000000E2000100320009
:100B0C00FBFF37001400E20002003200AAA4A80088
:100B1C0001003700AAA4A900AA84A80067FF070057
:0C0B2C00A4C4BF000080FA000000060016
:1008C8000000FA008E40AF0001003700FDFF37003E
:0C08D8008E40A9000080FA00000006001D
:100BB0000000FA00BA84BF007F0060000000E2007D
:100BC00001003200FBFF3700BA64A80030FF0700C5
:100BD000BA84BF007F0060000000E2000100320024
:100BE000FBFF37001400E20002003200BAA4A800A4
:100BF00001003700BAA4A900BA84A80024FF0700A6
:0C0C0000B4C4BF000080FA000000060031
:100890000000FA0090E0AF0001003700FDFF3700D4
:0C08A00090E0A9000080FA0000000600B3
:107D58008A1F78008B1F78008A1F7800FB9120000B
:107D680030F507004F057800780045008A1F780035
:107D7800CB852000000578002AF507004F0578001C
:107D8800660045008A1F78000B92200000057800E5
:107D980024F507004F057800C003200000004500C7
:107DA8008A1F7800DB852000000578001DF5070094
:107DB8004F0578006C0045008A1F78000B80200072
:107DC8000005780017F507004F0578007200450098
:107DD8008A1F7800FB8120000005780011F5070054
:107DE8004F0578007E0045008A1F78000B8220002E
:107DF800000578000BF507004F05780040022000C9
:107E0800000045008A1F78001B80200000057800CC
:107E180004F507004F057800A00220000000450087
:107E28008A1F78004B86200000057800FDF40700C3
:107E38004F05780000032000000045008A1F7800E5
:107E4800EB85200000057800F6F407004F05780060
:107E58006003200000004500EB8320000005780047
:107E6800F0F40700CF0578004F0578000000060001
:10522C000200FA000B0798001A00780000017800C1
:10523C0062004500100078000010E1000E00310003
:10524C000E009000821F78008A9FBE009045780067
:10525C00020578005BF107004F05BE004F01780096
:10526C008E0090006000470061884000E100410022
:10527C0001017800EEFF37000080FA000000060004
:0C17D00090DB800000000100000006001B
:100A3800D71107000040E20001003A00FCFF370030
:100A4800A2E6A9008A1F78006A0020003800070083
:100A58004F057800A2E6A800CD1107000040E2008B
:100A680001003A00FCFF3700A2E6A9008A1F7800BF
:100A78002A0020002E0007004F05780000F02F0004
:100A8800000065004800DE008A1F78000005780035
:100A9800270007004F057800F00F200000006500D0
:100AA8008A1F780000057800210007000B85FB00ED
:100AB8001F0007004F057800A2E6A800A7822600BD
:100AC8000E20ED00FEFF3A000000000000000000CC
:040AD8000000060014
:10A094008A1F78008B1F78001620EF001420EF0031
:10A0A400CADD0700CF0578004F05780000000600E0
:10A044008A1F7800F5EC07004F0578008A1F780016
:10A054005EED07004F0578008A1F78004FED07007A
:10A064004F0578008A1F78006CE107004F057800DF
:10A074008A1F780032E107004F0578008A1F7800B4
:10A0840098E007004F057800B2EB070000000600D7
:105420008B1F7800FB91200036F00700CF05780035
:045430000000060072
:101504000600FA001B0798002B0798001A007800C1
:1015140000079800620045009000780060004700D2
:101524001008E100210036006400450010407800F6
:101534006204E1000C003A008A9FBE000E05900090
:101544002BFD07004F05BE00AE0090008008780018
:101554008E0090006000470062884000AE0090005A
:101564006400470062884000640045001040780031
:101574006104E1000C003A008A9FBE000E05900051
:10158400410F07004F05BE009E0090008048780080
:101594009E00900062004700618840008E00900029
:1015A4006000470061884000DAFF37000080FA00DD
:0415B400000006002D
:1009F4000200FA008A1F78008B1F78008A1F780093
:100A0400350207004F057800004798006100450053
:100A140000057800300207008E45900000457800FC
:100A240095FF0700CF0578004F0578000080FA0095
:040A340000000600B8
:10087C000A80FB00C800DD000B80FB0000807000CC
:04088C000000060062
:1055D0008A1F78008B1F780078004500CB8520005B
:1055E00000057800C7EF0700CF0578004F05780069
:0455F00000000600B1
:1055A0008A1F78008B1F7800660045000B92200050
:1055B00000057800D3EF0700009220001045780026
:1055C000C4F00700CF0578004F0578000000060002
:1018D4008A1F78008B1F78008A4578007AC0B3008D
:1018E400430F0700CF0578004F057800000006007D
:102620008A1F78008B1F78007E0045004BB7210081
:1026300000057800B3FB0700CF0578004F05780050
:042640000000060090
:102544005800FA008A1F78008B1F78008C1F7800CF
:102554008D1F7800E0004700400220000000450085
:102564008A1F78008105780000057800E4FB0700E5
:102574004F057800FE004700A0022000000045003F
:102584008A1F78008105780000057800DCFB0700CD
:102594004F057800C103200081004700000320009C
:1025A400000045008A1F7800810578000005780046
:1025B400D3FB07004F057800410420008100470049
:1025C40060032000000045008105780000057800C4
:1025D400CBFB0700C3032000830147004204200013
:1025E40002014700FE0047006000470083067800B0
:1025F40002067800810578000005780076FC070063
:10260400ECFB0700CF0678004F067800CF05780072
:0C2614004F0578000080FA00000006006E
:1017DC008A1F78008B1F7800614A2800601821004E
:1017EC008C9FBE008A9FBE008D1F78008C1F7800D6
:1017FC008B1F78008A1F7800811F7800801F78006B
:10180C0035260700CF00B1004F05BE004F06BE00C5
:10181C008A9FBE002B902000AADE2100F5FD070058
:10182C004F05BE008B1F78008A057800AADE2100C8
:10183C00DDFD07009B922000AADE2100DAFD0700E7
:10184C00CF057800AADE2100D7FD0700FB8D200014
:10185C00AADE2100D4FD07009B8C20000AE82100A1
:10186C00E4FD07008C0578000AE82100CEFD070096
:10187C003B8E20000AE82100CBFD07008D05780087
:10188C000AE82100C8FD0700CB9120000AE82100DE
:10189C00C5FD070000E82100801F7800A0DE2100B4
:1018AC00801F780080792800801F78006018210044
:1018BC00801F7800082607008F00B100CF05780044
:0818CC004F0578000000060042
:101000000000FA000A00780000017800E1014000C9
:101010008B007800618045008005780011497800D8
:101020001204E0000200320003007800F6FF3700EF
:0C1030000A0078000080FA0000000600B2
:100FB4000000FA000A0078001004E0000200320089
:100FC4000020EC00FCFF370000017800E101400044
:100FD4008B00780061804500800578001149780015
:100FE4001204E0000200320003007800F6FF37002C
:0C0FF4000A0078000080FA0000000600EF
:1015B8000400FA008A1F78008B1F780000002000C2
:1015C8000007980000002000100798000060FE0047
:1015D80080602800801F780060182100801F780034
:1015E800BE2607004F00B100BA8B2000E4FD0700BB
:1015F8008A3E20000B002000B5FD07008A872000E6
:10160800DFFD07008A3E20000B002000B0FD070028
:10161800C06A2800801F780060182100801F7800A9
:10162800AE2607004F00B100AADE2100D4FD070056
:101638008E0190001E0290008E0090001E01900006
:1016480060004700619840006010490000F42100E4
:10165800010020000018E10001A0E1000A003100AB
:101668008A3E20000B00200099FD07003B8A2000DD
:101678002AB92100C7FB07000000E2000100320080
:1016880001003700EAFF370001F4210002002000C2
:10169800600047003008E1002090E10008003E00AB
:1016A800806F2800801F780060182100801F780054
:1016B8008A2607004F00B1000020EF003E003700E7
:1016C800F0502800801F780060182100801F7800E3
:1016D800822607004F00B100380A2000F72D2C00A1
:1016E8000E20ED00FEFF3A001020ED00FCFF3A004E
:1016F800000000000000000045FD070080007800A1
:101708000000E20008003200811F780000782800FD
:10171800801F780060182100801F78006F2607005E
:101728006F00B1000600370050682800801F78005D
:1017380060182100801F7800682607004F00B1005C
:10174800D0632800801F780060182100801F78006F
:10175800622607004F00B100F6FD07000040E200D6
:101768000B003A00F3FD07000040E20008003A00D1
:1017780000572800801F780060182100801F78001B
:10178800562607004F00B1000020EF000A0037007E
:10179800D04E2800801F780060182100801F780034
:1017A8004E2607004F00B1001620EF003AC0B300E4
:1017B800F622070010C0B300CF0578004F05780067
:0817C8000080FA000000060099
:100D88000220EF0001004500104078006004E100F7
:100D980007003200010045008A1F78001085FB001B
:100DA800C0FE07004F0578000220EC00F5FF370071
:040DB8000000060031
:1008AC000000FA009B03AF0001003700FDFF37008A
:0C08BC00EA1C88000080FA000000060022
:100CD8001020EF001220EF008A9FBE0084FE07005C
:100CE8004F05BE000040E2000200320020C0B30001
:100CF800220037008960A9009960A8000801BE0099
:100D08000200BE0061014100E08149000A00E100E3
:100D18000B88E100080031008960AF000600370049
:100D28000060FE000060FE000060FE000060FE0043
:100D38000060FE00F2FF37009A23A9008960AE0028
:100D48000B0037008A9FBE0069FE07004F05BE00F2
:100D58000040E2000200320020C0B3000700370064
:100D68008960A9009960A80010C0B300030037008B
:100D78008960A9009960A8000020EF000000060023
:1006F8008A1F78008B1F78008960AE0022003700BF
:100708000B8920002AB92100A2FF07000000E2009F
:100718001D0032002BB92100EA8F2100BBFF070022
:10072800000178000000E20005003A0081882000FE
:100738000020EF00804878000020EF001300370009
:100748008188200010C0B300804878000620EF00A0
:10075800E08F21001018E100060031000090210010
:100768008300400003004100904878000620EC0018
:10077800F7FF37009A23A9008960A9009960A800AB
:1007880010C0B300010037000020EF00CF0578004B
:080798004F0578000000060087
:10059C000000FA008C1F78006050E1001600320059
:1005AC001A04E000140032008A1F78000B05780052
:1005BC00D2FF07004F0578008A9FBE0000467800E6
:1005CC00D9FF07004F05BE006000E10002003A00B1
:1005DC000A00780009003700610045008A9FBE00C0
:1005EC009B4578000005780084FF07004F05BE008E
:1005FC0000057800E8FF37000020EF004F06780078
:08060C000080FA000000060066
:100534000000FA008C4078006140560000467800C4
:100544000240E200110032001A4078006004E10029
:10055400040032001A4078001B04E10001003A0054
:10056400050037001B4078009A80FB000080FB00E8
:100574000080500006003700610045000005780047
:100584006180450080057800EAFF37000020EF0015
:080594000080FA0000000600DF
:100508000000FA008A007800010078000220EC0060
:100518001004E00001003200FBFF37000A805000A1
:0C0528000020ED000080FA00000006003A
:100408000000FA001A5CE10002003A000A007800D5
:10041800060037008A007800610045000005780072
:100428001104E000F7FF3A000020EF000080FA0016
:0404380000000600BA
:100614000A00FA008B1F78008A9FBE000B05780041
:100624005B8F2000DCFF07004F05BE000000E200E6
:100634002D0032008A1F78000B0578006B8E200095
:10064400D5FF070000017800DB8D2000000578004D
:10065400D1FF07004F057800000378000400E20092
:100664001F0032000C00E2001D00320057C0B3002E
:100674000780FB000000410090407800A0C3B30055
:10068400000CE100090032000780FB00E500500087
:1006940060004700810040000780FB00000041002B
:1006A400904878000E60EC00F1FF37000780FB00F3
:1006B4006500500060014700800041000020EF0009
:1006C400804878008A1F7800020578005AFF0700E6
