:100000002C5D040000000000000000000000000063
:1000100000000000000000000000000000000000E0
:1000200000000000000000000000000000000000D0
:1000300000000000000000000000000000000000C0
:1000400000000000000000000000000000000000B0
:1000500000000000B85C000000000000000000008C
:100060000000000000000000000000000000000090
:100070000000000000000000000000000000000080
:100080000000000000000000000000000000000070
:100090000000000000000000000000000000000060
:1000A000A05E000000000000000000000000000052
:1000B0000000000000000000000000000000000040
:1000C0000000000000000000000000000000000030
:1000D0000000000000000000000000000000000020
:1000E0000000000000000000000000000000000010
:1000F0000000000000000000000000000000000000
:1001000000000000000000000000000000000000EF
:1001100000000000000000000000000000000000DF
:10012000705E000000000000000000000000000001
:1001300000000000000000000000000000000000BF
:1001400000000000000000000000000000000000AF
:10015000000000000000000000000000000000009F
:10016000000000000000000000000000000000008F
:10BA58002FF52100F0FF270020A0B70010202000BC
:10BA680032A0B700400020004420B7000800FA00C8
:10BA78001E5F020000000000285F020000000000B6
:10BA88008A1F78008B1F780000002000104798005C
:10BA980000002000204798000000200020079800A0
:10BAA800000020003007980090FE07008960A90078
:10BAB8009960A8001620EF004AC0B3003CFA0700BE
:10BAC800C1FA0700CB592000CA5120007AFC0700B0
:10BAD80067FC0700DEFB07000040E2000A003A00AE
:10BAE8001BC0B3004AC0B30031FA07001620EF00AC
:10BAF8003AC0B3002EFA0700F18C20000020EF00B6
:10BB0800804878000300370097D60700F18C2000A2
:10BB18008048780080522800801F78002019210072
:10BB2800801F78007EFD07004F00B1000060FE0016
:10BB3800B0BA21001004E00043003200C4FA070044
:10BB4800004798000040E2000D003A003E019000D6
:10BB5800BE009000660047006188400080A923006D
:10BB68000010E100060031000060FE0057002000D0
:10BB78000E20ED00FEFF3A0000000000EFFF370046
:10BB8800600047001004E0002D003200DE46AA00E5
:10BB98001E4190009E4090006100470061C840002F
:10BBA8007414E100090039002E419000F1CFB30070
:10BBB80062004700014869000020EF001047980024
:10BBC800AE4590003AC0B30087E607002085200004
:10BBD800104078006504E1000A003A002085200042
:10BBE800104078006504E10005003A003085200027
:10BBF800104078006004E10001003A0001003700BD
:10BC08000100370057FD07003085200010407800FC
:10BC18006104E10001003A00ADFA0700C0B5200058
:10BC28001000E00005003200EB5A8000AA4D210008
:10BC3800FDFD07000020EF00E05A880001003700F2
:10BC4800CBE707000400370057052D000E20ED0054
:10BC5800FEFF3A00000000000020EF0030079800C7
:10BC6800808820001004E00006003200DBC9800054
:10BC7800CA93210013FC0700818820000020EF00F0
:10BC8800804878002E019000AE00900064004700C4
:10BC980061884000802520000010E100080036007F
:10BCA8000020EF0020079800DBF907006004E1009E
:10BCB80003003A00EEF90700F18C20008048780074
:10BCC800FFEE070099FF3700CF0578004F05780091
:08BCD8000080FA00FFFF3700B5
:10B4F4008A1F78008B1F78000030230000A1B7005A
:10B504000012230002A1B7000621EF006821EF001A
:10B514006A21EF006C21EF000821EF000070200089
:10B524000AA1B7000C21EF000E21EF001021EF005B
:10B534008826EF009C26EF00B026EF00C426EF001B
:10B54400D826EF00EC26EF008626EF009A26EF00BF
:10B55400AE26EF00C226EF00D626EF00EA26EF0063
:10B564007C26EF009026EF00A426EF00B826EF001B
:10B57400CC26EF00E026EF0000F82F0078A1B700FA
:10B58400F0FF2F007AA1B700F0DF2F007CA1B700F5
:10B59400F0FF2F007EA1B700F0FF2F0080A1B700BD
:10B5A400F0FF2F0082A1B700F0FF2F0084A1B700A5
:10B5B400F0FF2F0086A1B700F10B2000001020003F
:10B5C400108860000030200080007800C07E2000D9
:10B5D4009080680000F0270080806000C07E20001A
:10B5E40090806800613F880040C1B30080407800CB
:10B5F400407B200090C06800F0C3B30080C06000AE
:10B60400407B200090C06800407B20000148780007
:10B614000080200080007800407E20009080680038
:10B6240000F0270080806000407E20009080680049
:10B63400213F880070C0B30080407800207F200044
:10B6440090C06800F0C7B30080C06000207F200075
:10B6540090C06800207F20000148780000C1B3003A
:10B6640080407800807B200090C06800F0C3B30065
:10B6740080C06000807B200090C06800807B200038
:10B6840001487800C0C0B30080407800607B20008F
:10B6940090C06800F0C3B30080C06000607B2000ED
:10B6A40090C06800607B20000148780000502000B2
:10B6B40080007800607D20009080680000F0270002
:10B6C40080806000607D200090806800B13E88002A
:10B6D400010420000010200010887000B6A6A90004
:10B6E400B2A6A900B6C6A900B2C6A900B6E6A900CA
:10B6F400B2E6A900DEC6A900E2C6A900DAC6A9001E
:10B70400DEE6A900DCE6A900E2E6A900DAE6A90083
:10B71400DF06A900E306A900DB06A900DF26A900CD
:10B72400E326A900DB26A9007AA6A9007EA6A90023
:10B7340076A6A90078A6A9007A86A9007E86A90023
:10B744007686A9007A66A9007E66A9007666A900B5
:10B754007A46A9007E46A9007646A9007A26A90061
:10B764007E26A9007826A9007626A9007A06A900D3
:10B774007E06A9007606A9007AC6A9007EC6A9009D
:10B7840076C6A9007AE6A9007EE6A90076E6A900B5
:10B794007B06A9007F06A9007706A9007B26A900DD
:10B7A4007F26A9007726A9007B46A9007F46A90029
:10B7B4007746A9007B66A9007F66A9007766A90081
:10B7C4007B86A9007F86A9007786A9007BA6A900AD
:10B7D4007FA6A90077A6A9007BC6A8007FC6A900FA
:10B7E40077C6A9007BE6A8007FE6A90077E6A90052
:10B7F400CA86A900C686A900CAA6A900C6A6A90029
:10B80400CAA6A900C866A900C666A800CA46A900B7
:10B81400C646A900CA46A900CAC6A900C8C6A90046
:10B82400C6C6A900DE66A900DC66A900DA66A9001E
:10B83400DE46A900DA46A900A106A9009F06A900D0
:10B84400A326A900A126A9009F26A900A346A90012
:10B854009F46A900A366A9009F66A800A206A900A6
:10B864009E06A900A226A9009E26A900A246A90018
:10B874009E46A900A266A9009E66A900A286A90008
:10B884009E86A900A2A6A9009EA6A800A2C6A900F9
:10B89400A6C6A9009EC6A900A2E6A800A6E6A9001D
:10B8A4009EE6A900CA06A900C606A900CA26A900E0
:10B8B400C626A900B606A900B206A900B626A900A4
:10B8C400B226A900B646A900B246A900B666A900E8
:10B8D400B266A900B686A900BA86A900B286A900F4
:10B8E4008FA6A90093A6A9008BA6A9008FC6A900BC
:10B8F40093C6A9008BC6A90010A1A8000B002400C0
:10B904001A002000D6F90700305020004AA7B700DB
:10B914000A102E000B002000F0F907000A48280046
:10B92400EB0120004DF90700980020007735220034
:10B934000E20ED00FEFF3A001020ED00FCFF3A005F
:10B9440080662800801F780020192100801F78005D
:10B95400F4FD07004F00B1009BC0A9009960A90045
:0CB96400CF0578004F05780000000600B9
:10A064000000FA00C0922200405D88000007200032
:10A0740046A7B700CA50DD00607420001088700045
:10A0840001002E008074200001886500F0F3210097
:10A094004AA7B7005027EF004E27EF0047E7A80074
:08A0A4000080FA000000060034
:10A0E0000800FA0060E92000709C8800A01B250091
:10A0F000A09C8800E0282500909C8800F0FF2F009D
:10A10000809C8800AE23EF0000002800B0A3B700B9
:10A11000AE63A900D6EB07000001BE00803E200020
:10A120000100200076E007000001BE0061EB07009F
:10A130004100DE00640040008000780060004700BD
:10A140000A88BE008100E900030035001018D00025
:10A150001090D200FBFF3700829FBE008A9FBE0096
:10A160000200BE000E0190009E0190000002EB0074
:10A1700037E007004F05BE004F01BE0020079800E2
:10A18000310798008A9FBE000200BE000E019000B9
:10A190009E0190000002EB0065E007004F05BE0045
:10A1A0008001780001027800600047005001D10072
:10A1B000C080D300640047003008E1002090E10037
:10A1C0000700310061804100E0004A008002780011
:10A1D000010378000501780086017800020037004D
:10A1E00003017800840178000280710033003A0096
:10A1F0009FEB07000001BE00803E20000100200010
:10A200003FE007000001BE002AEB07004100DE002E
:10A2100000A0EC0080007800600047000A88BE00C3
:10A220008100E900030035001018D0001090D20022
:10A23000FBFF3700829FBE000200BE000E019000AF
:10A240009E0190000002EB0001E007004F01BE00FC
:10A2500020079800310798000200BE000E01900010
:10A260009E0190000002EB0031E0070080017800C1
:10A2700001027800600047005001D100C080D30087
:10A28000640047003008E1002090E1000700310041
:10A2900061804100E0004A008002780001037800FC
:10A2A000050178008601780002003700030178007C
:10A2B00084017800AE63A8000000370061005100FF
:10A2C000E0805900B01D8800B023A900AFE3A800CA
:10A2D000B143A800F0EA0700EFEA07000080FA00A7
:04A2E0000000060074
:0C50700000D02700010020000000060016
:084EB4002000200000000600B0
:104E980098002000773522000E20ED00FEFF3A0032
:0C4EA8001020ED00FCFF3A0000000600A6
:102300000000FA00020AB800500088000200B8007D
:1023100081004200032AB800810042000080FA00D8
:0423200000000600B3
:102250000000FA00020007007C11040000000000EA
:102260000800E20002003A0010000700000006002B
:10227000811F78000200E20002003D0060001000B3
:10228000E08018000600E20002003D00600111003D
:10229000E0811900050007004F00E00002003B004C
:1022A00060001000E0801800000006000200070037
:1022B0000480BE00000006006022B8000602200074
:1022C0000000D0008180D2000482D2008582D2003A
:1022D0000000A8000202520083825A0003003B0063
:1022E0000202420083824A000000A1000603E900C6
:1022F000F3FF3A00000006000080FA00000006002C
:102330000000FA0002000700E6110400000000009F
:102340000800E20002003A0010000700000006004A
:10235000839F68000200E20002003D006000100060
:10236000E08018000600E20002003D00600111005C
:10237000E0811900050007004F00E00002003B006B
:1023800060001000E0801800000006006022B80025
:10239000060220000000D0008180D2000482D2001A
:1023A0008582D2000000A8000202520083825A00F7
:1023B00003003B000202420083824A000000A100A9
:1023C0000603E900F3FF3A00000006000080FA006F
:0423D0000000060003
:109E60000800FA0040432000709C8800601C250018
:109E7000A09C8800201D2500909C8800F0FF2F00EA
:109E8000809C88009823EF00000028009AA3B70068
:109E90009863A90076EC07000001BE00803E200018
:109EA0000100200016E107000001BE0001EC0700E0
:109EB0004100DE0064004000800078006000470040
:109EC0000A88BE008100E900030035001018D000A8
:109ED0001090D200FBFF3700829FBE008A9FBE0019
:109EE0000200BE000E0190009E0190000002EB00F7
:109EF000D7E007004F05BE004F01BE0020079800C5
:109F0000310798008A9FBE000200BE000E0190003B
:109F10009E0190000002EB0005E107004F05BE0026
:109F20008001780001027800600047005001D100F4
:109F3000C080D300640047003008E1002090E100B9
:109F40000700310061804100E0004A008002780093
:109F500001037800050178008601780002003700CF
:109F600003017800840178000280710033003A0018
:109F70003FEC07000001BE00803E200001002000F1
:109F8000DFE007000001BE00CAEB07004100DE0071
:109F900000A0EC0080007800600047000A88BE0046
:109FA0008100E900030035001018D0001090D200A5
:109FB000FBFF3700829FBE000200BE000E01900032
:109FC0009E0190000002EB00A1E007004F01BE00DF
:109FD00020079800310798000200BE000E01900093
:109FE0009E0190000002EB00D1E0070080017800A4
:109FF00001027800600047005001D100C080D3000A
:10A00000640047003008E1002090E10007003100C3
:10A0100061804100E0004A0080027800010378007E
:10A0200005017800860178000200370003017800FE
:10A03000840178009863A800000037006100510097
:10A04000E0805900001D88009A23A90099E3A80028
:10A050009B43A80090EB07008FEB07000080FA00FD
:04A0600000000600F6
:10B128000200FA008A1F78008B1F78008C1F7800B5
:10B138004EB99700E00047006A0057008008780081
:10B1480001067800BEBD97000205780068F2070086
:10B158004F067800CF0578004F0578000080FA0088
:04B1680000000600DD
:107AF8002400FA0000002000500F98008B00780046
:107B0800618045008005780011407800204F98007A
:107B18000040E20066083200AE48900050C2B30050
:107B2800000CE100090032008C1F78008A9FBE001B
:107B38008A1F78002E4D9000CF04780009000100BC
:107B48004F05BE004F067800ECFF37000020EF001D
:107B5800600798000020EF00700798001F003700AA
:107B6800FE0090006E004700688870006180450044
:107B7800800578002E003700FE0090006E00470058
:107B88006188700061804500800578002800370012
:107B9800FE0090006E00470062887000618045001A
:107BA80080057800220037007E01900001802000C7
:107BB8006E0047000108710061804500800578006B
:107BC8001B003700FE0090006E00470064887000BC
:107BD8006180450080057800150037009B407800DB
:107BE800D0C2B300000CE100DDFF32009B407800FA
:107BF80000C2B300000CE100DFFF32009B407800B8
:107C0800B0C2B300000CE100E1FF32009B407800F5
:107C180030C2B300000CE100E3FF32009B40780063
:107C280000C3B300000CE100E6FF3200010037009A
:107C3800CAFF37006E0047001010A6000400370086
:107C4800E2FF2F00EE0047006E00470011086100B8
:107C58006E0047001030A60004003700B2FF2F0066
:107C6800EE0047006E004700110861001B407800D5
:107C78000080FB008A1F78000045780065E907004E
:107C88004F0578000000E200160032000020EF00E7
:107C980060079800EE009000A00020000089B9005D
:107CA8001B4078000080FB00000141000103200018
:107CB8006C0047000108510061804500800578008C
:107CC8001B4078000080FB008A1F78000045780080
:107CD80050E907004F0578000000E200EDFF3A0088
:107CE8000D0037009B407800A0C2B300000CE100F3
:107CF80009003A008C0078001C00780000A0ED0014
:107D0800000E7800110078001000780060079800D5
:107D180061804500800578009B407800E0C2B30090
:107D2800000CE10027003A006180450080057800DA
:107D38009B407800A0C2B300000CE1000A003A00A2
:107D48008C0078001C00780000A0ED00000E780080
:107D58001100780010007800400798006180450005
:107D680080057800160037000020EF0040079800D3
:107D78001B4078000080FB008A1F780000457800CF
:107D880024E907004F0578000000E2000C003200EB
:107D9800CE009000A00020000089B9001B407800A8
:107DA8000080FB000001410001032000680047003B
:107DB800010851006180450080057800ECFF37001C
:107DC800060037000020EF00400798007E01900071
:107DD800010021006E004700010871008B00780047
:107DE800618045008005780011407800204F980098
:107DF8009B0037005E089000AE073700FE00900039
:107E08006E00470070887000F4FF37007E01900014
:107E1800014020006E00470001087100D0003700C3
:107E280002022000EE0047006E00470011087100B2
:107E38007E019000011020006E00470001087100CB
:107E4800C70037007E019000012020006E00470027
:107E580001087100C200370002042000EE0047004C
:107E68006E00470011087100BD003700BC003700E4
:107E780002022000EE0047006E0047001108710062
:107E880002082000EE0047006E004700110871004C
:107E9800B30037008C0078001C00780000A0ED00CB
:107EA800000E78001100780010007800300F98005C
:107EB8006000E10002003A0010B12000300F980085
:107EC8000020EF00400F9800BE089000780047009F
:107ED800108040001004E000040032004E089000BA
:107EE8000020EC00400F9800F7FF370068004700BB
:107EF8001000E00006003200CE0090007800470035
:107F08001008E100020031004E009000400F980078
:107F1800EE009000780047001008E10005003600E8
:107F28006E019000F80047006C00470011085100EE
:107F3800020037000020EF00600798006E0047003D
:107F48001030A7000F0037006E019000EE0090007F
:107F58006C004700618850000400E200090032000C
:107F68008C1F78008A9FBE008A1F78000AC2B3005F
:107F7800CF047800090001004F05BE004F067800C5
:107F8800F1FF3700CE0890004E0890000020ED0069
:107F9800400F98000200E2000D0032003E089000F9
:107FA8008C1F78008A9FBE008A1F780010457800D1
:107FB800CF047800090001004F05BE004F06780085
:107FC8003E0890000020EC00300F9800EDFF3700CD
:107FD8006E0047001030A6000F0037006E019000B9
:107FE800EE0090006C004700618850000400E20039
:107FF800090032008C1F78008A9FBE008A1F780013
:108008000AC2B300CF047800090001004F05BE0082
:108018004F067800F1FF3700B8FE37008C00780073
:108028001C00780000A0ED00000E78001100780018
:1080380010007800204F98006A004700300F980021
:1080480010002000400F9800A8FF3700020C200005
:10805800EE0047006E00470011087100400037002D
:108068002E4890006004E10062FF3200AE489000A4
:10807800C0C6B300000CE10060FF3200AE489000BB
:10808800C0C4B300000CE1005CFF3200AE489000B1
:1080980060C6B300000CE1005CFF3200AE489000FF
:1080A80050C4B300000CE1005DFF3200AE48900000
:1080B80050C6B300000CE1005DFF3200AE489000EE
:1080C80070C6B300000CE1005EFF3200AE489000BD
:1080D800F0C6B300000CE1005FFF3200AE4890002C
:1080E80040C6B300000CE10060FF3200AE489000CB
:1080F80090C6B300000CE1005CFF3200AE4890006F
:1081080000C7B300000CE10059FF3200AE489000F0
:1081180080C5B300000CE10055FF3200AE48900066
:1081280080C7B300000CE10055FF3200AE48900054
:1081380030C7B300000CE10056FF3200AE48900093
:1081480030C6B300000CE100B4FF3200AE48900026
:1081580050C7B300000CE100BCFF3200B6FF370087
:10816800FE0090000070200000806000AF04320024
:108178006E00470010C0A600020037006000200013
:10818800400798008C0078001C00780064005000BC
:10819800000E7800110178001200BE00000F980050
:1081A800110F98008C1F78008A9FBE000420EF00F2
:1081B8000620EF00F4E907000000E0000060EF008F
:1081C80001003D000060EC004F05BE004F0678003E
:1081D8000040E2000A0032008E0990001E0A90005A
:1081E8000100200002002800700047000198690083
:1081F80002106A00FE0090006E004700638870005D
:108208000020EF00200F98008C1F78008A9FBE0086
:108218000E0890009E0890000420EF000620EF0052
:10822800D9E907000000E0000060EF00010032001B
:108238000060EC004F05BE004F0678000040E200E9
:1082480049003200F401470070004700B000780090
:1082580020017800C710DE000001EB00F00F2000BD
:1082680080806000E00720000080500080097800CE
:10827800110020007400470010881000AE0890001C
:10828800300020000088B900200F9800A2002000CC
:10829800110009000200D800200F98006000E100DA
:1082A80003003D00110020007400470010881000F2
:1082B8002E089000600010008C1F78008A9FBE0076
:1082C800004578002EE707000E0990009E099000EF
:1082D8009EE60700300F9800410F9800020020002A
:1082E80003F823003E089000CE089000A6E9070096
:1082F8000000E0000060EF0001003D000060EC00BD
:108308004F05BE004F0678000040E200040032002E
:108318001100200074004700108810001200370078
:108328008C1F78008A9FBE000200200003122400E0
:108338003E089000CE08900098E907000000E00091
:108348000060EF00010035000060EC004F05BE0042
:108358004F0678000040E2000300320011002000C0
:1083680074004700108840002E0890006000E1006B
:1083780003003C0010C0B300204F980002003700F3
:108388004E509000204F98006E0047001080A700C4
:108398000E0037006E0047001090A6000A00370054
:1083A800C1FF2F00740047001008E10005003C00E1
:1083B800AE089000680047001008E10001003D0089
:1083C800010037000100370011023700680047003C
:1083D8001000E000060032006E0047001090A60072
:1083E80003003700CE009000680047006188500005
:1083F8004E0090006800E1000300360080C0B30022
:10840800204F9800020037000E489000204F980037
:108418008C1F78008A9FBE000E0890009E0890006E
:108428000420EF000620EF0057E907000000E000F5
:108438000060EF00010032000060EC004F05BE0054
:108448004F0678000040E200720032008C1F78006E
:108458008A9FBE004E559000C9E607000001BE0085
:108468000E0890009E0890004EE80700000F980044
:10847800110F98006A0047001080FB006000100090
:1084880000457800BEE607000001BE000E08900017
:108498009E08900043E80700000F9800110F98000D
:1084A8000AE80700A4F30700600F9800710F98000E
:1084B8000E0890009E0890006E099000FE0990003A
:1084C800F8F307000200200003F0230033E9070057
:1084D8000000E0000060EF00010035000060EC00E3
:1084E8004F05BE004F0678000040E2000B00320046
:1084F8000E0990009E0990000000200001F0230062
:108508008C1F78008A9FBE0017E507004F05BE0044
:108518004F067800000F9800110F98008C1F780004
:108528008A9FBE000E0890009E089000E7E70700AB
:108538004F05BE004F0678006A0147001281FB0014
:108548000420EC00C211DD00424B28000302410068
:108558001401BE000200E1000388E1000F003900A9
:108568008C1F78008A9FBE000E0890009E0890001D
:10857800D2CC2C00C3DC2300F4E507004F05BE0075
:108588004F067800000F9800110F98001100200086
:1085980074004700108840001E0037008C1F7800C8
:1085A8008A9FBE000E0890009E089000C7E707004B
:1085B8004F05BE004F0678006A0147001281FB0094
:1085C800C211DD00424B2800030241001401BE0025
:1085D8000200E1000388E1000E0031008C1F7800E2
:1085E8008A9FBE000E0890009E089000020020009E
:1085F80003122400D5E507004F05BE004F0678009A
:10860800000F9800110F9800110020007400470017
:10861800108810006E0047001090A600490037002F
:108628006E00470010B0A700460037004E009000CB
:108638006A00E10002003400A00020004007980012
:108648008C1F78008A9FBE000E0890009E0890003C
:108658009EE707004F05BE004F067800300F9800D0
:10866800410F9800F60047003100780021007000A3
:108678001D0032008C1F78008A9FBE00A2002000D7
:10868800030020003E089000CE0890000002EB0096
:10869800EDE607004F05BE004F0678006000E100D8
:1086A8006088E10010003A00CE00900068004700A2
:1086B800618850008C1F78008A9FBE00A2002000AD
:1086C800030020003E089000CE0890000002EB0056
:1086D80015E707004F05BE004F067800300F9800D9
:1086E800410F9800DFFF37006A0047009080FB00C9
:1086F800680047001008E100120034006A004700D3
:108708009080FB0068004700108050008C1F7800A4
:108718008A9FBE000045780019E607000001BE00E8
:108728000E0890009E0890009EE707004F05BE00C7
:108738004F067800000F9800110F98000E4890001F
:10874800204F98004E00900065014000EC00470063
:108758006C00470011081100680047001000E00095
:1087680004003A006E00470010B0A700010037006F
:1087780003003700EE0090006C004700618850004D
:108788007E009000630060000000E20003003200F9
:10879800EE0090006C004700618850006E004700B2
:1087A8001020A6002F0037006E0047001010A6000A
:1087B800110037006E0047001000A60003003700C4
:1087C800D0C2B3000047980002003700B0C2B3001F
:1087D800004798008C1F78008A9FBE008A1F780087
:1087E8000E459000CF047800090001004F05BE0037
:1087F8004F0678000B0037006E0047001000A600F7
:10880800080037008C1F78008A9FBE008A1F7800F6
:108818000AC2B300CF047800090001004F05BE006A
:108828004F0678006E0090006000E1000C003400F4
:108838008C1F78008A9FBE008A1F78000AC3B30085
:10884800CF047800090001004F05BE004F067800EC
:10885800EE0090006C00470061885000F1FF37007F
:10886800310037006E0047001030A7000F003700B6
:108878006E0090006000E1000C0034008C1F78004E
:108888008A9FBE008A1F78000AC2B300CF0478000E
:10889800090001004F05BE004F067800EE00900069
:1088A8006C00470061885000F1FF37006E004700F8
:1088B8001010A600110037006E0047001000A60037
:1088C80003003700D0C2B3001047980002003700F9
:1088D800B0C2B300104798008C1F78008A9FBE0072
:1088E8008A1F78001E459000CF0478000900010017
:1088F8004F05BE004F0678000B0037006E0047009A
:108908001000A600080037008C1F78008A9FBE0060
:108918008A1F78000AC2B300CF047800090001005A
:108928004F05BE004F0678008C1F78008A9FBE0056
:108938000E0890009E089000E4E60700300F9800AB
:10894800410F98006A0047001080FB00C200DD005C
:10895800404B2800810040001101BE003E089000F5
:10896800CE0890000002EB006FE607004F05BE003E
:108978000203200003002000020040008A9FBE007E
:108988008A1F780000457800CF04780009000100AC
:108998004F05BE004F067800680047001000E00051
:1089A80004003A006E00470010B0A700010037002D
:1089B8003E0037008C1F78008A9FBE008A1F78000F
:1089C800EAC2B300CF047800090001004F05BE00D9
:1089D8004F0678006A0047001081FB00E800470056
:1089E80068004700110811006A0047001004E00001
:1089F8001F00320011C0B3006A00470010C8100001
:108A08006A0047001080FB00C200DD00404B2800D0
:108A1800810040001101BE008C1F78008A9FBE00B3
:108A28003E089000CE0890000002EB003EE60700EA
:108A3800A2002000030020000002EB0002E607006D
:108A48004F05BE0002032000030020000000410083
:108A58008A9FBE008A1F780000457800CF047800FE
:108A6800090001004F05BE004F067800DEFF370001
:108A7800680047001000E0000C0032008C1F7800EE
:108A88008A9FBE008A1F78000AC3B300CF0478000B
:108A9800090001004F05BE004F067800CE00900087
:108AA8006800470061885000F1FF37006E004700FA
:108AB8001050A600090037008C1F78008A9FBE005E
:108AC8008A1F78005AC4B300CF0478000900010057
:108AD8004F05BE004F067800080037008C1F78004D
:108AE8008A9FBE008A1F78005AC6B300CF04780058
:108AF800090001004F05BE004F0678002E089000BF
:108B08006000E1000C003D00AE08900074004700D2
:108B1800608810008C1F78008A9FBE008A1F78002A
:108B2800DAC2B300CF047800090001004F05BE0087
:108B38004F067800080037008C1F78008A9FBE0017
:108B48008A1F7800BAC2B300CF0478000900010078
:108B58004F05BE004F0678002E089000A2002000A6
:108B6800110009000200D8008000780000032000EE
:108B7800008040008C1F78008A9FBE008A1F780002
:108B880000457800CF047800090001004F05BE00B9
:108B98002E089000A2002000110009000200D80051
:108BA80000032000008040008A9FBE008A1F7800D2
:108BB80000457800CF047800090001004F05BE0089
:108BC8004F0678006E0047001030A6000F003700EF
:108BD8006E0090006000E1000C0034008C1F7800EB
:108BE8008A9FBE008A1F78000AC2B300CF047800AB
:108BF800090001004F05BE004F0678006E00900086
:108C08000020ED0060079800F4FF3A00BBFB370036
:108C18006E0047001090A600670037002E089000ED
:108C28006000E10005003D002E0890006101500041
:108C3800E800470068004700110811008C1F780001
:108C48008A9FBE000E0890009E0890001FE607004D
:108C58004F05BE004F067800300F9800410F98006E
:108C680010C0B300204F98006A0047001080FB0036
:108C78006A00E100100032006A0047001080FB0023
:108C8800C200DD00404B280081014000B30078009D
:108C980023017800760047003008E1002090E100C9
:108CA800010036000400370011C0B3006A00470015
:108CB80010C84000ECFF37006A0047001081FB0035
:108CC800E800470068004700110811008C1F780071
:108CD8008A9FBE003E089000CE08900096F10700DB
:108CE800600F9800710F98000E0890009E08900081
:108CF8006E099000FE099000EAF10700001798003D
:108D0800111798000E4D90009DE407000E11900079
:108D18009E1190000DE407000200200003F02300DC
:108D280011E30700E9E507004F05BE004F0678008C
:108D3800300F9800410F9800680047001000E000CD
:108D48001D0032008C1F78008A9FBE00A200200000
:108D5800030020003E089000CE0890000002EB00BF
:108D680039E507004F05BE004F0678006000E100B6
:108D78006088E10010003A008C1F78008A9FBE00CE
:108D8800A2002000030020003E089000CE089000BA
:108D98000002EB0064E507004F05BE004F067800AF
:108DA800300F9800410F9800CE00900068004700EF
:108DB80061885000E0FF37004E0090006C00E10031
:108DC8000B003C008C1F78008A9FBE000E4D90005F
:108DD8008FE607000E0990009E099000E2E2070066
:108DE8004F05BE004F067800000F9800110F98003D
:108DF8008C1F78008A9FBE000E0890009E08900085
:108E08000420EF000620EF00DFE607000000E00086
:108E18000060EF00010032000060EC004F05BE006A
:108E28004F0678000040E200390032008C1F7800BD
:108E38008A9FBE000E0890009E089000A3E50700D8
:108E48004F05BE004F0678006000E1006088E10031
:108E58002F003A002E0890006100E1002C00340039
:108E68008C1F78008A9FBE004E55900044E407008E
:108E78000001BE000E0890009E089000C9E507009A
:108E8800F205270093082400BFE607000000E00071
:108E98000060EF0001003D000060EC004F05BE00DF
:108EA8004F0678000040E2000400320091002000E4
:108EB800740047001088100003003700810020006C
:108EC80074004700108810008C1F78008A9FBE002D
:108ED8004E5590002AE407000001BE000E089000DD
:108EE8009E089000AFE5070078E507004F05BE0033
:108EF8004F067800300F9800410F98000020EF00CF
:108F08000220EF00000F9800110F9800170037009B
:108F18008C1F78008A9FBE000E0890009E08900063
:108F28006AE50700300F9800410F98003E0890004E
:108F3800CE08900000F10700600F9800710F9800AC
:108F48000E0890009E0890006E099000FE0990009F
:108F580054F107004F05BE004F067800000F980037
:108F6800110F98000020EF00200F980010C0B300E8
:108F7800204F98006A0047001080FB006A00E1005B
:108F8800100032006A0047001080FB00C200DD00BC
:108F9800404B280081014000B3007800230178008D
:108FA800760047003008E1002090E100010036001B
:108FB8000400370011C0B3006A00470010C8400021
:108FC800ECFF37006A0047009080FB00680047000C
:108FD800908040007400470010814000EC0047007A
:108FE8006C004700110811006E00470010B0A70080
:108FF80004003700680047001000E00001003A0054
:1090080003003700EE0090006C00470061885000B4
:109018007E009000630060000000E2000300320060
:10902800EE0090006C004700618850006E00470019
:109038001020A6002F0037006E0047001010A60071
:10904800110037006E0047001000A600030037002B
:10905800D0C2B3002047980002003700B0C2B30066
:10906800204798008C1F78008A9FBE008A1F7800CE
:109078002E459000CF047800090001004F05BE007E
:109088004F0678000B0037006E0047001000A6005E
:10909800080037008C1F78008A9FBE008A1F78005E
:1090A8000AC2B300CF047800090001004F05BE00D2
:1090B8004F0678006E0090006000E1000C0034005C
:1090C8008C1F78008A9FBE008A1F78000AC3B300ED
:1090D800CF047800090001004F05BE004F06780054
:1090E800EE0090006C00470061885000F1FF3700E7
:1090F800310037006E0047001030A7000F0037001E
:109108006E0090006000E1000C0034008C1F7800B5
:109118008A9FBE008A1F78000AC2B300CF04780075
:10912800090001004F05BE004F067800EE009000D0
:109138006C00470061885000F1FF37006E0047005F
:109148001010A600110037006E0047001000A6009E
:1091580003003700D0C2B300304798000200370040
:10916800B0C2B300304798008C1F78008A9FBE00B9
:109178008A1F78003E459000CF047800090001005E
:109188004F05BE004F0678000B0037006E00470001
:109198001000A600080037008C1F78008A9FBE00C8
:1091A8008A1F78000AC2B300CF04780009000100C2
:1091B8004F05BE004F0678002E49900011C0B3003D
:1091C8006A00470010C810000440E2001C0032008A
:1091D8006A0047001080FB00C200DD00404B2800F9
:1091E800810040001101BE008C1F78008A9FBE00DC
:1091F8003E089000CE0890000002EB004AE4070009
:10920800A2002000030020000002EB000EE407008B
:109218004F05BE00020320000300200000004100AB
:109228008A9FBE008A1F780000457800CF04780026
:10923800090001004F05BE004F067800DEFF370029
:109248002E0890006000E1000C0034008C1F7800AC
:109258008A9FBE008A1F78000AC3B300CF04780033
:10926800090001004F05BE004F06780011002000DC
:109278007400470010881000F1FF37004E0090007E
:109288006800E1000300340080C0B300204F98005C
:10929800020037000E489000204F98006A004700EF
:1092A8001081FB00E8004700680047001108110022
:1092B8006A0047001004E00004003A006E0047000E
:1092C80010B0A70001003700080037008C1F780095
:1092D8008A9FBE008A1F7800EAC2B300CF047800D4
:1092E800090001004F05BE004F0678008C1F78006A
:1092F8008A9FBE002E4D900021E307000E099000C2
:109308009E09900091E207006BF007004F05BE0030
:109318004F067800300F9800410F98006A00470008
:109328001004E0001F00320011C0B3006A004700BB
:1093380010C810006A0047001080FB00C200DD0062
:10934800404B2800810040001101BE008C1F7800AE
:109358008A9FBE003E089000CE0890000002EB00F5
:10936800F1E30700A2002000030020000002EB0048
:10937800B5E307004F05BE000203200003002000EC
:10938800000041008A9FBE008A1F780000457800CF
:10939800CF047800090001004F05BE004F06780091
:1093A800DEFF3700680047001000E0000C003200C4
:1093B8008C1F78008A9FBE008A1F78000AC3B300FA
:1093C800CF047800090001004F05BE004F06780061
:1093D800CE0090006800470061885000F1FF370018
:1093E8006E0047001030A6000F0037006E00900096
:1093F8006000E1000C0034008C1F78008A9FBE00DA
:109408008A1F78000AC2B300CF047800090001005F
:109418004F05BE004F0678006E0090000020ED005A
:1094280060079800F4FF3A00B4F93700010C2000F7
:109438006E004700108060006000E10024003A00E0
:109448006E0047001040A600090037008C00780025
:109458001C00780064005000000E780011017800AC
:109468001200BE00300F9800410F98000900370025
:109478008C0078001C00780000A0ED00000E780039
:109488001100780010007800CF80DE00300F9800BF
:10949800410F98003E089000CE0890006000E1005F
:1094A8006088E10009003D00FE0090006E00470062
:1094B800638870003E089000CE089000600010009D
:1094C800E0801800300F9800410F98001500370011
:1094D8006E0047001040A600090037008C00780095
:1094E8001C00780064005000000E7800110178001C
:1094F8001200BE00300F9800410F98000900370095
:109508008C0078001C00780000A0ED00000E7800A8
:1095180011007800100078008000EB00300F9800F0
:10952800410F98004E0090006000E10008003A00EA
:109538003E089000CE0890006000E1006088E100DD
:1095480003003A00CE0090006800470061884000A0
:10955800010C20006E004700108060000042780077
:109568004500370010C0B300204F98006A0047003C
:109578001080FB006A00E100100032006A0047001A
:109588001080FB00C200DD00404B28008101400034
:10959800B300780023017800760047003008E10026
:1095A8002090E1000100360004003700AE4890002A
:1095B8006A00470061C84000ECFF370039003700F7
:1095C80010C0B300204F98006A0047001080FB00CD
:1095D8006800E100100032006A0047001080FB00BC
:1095E800C200DD00205D280081014000B300780042
:1095F80023017800760047003008E1002090E10060
:109608000100360004003700AE4890006A004700A9
:1096180061C84000ECFF37002200370010C0B300DB
:10962800204F98006A0047001080FB006C00E100A2
:10963800100032006A0047001080FB00C200DD0005
:10964800C042280081014000B3007800230178005F
:10965800760047003008E1002090E1000100360064
:1096680004003700AE4890006A00470061C8400017
:10967800ECFF37000B0037006024E100B9FF32002F
:1096880000CCB3000024E100B6FF320000C8B300EC
:109698000024E100CAFF320000C4B3000024E10046
:1096A800DEFF32006A0047009080FB006800470038
:1096B8001008E10003003D000E489000204F98007C
:1096C800080037006A0047009080FB0068004700E8
:1096D8001008E100030034006A0047001080FB0016
:1096E800400798006C0047001000E00007003200B7
:1096F8007E009000630060000000E200030032007A
:10970800EE0090006C00470061885000EE00900069
:10971800680047001008E100050034006E01900061
:10972800E80047006C0047001108510002003700AC
:109738000020EF0060079800FE009000408C200099
:1097480080806000008420000008E10007003A00E3
:109758006C0047001000E00003003200EE009000AB
:109768006C004700618850000F003700FE00900031
:10977800008C200080806000008820000008E10044
:1097880009003A006E0090006200E1000400340015
:10979800EE0090006C00470062885000020037001D
:1097A8000020EF00600798006E0047001020A60018
:1097B8004E0037006E0047001010A6001100370059
:1097C8006E0047001000A60003003700D0C2B300A7
:1097D8004047980002003700B0C2B30040479800E5
:1097E8008C1F78008A9FBE008A1F78004E45900023
:1097F800CF047800090001004F05BE004F0678002D
:109808002A0037006E0047001000A6000900370044
:109818008C1F78008A9FBE008A1F78000AC2B30096
:10982800CF047800090001004F05BE004F067800FC
:109838001E003700FE009000008C20008080600031
:10984800008820000008E10018003A008C1F78000A
:109858008A9FBE008A1F78000AC3B300CF0478002D
:10986800090001004F05BE004F0678006E00470052
:109878001050A6000300370080C5B3005047980079
:109888000200370080C7B300504798008C1F78004B
:109898008A9FBE008A1F78005E459000CF0478003A
:1098A800090001004F05BE004F0678006C00470014
:1098B8001000E0000C0032008C1F78008A9FBE0068
:1098C8008A1F78000AC3B300CF047800090001009A
:1098D8004F05BE004F0678006E0090000020ED0096
:1098E80060079800F4FF3A005E0037006C004700FC
:1098F8001000E0000F0032006E0047001030A70093
:109908000C0037008C1F78008A9FBE008A1F7800E1
:109918000AC2B300CF047800090001004F05BE0059
:109928004F0678006E0090000020ED006007980058
:10993800F4FF3A006E0047001010A600110037002F
:109948006E0047001000A60003003700D0C2B30025
:109958006047980002003700B0C2B3006047980023
:109968008C1F78008A9FBE008A1F78006E45900081
:10997800CF047800090001004F05BE004F067800AB
:109988000B0037006E0047001000A60008003700E3
:109998008C1F78008A9FBE008A1F78000AC2B30015
:1099A800CF047800090001004F05BE004F0678007B
:1099B800FE009000008C2000808060000084200061
:1099C8000008E10009003A008C1F78008A9FBE0059
:1099D8008A1F78000AC3B300CF0478000900010089
:1099E8004F05BE004F0678001E003700FE009000AD
:1099F800008C200080806000008820000008E100C2
:109A080018003A008C1F78008A9FBE008A1F7800D1
:109A18000AC3B300CF047800090001004F05BE0057
:109A28004F0678006E0047001050A600030037006C
:109A380080C5B300704798000200370080C7B300A4
:109A4800704798008C1F78008A9FBE008A1F780094
:109A58007E459000CF047800090001004F05BE0044
:109A68004F0678006A0047009080FB0068004700B6
:109A78001008E10009003D008C1F78008A9FBE0095
:109A88008A1F78000AC3B300CF04780009000100D8
:109A98004F05BE004F067800F2FF37004E019000D8
:109AA800CE00900068004700618850000400E20082
:109AB8006C003200010C20006E004700108060002E
:109AC80000679800520037004E009000C200DD0089
:109AD800404B2800810040001101BE008C1F780017
:109AE8008A9FBE003E089000CE0890000002EB005E
:109AF8000DE20700A2002000030020000002EB0096
:109B0800D1E107004F05BE004F06780003C3B3003C
:109B18006A01470003494000490037006E004700CA
:109B28001050A600140037004E009000C200DD005F
:109B3800205D2800810040001101BE008C1F7800C4
:109B48008A9FBE003E089000CE0890000002EB00FD
:109B5800F5E107004F05BE004F0678006F01600071
:109B6800E081600000762800820040001140780003
:109B7800204F9800130037004E009000C200DD000F
:109B8800205D2800810040001101BE008C1F780074
:109B98008A9FBE003E089000CE0890000002EB00AD
:109BA800E1E107004F05BE004F0678006F01600035
:109BB800E081600030792800820040001140780080
:109BC800204F98001E0037004E009000C200DD00B4
:109BD800C0422800810040001101BE008C1F78009F
:109BE8008A9FBE003E089000CE0890000002EB005D
:109BF800CDE107004F05BE004F0678006701600001
:109C080001C3B3006A004700014841000C00370057
:109C18008E609000600CE100ABFF320000CCB30016
:109C2800000CE100A8FF320000C8B300000CE100FE
:109C3800BAFF320000C4B300000CE100E2FF3200BA
:109C48008C1F78008A9FBE008A1F78002E4D9000D6
:109C5800CF047800090001004F05BE004F067800C8
:109C68008EFF37006E0047001030A6000F00370047
:109C78006E0090006000E1000C0034008C1F78003A
:109C88008A9FBE008A1F78000AC2B300CF047800FA
:109C9800090001004F05BE004F0678006E009000D5
:109CA8000020ED0060079800F4FF3A0093F73700B2
:0C9CB8005E0890000080FA00000006002A
:0C2324000A85FB0080FE07000000060098
:101D2C000000FA00B103AF0001003700FDFF3700DF
:0C1D3C009A1D88000080FA0000000600DC
:10221C000000FA0090C3B3000054E10005003E003A
:10222C0000C3B3000054E1000200390010C0B30039
:10223C00010037000020EF000080FB000080FA0056
:04224C000000060088
:101F88000400FA006054E10052003D000A00FB0022
:101F9800E000100001457800E0C6B300000CE10045
:101FA8002C0035000A00FB00420620001100090041
:101FB8000200D80072004000C200DD00403C28004A
:101FC800010140001200BE000007980011079800A8
:101FD8000A00FB0042062000110009000200D80098
:101FE80001007800A2002000110009000200D800BA
:101FF80069004000C200DD00403C2800810040002C
:102008001101BE000E0090009E0090008A1F78000B
:102018004EFF07004F057800000798001107980049
:102028000A00FB00A2002000110009000200D800ED
:1020380001007800C200DD00403C2800810040001B
:102048001101BE000E0090009E0090003FFF0700A7
:102058006E0037006A54E100180034000A00FB00E3
:10206800A2002000110009000200D8006900400009
:10207800C200DD00403C2800010140001200BE0003
:1020880000079800110798000A00FB00A200200032
:10209800110009000200D80001007800C200DD002C
:1020A800403C2800810040001101BE000E00900055
:1020B8009E00900025FF0700540037000A00FB002F
:1020C800C200DD00403C2800010140001200BE00B3
:1020D8004E003700E0C6B3000054E1002C00350084
:1020E8000A00FB0042062000110009000200D80087
:1020F80072004000C200DD000039280001014000E4
:102108001200BE0000079800110798000A00FB00A3
:1021180042062000110009000200D80001007800E2
:10212800A2002000110009000200D8006900400048
:10213800C200DD0000392800810040001101BE0006
:102148000E0090009E0090008A1F7800FFFE070096
:102158004F05780000079800110798000A00FB0057
:10216800A2002000110009000200D8000100780038
:10217800C200DD0000392800810040001101BE00C6
:102188000E0090009E009000F0FE07001F00370030
:102198006A54E100180034000A00FB00A200200085
:1021A800110009000200D80069004000C200DD00EB
:1021B80000392800010140001200BE000007980005
:1021C800110798000A00FB00A20020001100090076
:1021D8000200D80001007800C200DD0000392800A4
:1021E800810040001101BE000E0090009E0090008A
:1021F800D6FE0700050037000A00FB00C200DD001C
:1022080000392800010140001200BE000080FA00D9
:0422180000000600BC
:101D54000000FA0002000700C00F040000000000A9
:101D6400889FBE008A9FBE008C1F78003000070049
:101D74003700330003866C006450E1002400320015
:101D84006420E100270032006150E10022003200AB
:101D94006120E100210032008B854200EB07B10095
:101DA4000134B800003AB8000804420089844A00AB
:101DB400013AB8000030B8008880400009014A00A8
:101DC4000400330000004000818048000201490003
:101DD4008B05E900C909DD008301700001003200B0
:101DE40013002000C814DE004814DD004709DE009B
:101DF4001200B200C808DE00088470002400070046
:101E040001F0A1000CF0A70003E0A80019003700BE
:101E14006120E1001B0032000881BE000280BE0088
:101E2400F7FF37006150E100FCFF3A00150037006E
:101E34000084BE003C0007000083BE000485BE0091
:101E44000280BE0038000700844F750000000600C1
:101E54000280BE006450E100050036006420E10009
:101E6400020036000968A30001003A000880BE00A1
:101E740002C0A8004F0678004F05BE004F04BE0004
:101E840000000600F0FF2F00F1FF2700F9FF3700E4
:101E940081002000618055000B003D000B002000F4
:101EA40061FE2F000100E1001D00340082817100F9
:101EB400610164008904D1000884D3000000E800B3
:101EC400FAFF3A0071002000610064000300700012
:101ED400020060000900320061044400E0844C0008
:101EE4000988A500050032008B05E8006808E100B8
:101EF40002003A008904D1000884D300F20F2000C4
:101F04000258E10005003D00C75DDD00F907B2009D
:101F14008980750008008800000006000BF827007F
:101F24001B00880000000500C70ADE00F107B200AC
:101F3400F50FB20008003200E1CF42000200320087
:101F440002E0A80024000500810F700001003200A7
:101F54000408050044000500810F700002003A00E7
:101F6400140005008502E9000000400081C048001B
:101F7400FCFF3B0002E0A800240005000080FA00FA
:041F84000000060053
:102818000400FA00E0C6B3000054E10031003900BA
:102828000A80FB0042062000110009000200D800BF
:1028380072004000C200DD00403C28000101400059
:102848001200BE008A1F78000200200003F0230057
:102858003EFD07004F057800000798001107980013
:102868000A80FB0042062000110009000200D8007F
:1028780001007800A2002000110009000200D80021
:1028880069004000C200DD00403C28008100400093
:102898001101BE000E0090009E0090008A1F780073
:1028A8002AFD07004F0578000007980011079800D7
:1028B8000A80FB00A2002000110009000200D800D5
:1028C80001007800C200DD00403C28008100400083
:1028D8001101BE000E0090009E0090001BFD070035
:1028E800270037006A54E1001D0036000A80FB000B
:1028F800A2002000110009000200D8006900400071
:10290800C200DD00403C2800010140001200BE006A
:102918008A1F78000200200003F023000BFD070047
:102928004F05780000079800110798000A80FB00FF
:10293800A2002000110009000200D8000100780060
:10294800C200DD00403C2800810040001101BE00AB
:102958000E0090009E009000FCFC07000800370065
:102968000A80FB00C200DD00403C28000101400055
:102978001200BE000200200003F02300F3FC070051
:082988000080FA0000000600C7
:102990000000FA0014002000ABFC07000080FA00E1
:0429A000000006002D
:101C48000000FA0002000700920E040000000000E5
:101C5800841F7800140007004F007800110033003B
:101C6800F0FF2F00838F6C0006003B000405650021
:101C78000A00A7000800370009F0A600100020009D
:101C880008003700820F5400838F5C00030039007E
:101C98001000200001003E000000200009F0A7000D
:101CA8000000EA00000006000084BE0006000700ED
:101CB8000083BE000485BE000280BE00020007004B
:101CC800844F750000000600C70ADE00F107B20065
:101CD800F50FB20008003200E1CF420002003200E6
:101CE80002E0A80024000500810F70000100320006
:101CF8000408050044000500810F700002003A0046
:101D0800140005008502E9000000400081C0480079
:101D1800FCFF3B0002E0A800240005000080FA0058
:041D280000000600B1
:1029A4000000FA00F4FF2F00A6FC07000080FA00E4
:0429B4000000060019
:1025AC000000FA00020007000814040000000000FC
:1025BC00889FBE008A9FBE008C1F78003E000700DB
:1025CC004500330003866C006450E1002E0032009D
:1025DC006420E100330032006150E1002F00320032
:1025EC006120E1003100320085855500EB07B00019
:1025FC0009002000080420000500370008044400EE
:10260C0089844C000A0031000603430087834B0089
:10261C000001530081815B00F8FF33000283BE0090
:10262C001000A8000804440089844C00F6FF39000F
:10263C00C639DD0083017300010032001300200055
:10264C008904D1000884D3000998A3000500320046
:10265C000800A7000600A8008904D1000884D30054
:10266C008B05E8008904D1000884D3000001EB003D
:10267C000281D2002800070001F0A1000CF0A70095
:10268C0003E0A8001D0037006420E1001F003200A9
:10269C000881BE000280BE00F7FF37006120E10018
:1026AC001A0032006000B800F3FF37000000200071
:1026BC0001F82700F0FF37000084BE003C00070043
:1026CC000083BE000485BE000280BE0038000700F7
:1026DC00844F7500000006000280BE006450E100CB
:1026EC00050036006420E100020036000968A300F2
:1026FC0001003A000880BE0002C0A8004F06780016
:10270C004F05BE004F04BE0000000600F0FF2F0076
:10271C00F1FF2700F9FF3700810020006180550090
:10272C000B003D000B00200061FE2F000100E100BA
:10273C001D00340082817100610164008904D100A4
:10274C000884D3000000E800FAFF3A007100200072
:10275C006100640003007000020060000900320098
:10276C0061044400E0844C000988A5000500320097
:10277C008B05E8006808E10002003A008904D100EA
:10278C000884D300F20F20000258E10005003D0040
:10279C00C75DDD00F907B20089807500080088006C
:1027AC00000006000BF827001B0088000000050045
:1027BC00C70ADE00F107B200F50FB20008003200C4
:1027CC00E1CF42000200320002E0A8002400050024
:1027DC00810F700001003200040805004400050060
:1027EC00810F700002003A00140005008502E90018
:1027FC000000400081C04800FCFF3B0002E0A80044
:0C280C00240005000080FA000000060017
:1024D4000000FA0002000700D2120400000000000D
:1024E4000081BE00190007000470A70003F0A100DA
:1024F40003F8A30013003A006509B100100032008C
:10250400090035006928E1000200350001002800B7
:102514000000050000004000818048008502E900B9
:10252400FCFF3A0000000600F88F42000500350069
:102534008100D1000080D3008502E800FCFF3A004E
:10254400000006008000EB0000000500C70ADE0062
:10255400F107B200F50FB20008003200E1CF4200EB
:102564000200320002E0A80024000500810F700080
:10257400010032000408050044000500810F7000CA
:1025840002003A00140005008502E9000000400042
:1025940081C04800FCFF3B0002E0A80024000500C5
:0825A4000080FA0000000600AF
:105340000000FA0002000700522A040000000000DA
:105350000400E20006003A000005EB000200E20053
:105360000F003E000000E200270032000C00370072
:10537000A10088000200E2000400350008003C00A3
:105380000000E2002000320005003700600010003D
:10539000E080180002003B0001F02C001A003700EA
:1053A0000084BE006011B8006B0920000982CF00A4
:1053B000020039000882CF000441B0006942520067
:1053C0000E00320008003B00828171006101640020
:1053D0008904D1000884D3008B05E8000442E8006A
:1053E000F9FF3A00050037000804440089844C00A6
:1053F0008B05E9000442E900FBFF3A0003000700C7
:105400000AF0A70003E0A8000000060081002000C9
:10541000618055000B003D000B00200061FE2F0055
:105420000100E1001D00340082817100610164000F
:105430008904D1000884D3000000E800FAFF3A0094
:105440007100200061006400030070000200600031
:105450000900320061044400E0844C000988A50082
:10546000050032008B05E8006808E10002003A0000
:105470008904D1000884D300F20F20000258E10013
:1054800005003D00C75DDD00F907B20089807500A9
:1054900008008800000006000BF827001B008800A9
:0C54A000000005000080FA00000006007B
:1054AC000000FA0007E0AA002EF107000080FA00C5
:0454BC0000000600E6
:101970000000FA0002000700200E04000000000032
:10198000889FBE008A9FBE008C1F78005900070008
:10199000600033006450E1004F0032006420E10039
:1019A0005200320003826C0007003B000905D000A2
:1019B0000306D000820F54000C065D0002003900BF
:1019C0000200320039008800C3008800858255007B
:1019D00004003D000003FD008103FD008502EA00D4
:1019E0008B854200840F720002003B0060001000F3
:1019F000E08018006011B8000005EB007A28E100D3
:101A00000A00390006008800C75DDD00F707B20054
:101A1000878075002D003700828171002A008800C0
:101A2000610560008180D1000080D3008502E9005B
:101A3000F9FF3B00060440008784480002003B0099
:101A400060041400E0841C000988A3000700320031
:101A50008A81710082817100610164008904D10072
:101A60000884D3008B05E800170037000978A3002D
:101A700013003A001600E200130034008B05E90061
:101A80000804440089844C000A4474000978A300C7
:101A90000D003A001600E200070034008B05E90053
:101AA0000804440089844C0001003A000B00200027
:101AB0000978A300F7FF32000001EB0002003700B5
:101AC000828171002A008800220007000CF0A70024
:101AD00003E0A800180037006420E10002003A008B
:101AE000838F6C00180033000881BE000280BE00A6
:101AF000110037000084BE003C0007000083BE00D8
:101B00000485BE000280BE0038000700844F7500C7
:101B1000000006000280BE006450E10005003600AF
:101B20006420E100020036000968A30001003A00C9
:101B30000880BE0002C0A8004F0678004F05BE0016
:101B40004F04BE0000000600F0FF2F00F1FF270049
:101B5000F9FF370081002000618055000B003D0037
:101B60000B00200061FE2F000100E1001D00340089
:101B700082817100610164008904D1000884D3006E
:101B80000000E800FAFF3A007100200061006400E4
:101B9000030070000200600009003200610444008C
:101BA000E0844C000988A500050032008B05E800A0
:101BB0006808E10002003A008904D1000884D300DB
:101BC000F20F20000258E10005003D00C75DDD0076
:101BD000F907B2008980750008008800000006003F
:101BE0000BF827001B00880000000500C70ADE0074
:101BF000F107B200F50FB20008003200E1CF420059
:101C00000200320002E0A80024000500810F7000ED
:101C1000010032000408050044000500810F700037
:101C200002003A00140005008502E90000004000AF
:101C300081C04800FCFF3B0002E0A8002400050032
:081C40000080FA00000006001C
:1054C0000000FA0002000700D42A040000000000D7
:1054D0000081BE001F0007000470A70003F0A100B8
:1054E0006509B100160032000D0035006828E100A2
:1054F00006003500F0FF2F00F1FF27000600E20054
:1055000013003B00010028000000050000004000DF
:10551000818048008502E900FCFF3A00080037005E
:10552000F88F420002003C008000EB000000050004
:105530008100D1000080D3008502E800FCFF3A0022
:105540000600E20002003B0060001000E08018004E
:1055500000000600C70ADE00F107B200F50FB20036
:1055600008003200E1CF42000200320002E0A80051
:1055700024000500810F70000100320004080500BE
:1055800044000500810F700002003A00140005007D
:105590008502E9000000400081C04800FCFF3B009C
:1055A00002E0A800240005000080FA0000000600C8
:10A3B800120037006354E10002003A007BC6A9008E
:10A3C800010037007BE6A900120037006354E10062
:10A3D80002003A007BC6A800010037007BE6A8000F
:10A3E8000C0037006354E10002003A007BC6AA0063
:10A3F800010037007BE6AA0006003700605CE10038
:10A40800ECFF3200615CE100F0FF3200625CE100C9
:08A41800F4FF32000000060011
:10A5D0008A1F78008B1F78004B0620001AC0B3003A
:10A5E000B8FD0700B8F4070010F5070036F50700BE
:10A5F00057052D000E20ED00FEFF3A000000000080
:10A60000C6C6A8009F26A900A326A8007AA6A8006F
:10A610007EA6A90076A6A900B2A6A900B6A6A800A3
:10A62000CA86A80014F50700E6F307001BC0B300B4
:10A630001420EF00EEEB07001BC0B3003AC0B300DC
:10A64000EBEB070006F40700B4EC0700CF05780039
:08A650004F0578000000060030
:109CC4000D003700B6E6A8000020EF000B00E1000D
:109CD40006003100574D21000E20ED00FEFF3A0032
:109CE400000000000020EC00F8FF370006003700F9
:109CF400B6E6A900040037006154E100F1FF320028
:0C9D04006054E100FAFF3200000006008D
:1078C8000400FA008A1F78007E06A8007606A80041
:1078D800A266A8007FA6A80077A6A800A2C6A8004E
:1078E800DA0020005AF60700DA00200058F60700F0
:1078F8008000EB0090F60700000798001107980039
:10790800DA00200052F607008000EB008AF6070034
:107918000E0190009E01900013E80700020020006D
:10792800030024001FEB0700F22621003300240087
:1079380006E9070002002F00F357240019EB07009F
:1079480002DB23000318240000E907000001BE0041
:10795800829FBE0002002000030924000AEC0700F1
:107968000000E0000060EF0001003C000060EC0057
:107978004F01BE000040E200050032007986AF00EA
:10798800030037001AC0B30049F607000E0037009D
:107998000200BE000200200003092400FFEB0700DC
:1079A8000000E0000060EF00010034000060EC001F
:1079B8000040E200040032007986AE000200370081
:1079C8001420EF003AF607004F0578000080FA000F
:0479D80000000600A5
:105258000000FA007050E100040031001000200046
:105268008A00DD00E0672000108870006A3A880034
:105278004627A8004607AF0001003700FDFF3700AA
:105288004607A9001287BF000080FA000000060048
:1052B8001440E200020032007B86A800010037009B
:0852C8007B86A900000006002E
:107A2C000000FA00803C2000605D8800406020006F
:107A3C00505D88009920A9009940A9009F40A90099
:107A4C00F5E3A9000024EF000224EF00F403A900E1
:107A5C000424EF00FCC3A90000122000F4A3B7001B
:0C7A6C00F5E3A8000080FA00000006000E
:107AC800F623EF00F823EF00FC23EF00100020005E
:107AD80004A4B7000824EF000A24EF000C24EF00E8
:107AE8000E24EF0010122800F4A3B70000000600CF
:107A78008A1F78008B1F78007AA6A8007EA6A90026
:107A880076A6A9008BC2B3001420EF00A5F5070065
:107A98000BC1B3001AC0B300A2F50700EBCFB300C7
:107AA8003AC1B3009FF507007BC1B3002AC1B300F8
:107AB8009CF50700CF0578004F0578000000060008
:10512C008A1F78007AA6A9008A1F78000AC4B300E7
:10513C0002F307004F05780000F307000B457800D9
:10514C00FEF207007AA6A8004F05780000000600C2
:0C1D48000A85FB00AEFB0700000006004F
:100C08000000FA00E0FE07000080FA00000006007D
:100790000000FA00FCC3A900FC23AE0001003700F2
:1007A000FDFF37000A208800FC03AF00010037007E
:1007B000FDFF37000084BF000080FA000000060043
:1075C4008A1F78008B1F7800B2A6A900B6A6A8006F
:1075D4001620EF002AC0B30004F8070057052D0059
:1075E4000E20ED00FEFF3A00000000001BC0B300B7
:1075F4002AC0B300FDF7070057052D000E20ED004B
:10760400FEFF3A00000000003BC8B3003AC0B300DC
:10761400E6F707008BC0B3001420EF00E3F7070080
:107624001620EF001AC0B300E0F707003BC0B30018
:107634003AC0B300DDF707007BC0B3002AC0B30033
:10764400DAF707003BC0B3001AC0B300D7F707004E
:0C765400CF0578004F057800000006000C
:1055F0008A1F78008B1F7800A90037003AC1B300DA
:105600009CEE0700804078001640E2000200320065
:1056100061C0700002003700E0CFB30000C060003E
:10562000804578005AC1B300C0FE0700B6003700BD
:105630003AC1B3008FEE0700804078001640E200C8
:105640000200320062C0700002003700D0CFB30009
:1056500000C06000804578005AC1B300B3FE070067
:10566000A90037003AC1B30082EE070080407800FD
:105670001640E2000200320064C0700002003700F1
:10568000B0CFB30000C06000804578005AC1B300BD
:10569000A6FE07009C0037003AC1B30075EE070074
:1056A000804078001640E2000200320068C07000BE
:1056B0000200370070CFB30000C060008045780062
:1056C0005AC1B30099FE07008F0037003AC1B300FA
:1056D00068EE0700804078001640E20003003200C8
:1056E00000C2B30000C0700002003700F0CDB3006C
:1056F00000C06000804578005AC1B3008BFE0700EF
:10570000810037003AC1B3005AEE070080407800AC
:105710001640E2000300320000C4B30000C0700075
:1057200002003700F0CBB30000C060008045780075
:105730005AC1B3007DFE0700730037003AC1B300C1
:105740004CEE0700804078001640E2000300320073
:1057500000C8B30000C0700002003700F0C7B300FB
:1057600000C06000804578005AC1B3006FFE07009A
:10577000650037002AC1B3003EEE07008040780084
:105780001640E2000200320062C0700002003700E2
:10579000D0CFB30000C06000804578004AC1B3009C
:1057A00062FE0700580037002AC1B30031EE07003F
:1057B000804078001640E2000200320064C07000B1
:1057C00002003700B0CFB30000C060008045780011
:1057D0004AC1B30055FE07004B0037002AC1B30091
:1057E00024EE0700804078001640E20002003200FC
:1057F00070C0700002003700F0CEB30000C060003F
:10580000804578004AC1B30048FE07003E003700DB
:105810002AC1B30017EE070000A0AE000200370057
:1058200010C0B300380037000020EF00360037000A
:105830002AC1B3000FEE0700804078001640E20056
:105840000300320000C4B30000C070000200370043
:10585000F0CBB30000C06000804578004AC1B300BF
:1058600032FE0700280037002AC1B30001EE07000E
:10587000804078001640E2000300320000C8B30008
:1058800000C0700002003700F0C7B30000C0600025
:10589000804578004AC1B30024FE07001A00370093
:1058A0006054E10055FF32006154E10060FF3200B6
:1058B0006254E1006BFF32006354E10076FF320076
:1058C0006454E10081FF32006554E1008DFF320035
:1058D0006654E10099FF32006C54E100A5FF3200EC
:1058E0006B54E100B0FF32006A54E100BBFF3200AC
:1058F0006954E100C6FF32006854E100CCFF320079
:105900006754E100D8FF3200CF0578004F057800DA
:04591000000006008D
:101074008A1F78007AA6A9008A1F78001AC4B300D0
:10108400300307004F0578002E0307001420EF00FB
:10109400D9FE07007AA6A8004F05780000000600D4
:0C0BFC000A85FB00E3FE07000000060075
:1055B0008A1F78000A80FB004300DD000045780068
:1055C0008080FB00F007200000806000004578002C
:1055D000B6A6A90000457800A3EE07000B457800A9
:1055E000A1EE0700B6A6A8004F057800000006004F
:0C1068000A85FB00E6FE07000000060001
:107660008A1F78008B1F78009F26A900A326A800F8
:107670001BC0B3004AC0B300DDF707001420EF00C1
:1076800005F70700CF0578004F05780000000600D9
:10529800A326A9008A1F78001AC0B30065EF07008B
:1052A8004F05780063EF0700A326A800000006005A
:0C103C000A85FB00F1FE07000000060022
:10591C008A1F7800A2E6A80057052D000E20ED0086
:10592C00FEFF3A0000000000A2E6A9006A00200079
:10593C00B2EC0700A2E6A80062FE07000040E200FD
:10594C0001003A00FCFF3700A2E6A9001A00200073
:10595C00AAEC07002A002000A8EC0700A2E6A80089
:08596C004F0578000000060061
:1052D0008A1F7800A2E6A9005A0020004AEE0700C3
:1052E0001420EF002AED0700A2E6A8000000AF009E
:1052F0000200370010C0B300010037000020EF00AB
:085300004F05780000000600D3
:0CACC0006ADD88007BDD880000000600D3
:10AC78004200FA008A1F780060004700000578004B
:10AC8800E7EB0700B4FD07000040E20004003200D3
:10AC980060004700000578001BFC070066FC070001
:10ACA80060004700000578004AF307004F05780068
:08ACB8000080FA000000060014
:105C28008A1F78008B1F78008C1F78008D1F7800E2
:105C38001A20EF001CC0B3008B02200045FD0700AE
:105C4800F80045008A1F78001A20EF001CC0B30036
:105C580080057800010578003EFD07004F057800B3
:105C6800E60045008A1F78001A20EF001CC0B30028
:105C7800800578000105780036FD07004F0578009B
:105C8800EC0045008A1F78001A20EF001CC0B30002
:105C980080057800010578002EFD07004F05780083
:105CA800C1032000810045008A1F78001A20EF00F8
:105CB8001CC0B300800578000105780025FD0700A9
:105CC8004F057800F20045008A1F78001A20EF007F
:105CD8001CC0B30080057800010578001DFD070091
:105CE8004F057800FE0045008A1F7800EDC1B3001B
:105CF8002CC0B300800578000105780015FD070069
:105D08004F05780041022000810045008A1F780075
:105D1800EDC1B3001CC0B300800578000105780010
:105D28000CFD07004F057800A10220008100450006
:105D38008A1F7800EDC1B3001CC0B300800578004D
:105D48000105780003FD07004F05780001032000D6
:105D5800810045008A1F78008DC0B3001CC0B300C5
:105D68008005780001057800FAFC07004F057800E7
:105D780061032000810045004DC1B3001CC0B30081
:105D88008005780001057800F2FC0700CF0678004E
:105D98004F067800CF0578004F0578000000060010
:10515C000B0D7800640045000C4878001A40E20002
:10516C00020032000D417800010037000C4178003C
:10517C00E20045000280FB000080450080087800BA
:0C518C00620045001000780000000600E2
:10A360008A1F78001420EF006AED07004F0578007F
:04A3700000000600E3
:085914009CEF070000000600F3
:0C17880071DD800001000100000006007F
:100B3800E51107000040E20001003A00FCFF370021
:100B4800A2E6A9008A1F78003A0020002C000700BE
:100B58004F05780000F02F00000065004800DE0017
:100B68008A1F780000057800250007004F057800E7
:100B7800F00F2000000065008A1F7800000578004B
:100B88001F0007001420EF00FFFE07004F05780044
:080B9800A2E6A800000006001F
:100ADC000000FA009A84BF007F0060000000E20072
:100AEC0001003200FBFF37009A64A8009BFF07004F
:100AFC009A84BF007F0060000000E2000100320019
:100B0C00FBFF37001400E200020032009AA4A80098
:100B1C00010037009AA4A9009A84A8008FFF07004F
:0C0B2C0094C4BF000080FA000000060026
:100968000000FA008A20AF0001003700FDFF3700C1
:0C0978008A20A9000080FA0000000600A0
:100BA0000000FA00AA84BF007F0060000000E2009D
:100BB00001003200FBFF3700AA64A80031FF0700E4
:100BC000AA84BF007F0060000000E2000100320044
:100BD000FBFF37001400E20002003200AAA4A800C4
:100BE00001003700AAA4A900AA84A80025FF0700D5
:0C0BF000A4C4BF000080FA000000060052
:100884000000FA008E40AF0001003700FDFF370082
:0C0894008E40A9000080FA000000060061
:1009DC000000FA00BA84BF007F0060000000E20053
:1009EC0001003200FBFF3700BA64A800D4FF0700F7
:1009FC00BA84BF007F0060000000E20001003200FA
:100A0C00FBFF37001400E20002003200BAA4A80079
:100A1C0001003700BAA4A900BA84A800C8FF0700D7
:0C0A2C00B4C4BF000080FA000000060007
:10094C000000FA0090E0AF0001003700FDFF370017
:0C095C0090E0A9000080FA0000000600F6
:109D10000200FA008A1F78008B1F780036ED0700DA
:109D2000000798008A1F7800AB8520001AED070015
:109D30004F057800780045008A1F78002B852000A9
:109D40000005780014ED07004F0578006600450017
:109D50008A1F7800DB8A2000000578000EED0700DE
:109D60004F057800C0032000000045008A1F7800DE
:109D70003B8520000005780007ED07004F057800BF
:109D80006C0045008A1F78003B83200000057800A6
:109D900001ED07004F057800720045008A1F78002A
:109DA0002B83200000057800FBEC07004F057800AE
:109DB0007E0045008A1F78008E059000000578001F
:109DC000F5EC07004F057800400220000000450038
:109DD0008A1F7800BB85200000057800EEEC0700A4
:109DE0004F057800A0022000000045008A1F78007F
:109DF0000B80200000057800E7EC07004F05780095
:109E000000032000000045008A1F78004B852000D9
:109E100000057800E0EC07004F05780060032000A3
:109E2000000045004B83200000057800DAEC0700B5
:109E3000CF0578004F0578000080FA00000006008A
:1051F800418120000800370040812000130037005B
:10520800E090200011003700609420000F00370064
:10521800010078000D00370020852000104078003C
:105228006204E100F4FF320020852000104078007D
:105238006304E100F2FF320020852000104078006E
:105248006404E100F0FF3200F1FF370000000600BF
:105198000200FA000B0798001A0078000001780056
:1051A80062004500100078000010E1000E00310098
:1051B8000E009000821F78008A9FBE0090457800FC
:1051C80002057800E5F007004F05BE004F017800A2
:1051D8008E0090006000470061884000E1004100B7
:1051E80001017800EEFF37000080FA000000060099
:0C15640060DD80000000010000000600B7
:100A3800251207000040E20001003A00FCFF3700E1
:100A4800A2E6A9008A1F78006A0020006C0007004F
:100A58004F057800A2E6A8001B1207000040E2003C
:100A680001003A00FCFF3700A2E6A9008A1F7800BF
:100A78002A002000620007004F05780000F02F00D0
:100A8800000065004800DE008A1F78000005780035
:100A98005B0007004F057800F00F2000000065009C
:100AA8008A1F780000057800550007000B85FB00B9
:100AB800530007004F057800A2E6A800A782260089
:100AC8000E20ED00FEFF3A000000000000000000CC
:040AD8000000060014
:109E40008A1F78008B1F78001620EF001420EF0087
:109E5000C4DD0700CF0578004F057800000006003C
:1079DC008A1F780049F607004F0578008A1F780047
:1079EC004BF607004F0578008A1F7800C0F507009A
:1079FC004F0578008A1F7800AAEA07004F05780027
:107A0C008A1F780070EA07004F0578008A1F7800FB
:107A1C0027F507004F0578002EF50700000006003B
:105308008B1F7800AB85200067F00700CF05780079
:04531800000006008B
:1014B0000600FA001B0798002B0798001A00780016
:1014C0000007980062004500900078006000470027
:1014D0001008E1002100360064004500104078004B
:1014E0006204E1000C003A008A9FBE000E059000E5
:1014F00029FD07004F05BE00AE009000800878006F
:101500008E0090006000470062884000AE009000AE
:101510006400470062884000640045001040780085
:101520006104E1000C003A008A9FBE000E059000A5
:10153000F81007004F05BE009E009000804878001C
:101540009E00900062004700618840008E0090007D
:101550006000470061884000DAFF37000080FA0031
:041560000000060081
:100998000200FA008A1F78008B1F78008A1F7800EF
:1009A800770307004F05780000479800610045006D
:1009B80000057800720307008E4590000045780016
:1009C800EEFF0700CF0578004F0578000080FA0099
:0409D8000000060015
:100984000A80FB00C800DD000B80FB0000807000C3
:040994000000060059
:10531C008A1F78008B1F7800780045002B852000B1
:10532C00000578005FF00700CF0578004F05780086
:04533C000000060067
:1050FC008A1F78008B1F780066004500DB8A200031
:10510C0000057800E7F00700D08A200010457800F1
:10511C00CAEF0700CF0578004F05780000000600A5
:101048008A1F78008B1F78008A4578007AC0B30021
:1010580065110700CF0578004F05780000000600ED
:1024B0008A1F78008B1F78007E0045000BBB21002F
:1024C00000057800FAFB0700CF0578004F0578007B
:0424D0000000060002
:1023D4005800FA008A1F78008B1F78008C1F780041
:1023E4008D1F7800E00047004002200000004500F7
:1023F4008A1F780081057800000578002BFC07000F
:102404004F057800FE004700A002200000004500B0
:102414008A1F7800810578000005780023FC0700F6
:102424004F057800C103200081004700000320000D
:10243400000045008A1F78008105780000057800B7
:102444001AFC07004F057800410420008100470072
:102454006003200000004500810578000005780035
:1024640012FC0700C303200083014700420420003C
:1024740002014700FE004700600047008306780021
:10248400020678008105780000057800C0FC07008A
:1024940036FC0700CF0678004F067800CF05780099
:0C24A4004F0578000080FA0000000600E0
:101794008A1F78008B1F78004150280020192100EF
:1017A4008C9FBE008A9FBE008D1F78008C1F78001E
:1017B4008B1F78008A1F7800811F7800801F7800B3
:1017C40058260700CF00B1004F05BE004F06BE00EB
:1017D4008A9FBE00CB9220006AE2210007FE070028
:1017E4004F05BE008B1F78008A0578006AE221004D
:1017F400EFFD07009B8B20006AE22100ECFD07004F
:10180400CF0578006AE22100E9FD0700EB8D200096
:101814006AE22100E6FD07002B8E2000CAEB2100BE
:10182400F6FD07008C057800CAEB2100E0FD0700F7
:10183400DB8F2000CAEB2100DDFD07008D05780059
:10184400CAEB2100DAFD0700AB8F2000CAEB2100B0
:10185400D7FD0700C0EB2100801F780060E2210063
:10186400801F7800107D2800801F78002019210037
:10187400801F78002B2607008F00B100CF05780069
:081884004F057800000006008A
:101000000000FA000A00780000017800E1014000C9
:101010008B007800618045008005780011497800D8
:101020001204E0000200320003007800F6FF3700EF
:0C1030000A0078000080FA0000000600B2
:100FB4000000FA000A0078001004E0000200320089
:100FC4000020EC00FCFF370000017800E101400044
:100FD4008B00780061804500800578001149780015
:100FE4001204E0000200320003007800F6FF37002C
:0C0FF4000A0078000080FA0000000600EF
:101570000400FA008A1F78008B1F7800000020000A
:101580000007980000002000100798000060FE008F
:10159000C0642800801F780020192100801F780077
:1015A000E12607004F00B1007A932000F6FD070006
:1015B0008A3E20000B002000C7FD07000A90200093
:1015C000F1FD07008A3E20000B002000C2FD07004D
:1015D000D06D2800801F780020192100801F78001E
:1015E000D12607004F00B1006AE22100E6FD0700A6
:1015F0008E0190001E0290008E0090001E0190004F
:1016000060004700619840006010490000F421002C
:10161000010020000018E10001A0E1000A003100F3
:101620008A3E20000B002000ABFD0700FB89200054
:10163000EABC210012FC07000000E20001003200B9
:1016400001003700EAFF370001F42100020020000A
:10165000600047003008E1002090E10008003E00F3
:10166000C0732800801F780020192100801F780097
:10167000AD2607004F00B1000020EF003E0037000C
:10168000205B2800801F780020192100801F78002F
:10169000A52607004F00B100380A2000F72D2C00C6
:1016A0000E20ED00FEFF3A001020ED00FCFF3A0096
:1016B000000000000000000057FD070080007800D7
:1016C0000000E20008003200811F7800407C280002
:1016D000801F780020192100801F780092260700C3
:1016E0006F00B10006003700906C2800801F780062
:1016F00020192100801F78008B2607004F00B100C1
:1017000010682800801F780020192100801F7800B1
:10171000852607004F00B10008FE07000040E200E8
:101720000B003A0005FE07000040E20008003A0006
:10173000205F2800801F780020192100801F78007A
:10174000792607004F00B1000020EF000A003700A3
:10175000F0562800801F780020192100801F780093
:10176000712607004F00B1001620EF003AC0B30009
:101770001123070010C0B300CF0578004F05780093
:081780000080FA0000000600E1
:100D88000220EF0001004500104078006004E100F7
:100D980007003200010045008A1F78001085FB001B
:100DA800AFFE07004F0578000220EC00F5FF370082
:040DB8000000060031
:100868000000FA009B03AF0001003700FDFF3700CE
:0C087800EA1C88000080FA000000060066
:100CD8001020EF001220EF008A9FBE00B6FE07002A
:100CE8004F05BE000040E2000200320020C0B30001
:100CF800220037008960A9009960A8000801BE0099
:100D08000200BE0061014100E08149000A00E100E3
:100D18000B88E100080031008960AF000600370049
:100D28000060FE000060FE000060FE000060FE0043
:100D38000060FE00F2FF37009A23A9008960AE0028
:100D48000B0037008A9FBE009BFE07004F05BE00C0
:100D58000040E2000200320020C0B3000700370064
:100D68008960A9009960A80010C0B300030037008B
:100D78008960A9009960A8000020EF000000060023
:1007C0008A1F78008B1F78008960AE0022003700F6
:1007D0003B882000EABC2100A9FF07000000E200DE
:1007E0001D003200EBBC2100AA9321006BFF070023
:1007F000000178000000E20005003A008188200036
:100800000020EF00804878000020EF001300370040
:100810008188200010C0B300804878000620EF00D7
:10082000A09321001018E10006003100C0932100C0
:100830008300400003004100904878000620EC004F
:10084000F7FF37009A23A9008960A9009960A800E2
:1008500010C0B300010037000020EF00CF05780082
:080860004F05780000000600BE
:100680000000FA008C1F78006050E1001600320074
:100690001A04E000140032008A1F78000B0578006D
:1006A000B3FF07004F0578008A9FBE000046780020
:1006B00095FF07004F05BE006000E10002003A0010
:1006C0000A00780009003700610045008A9FBE00DB
:1006D0009B457800000578004BFF07004F05BE00E2
:1006E00000057800E8FF37000020EF004F06780093
:0806F0000080FA000000060082
:100508000000FA008C4078006140560000467800F0
:100518000240E200110032001A4078006004E10055
:10052800040032001A4078001B04E10001003A0080
:10053800050037001B4078009A80FB000080FB0014
:100548000080500006003700610045000005780073
:100558006180450080057800EAFF37000020EF0041
:080568000080FA00000006000B
:100570000000FA008A007800010078000220EC00F8
:100580001004E00001003200FBFF37000A80500039
:0C0590000020ED000080FA0000000600D2
:100408000000FA001A5CE10002003A000A007800D5
:10041800060037008A007800610045000005780072
:100428001104E000F7FF3A000020EF000080FA0016
:0404380000000600BA
:10059C000A00FA008B1F78008A9FBE000B057800BA
:1005AC004B8B2000330007004F05BE000000E2001B
:1005BC002D0032008A1F78000B057800EB8A200092
:1005CC002C00070000017800DB8B20000005780070
:1005DC00280007004F057800000378000400E200B3
