:10000000325B04000000000000000000000000005F
:1000100000000000000000000000000000000000E0
:1000200000000000000000000000000000000000D0
:1000300000000000000000000000000000000000C0
:1000400000000000000000000000000000000000B0
:1000500000000000BE5A0000000000000000000088
:100060000000000000000000000000000000000090
:100070000000000000000000000000000000000080
:100080000000000000000000000000000000000070
:100090000000000000000000000000000000000060
:1000A000A65C00000000000000000000000000004E
:1000B0000000000000000000000000000000000040
:1000C0000000000000000000000000000000000030
:1000D0000000000000000000000000000000000020
:1000E0000000000000000000000000000000000010
:1000F0000000000000000000000000000000000000
:1001000000000000000000000000000000000000EF
:1001100000000000000000000000000000000000DF
:10012000765C0000000000000000000000000000FD
:1001300000000000000000000000000000000000BF
:1001400000000000000000000000000000000000AF
:10015000000000000000000000000000000000009F
:10016000000000000000000000000000000000008F
:10B664002FEF2100F0FF270020A0B70010202000BA
:10B6740032A0B700400020004420B7000800FA00C0
:10B68400245D0200000000002E5D020000000000A6
:10B694008A1F78008B1F7800000020001047980054
:10B6A4000000200020479800000020002007980098
:10B6B400000020003007980048FA07008960A900BC
:10B6C4009960A8001620EF004AC0B3006BFF070082
:10B6D40084FF0700AB4220004A4E2000A3FF07006E
:10B6E40063FE0700D4FC07000040E2000A003A00B1
:10B6F4001BC0B3004AC0B30060FF07001620EF0070
:10B704003AC0B3005DFF0700418B20000020EF002A
:10B71400804878000300370019D70700418B2000C8
:10B7240080487800A04D2800801F78002027210041
:10B73400801F78008FFE07004F00B1000060FE00FC
:10B7440090B420001004E0004300320048FB0700DE
:10B75400004798000040E2000D003A003E019000CE
:10B76400BE009000660047006188400080A9230065
:10B774000010E100060031000060FE0057002000C8
:10B784000E20ED00FEFF3A0000000000EFFF37003E
:10B79400600047001004E0002D003200DE46AA00DD
:10B7A4001E4190009E4090006100470061C8400027
:10B7B4007414E100090039002E419000F1CFB30068
:10B7C40062004700014869000020EF00104798001C
:10B7D400AE4590003AC0B300B3DD0700A08420005A
:10B7E400104078006504E1000A003A00A0842000BB
:10B7F400104078006504E10005003A00908E2000B6
:10B80400104078006004E10001003A0001003700B4
:10B814000100370068FE0700908E20001040780079
:10B824006104E10001003A00A3FB0700C08E200080
:10B834001000E000050032006B4780002A40210020
:10B844001BFE07000020EF0060478800010037005E
:10B85400C8E907000400370057052D000E20ED004D
:10B86400FEFF3A00000000000020EF0030079800BF
:10B87400A08520001004E000060032009BD980005F
:10B88400AA8D2100F4FC0700A18520000020EF0010
:10B89400804878002E019000AE00900064004700BC
:10B8A40061884000802520000010E1000800360077
:10B8B4000020EF00200798000DFB07006004E10062
:10B8C40003003A002BFB0700418B200080487800DE
:10B8D40000F0070099FF3700CF0578004F05780086
:08B8E4000080FA00FFFF3700AD
:109FE0008A1F78008B1F78000030230000A1B70083
:109FF0000012230002A1B7000621EF006821EF0044
:10A000006A21EF006C21EF000821EF0000702000B2
:10A010000AA1B7000C21EF000E21EF001021EF0084
:10A020008826EF009C26EF00B026EF00C426EF0044
:10A03000D826EF00EC26EF008626EF009A26EF00E8
:10A04000AE26EF00C226EF00D626EF00EA26EF008C
:10A050007C26EF009026EF00A426EF00B826EF0044
:10A06000CC26EF00E026EF0000F82F0078A1B70023
:10A07000F0FF2F007AA1B700F0DF2F007CA1B7001E
:10A08000F0FF2F007EA1B700F0FF2F0080A1B700E6
:10A09000F0FF2F0082A1B700F0FF2F0084A1B700CE
:10A0A000F0FF2F0086A1B700F10B20000010200068
:10A0B000108860000030200080007800C07E200002
:10A0C0009080680000F0270080806000C07E200043
:10A0D00090806800613F880040C1B30080407800F4
:10A0E000407B200090C06800F0C3B30080C06000D7
:10A0F000407B200090C06800407B20000148780031
:10A100000080200080007800407E20009080680061
:10A1100000F0270080806000407E20009080680072
:10A12000213F880070C0B30080407800207F20006D
:10A1300090C06800F0C7B30080C06000207F20009E
:10A1400090C06800207F20000148780000C1B30063
:10A1500080407800807B200090C06800F0C3B3008E
:10A1600080C06000807B200090C06800807B200061
:10A1700001487800C0C0B30080407800607B2000B8
:10A1800090C06800F0C3B30080C06000607B200016
:10A1900090C06800607B20000148780000502000DB
:10A1A00080007800607D20009080680000F027002B
:10A1B00080806000607D200090806800B13E880053
:10A1C000010420000010200010887000B6A6A9002D
:10A1D000B2A6A900B6C6A900B2C6A900B6E6A900F3
:10A1E000B2E6A900DEC6A900E2C6A900DAC6A90047
:10A1F000DEE6A900DCE6A900E2E6A900DAE6A900AD
:10A20000DF06A900E306A900DB06A900DF26A900F6
:10A21000E326A900DB26A9007AA6A9007EA6A9004C
:10A2200076A6A90078A6A9007A86A9007E86A9004C
:10A230007686A9007A66A9007E66A9007666A900DE
:10A240007A46A9007E46A9007646A9007A26A9008A
:10A250007E26A9007826A9007626A9007A06A900FC
:10A260007E06A9007606A9007AC6A9007EC6A900C6
:10A2700076C6A9007AE6A9007EE6A90076E6A900DE
:10A280007B06A9007F06A9007706A9007B26A90006
:10A290007F26A9007726A9007B46A9007F46A90052
:10A2A0007746A9007B66A9007F66A9007766A900AA
:10A2B0007B86A9007F86A9007786A9007BA6A900D6
:10A2C0007FA6A90077A6A9007BC6A8007FC6A90023
:10A2D00077C6A9007BE6A8007FE6A90077E6A9007B
:10A2E000CA86A900C686A900CAA6A900C6A6A90052
:10A2F000CAA6A900C866A900C666A800CA46A900E1
:10A30000C646A900CA46A900CAC6A900C8C6A9006F
:10A31000C6C6A900DE66A900DC66A900DA66A90047
:10A32000DE46A900DA46A900A106A9009F06A900F9
:10A33000A326A900A126A9009F26A900A346A9003B
:10A340009F46A900A366A9009F66A800A206A900CF
:10A350009E06A900A226A9009E26A900A246A90041
:10A360009E46A900A266A9009E66A900A286A90031
:10A370009E86A900A2A6A9009EA6A800A2C6A90022
:10A38000A6C6A9009EC6A900A2E6A800A6E6A90046
:10A390009EE6A900CA06A900C606A900CA26A90009
:10A3A000C626A900B606A900B206A900B626A900CD
:10A3B000B226A900B646A900B246A900B666A90011
:10A3C000B266A900B686A900BA86A900B286A9001D
:10A3D0008FA6A90093A6A9008BA6A9008FC6A900E5
:10A3E00093C6A9008BC6A90010A1A8000B002400E9
:10A3F0001A00200026F50700305020004AA7B700B9
:10A400000A102E000B002000A0F407000A482800C4
:10A41000EB0120001CF40700980020007735220093
:10A420000E20ED00FEFF3A001020ED00FCFF3A0088
:10A43000F0602800801F780020272100801F78000E
:10A440004D0307004F00B1009BC0A9009960A9000F
:0CA45000CF0578004F05780000000600E2
:107890000000FA00E0A72200305A8800000720000C
:1078A00046A7B700CA50DD00607420001088700041
:1078B00001002E008074200001886500F0F3210093
:1078C0004AA7B7005027EF004E27EF0047E7A80070
:0878D0000080FA000000060030
:10768C000800FA00A0B12000505A8800602A25009A
:10769C00805A8800202B250090998800F0FF2F003D
:1076AC0080998800AE23EF0000002800B0A3B7003B
:1076BC00AE63A900CEEC07000001BE00803E2000A6
:1076CC000100200090ED07000001BE00CBEC07008C
:1076DC004100DE006400400080007800600047003C
:1076EC000A88BE008100E900030035001018D000A4
:1076FC001090D200FBFF3700829FBE008A9FBE0015
:10770C000200BE000E0190009E0190000002EB00F2
:10771C004AED07004F05BE004F01BE002007980040
:10772C00310798008A9FBE000200BE000E01900037
:10773C009E0190000002EB0003ED07004F05BE0018
:10774C008001780001027800600047005001D100F0
:10775C00C080D300640047003008E1002090E100B5
:10776C000700310061804100E0004A00800278008F
:10777C0001037800050178008601780002003700CB
:10778C0003017800840178000280710033003A0014
:10779C0097EC07000001BE00803E20000100200095
:1077AC0059ED07000001BE0094EC07004100DE001B
:1077BC0000A0EC0080007800600047000A88BE0042
:1077CC008100E900030035001018D0001090D200A1
:1077DC00FBFF3700829FBE000200BE000E0190002E
:1077EC009E0190000002EB0014ED07004F01BE005B
:1077FC0020079800310798000200BE000E0190008F
:10780C009E0190000002EB00CFEC07008001780095
:10781C0001027800600047005001D100C080D30005
:10782C00640047003008E1002090E10007003100BF
:10783C0061804100E0004A0080027800010378007A
:10784C0005017800860178000200370003017800FA
:10785C0084017800AE63A80000003700610051007D
:10786C00E0805900B01D8800B023A900AFE3A80048
:10787C00B143A8001DED07001CED07000080FA00C5
:04788C0000000600F2
:0C29FC0000D027000100200000000600B1
:082A0800200020000000060080
:102CF80098002000773522000E20ED00FEFF3A00F4
:0C2D08001020ED00FCFF3A000000060067
:102D14000000FA00020AB800500088000200B8005F
:102D240081004200032AB800810042000080FA00BA
:042D34000000060095
:102C48000000FA00020007007816040000000000E7
:102C58000800E20002003A00100007000000060029
:102C6800811F78000200E20002003D0060001000B1
:102C7800E08018000600E20002003D00600111003B
:102C8800E0811900050007004F00E00002003B004A
:102C980060001000E0801800000006000200070035
:102CA8000480BE00000006006022B8000602200072
:102CB8000000D0008180D2000482D2008582D20038
:102CC8000000A8000202520083825A0003003B0061
:102CD8000202420083824A000000A1000603E900C4
:102CE800F3FF3A00000006000080FA00000006002A
:102B54000000FA0002000700F8150400000000005D
:102B64000800E20002003A0010000700000006001E
:102B7400839F68000200E20002003D006000100034
:102B8400E08018000600E20002003D006001110030
:102B9400E0811900050007004F00E00002003B003F
:102BA40060001000E0801800000006006022B800F9
:102BB400060220000000D0008180D2000482D200EE
:102BC4008582D2000000A8000202520083825A00CB
:102BD40003003B000202420083824A000000A1007D
:102BE4000603E900F3FF3A00000006000080FA0043
:042BF40000000600D7
:107488000800FA00603F2000505A8800E0222500DA
:10749800805A880060FE240090998800F0FF2F0031
:1074A800809988009823EF00000028009AA3B7006D
:1074B8009863A9004FED07000001BE00803E200040
:1074C8000100200011EE07000001BE004CED07008E
:1074D8004100DE0064004000800078006000470042
:1074E8000A88BE008100E900030035001018D000AA
:1074F8001090D200FBFF3700829FBE008A9FBE001B
:107508000200BE000E0190009E0190000002EB00F8
:10751800CBED07004F05BE004F01BE0020079800C5
:10752800310798008A9FBE000200BE000E0190003D
:107538009E0190000002EB0084ED07004F05BE009D
:107548008001780001027800600047005001D100F6
:10755800C080D300640047003008E1002090E100BB
:107568000700310061804100E0004A008002780095
:1075780001037800050178008601780002003700D1
:1075880003017800840178000280710033003A001A
:1075980018ED07000001BE00803E20000100200019
:1075A800DAED07000001BE0015ED07004100DE001E
:1075B80000A0EC0080007800600047000A88BE0048
:1075C8008100E900030035001018D0001090D200A7
:1075D800FBFF3700829FBE000200BE000E01900034
:1075E8009E0190000002EB0095ED07004F01BE00E0
:1075F80020079800310798000200BE000E01900095
:107608009E0190000002EB0050ED07008001780019
:1076180001027800600047005001D100C080D3000B
:10762800640047003008E1002090E10007003100C5
:1076380061804100E0004A00800278000103780080
:107648000501780086017800020037000301780000
:10765800840178009863A800000037006100510099
:10766800E0805900001D88009A23A90099E3A8002A
:107678009B43A8009EED07009DED07000080FA00DF
:0476880000000600F8
:10B178000200FA008A1F78008B1F78008C1F780065
:10B188004EB99700E00047006A0057008008780031
:10B1980001067800BEBD97000205780024F207007A
:10B1A8004F067800CF0578004F0578000080FA0038
:04B1B800000006008D
:107A38002400FA0000002000500F98008B00780006
:107A4800618045008005780011407800204F98003B
:107A58000040E20066083200AE48900050C2B30011
:107A6800000CE100090032008C1F78008A9FBE00DC
:107A78008A1F78002E4D9000CF047800090001007D
:107A88004F05BE004F067800ECFF37000020EF00DE
:107A9800600798000020EF00700798001F0037006B
:107AA800FE0090006E004700688870006180450005
:107AB800800578002E003700FE0090006E00470019
:107AC80061887000618045008005780028003700D3
:107AD800FE0090006E0047006288700061804500DB
:107AE80080057800220037007E0190000180200088
:107AF8006E0047000108710061804500800578002C
:107B08001B003700FE0090006E004700648870007C
:107B18006180450080057800150037009B4078009B
:107B2800D0C2B300000CE100DDFF32009B407800BA
:107B380000C2B300000CE100DFFF32009B40780078
:107B4800B0C2B300000CE100E1FF32009B407800B6
:107B580030C2B300000CE100E3FF32009B40780024
:107B680000C3B300000CE100E6FF3200010037005B
:107B7800CAFF37006E0047001010A6000400370047
:107B8800E2FF2F00EE0047006E0047001108610079
:107B98006E0047001030A60004003700B2FF2F0027
:107BA800EE0047006E004700110861001B40780096
:107BB8000080FB008A1F7800004578004AEA070029
:107BC8004F0578000000E200160032000020EF00A8
:107BD80060079800EE009000A00020000089B9001E
:107BE8001B4078000080FB000001410001032000D9
:107BF8006C0047000108510061804500800578004D
:107C08001B4078000080FB008A1F78000045780040
:107C180035EA07004F0578000000E200EDFF3A0062
:107C28000D0037009B407800A0C2B300000CE100B3
:107C380009003A008C0078001C00780000A0ED00D4
:107C4800000E780011007800100078006007980096
:107C580061804500800578009B407800E0C2B30051
:107C6800000CE10027003A0061804500800578009B
:107C78009B407800A0C2B300000CE1000A003A0063
:107C88008C0078001C00780000A0ED00000E780041
:107C980011007800100078004007980061804500C6
:107CA80080057800160037000020EF004007980094
:107CB8001B4078000080FB008A1F78000045780090
:107CC80009EA07004F0578000000E2000C003200C6
:107CD800CE009000A00020000089B9001B40780069
:107CE8000080FB00000141000103200068004700FC
:107CF800010851006180450080057800ECFF3700DD
:107D0800060037000020EF00400798007E01900031
:107D1800010021006E004700010871008B00780007
:107D2800618045008005780011407800204F980058
:107D38009B0037005E089000AE073700FE009000F9
:107D48006E00470070887000F4FF37007E019000D5
:107D5800014020006E00470001087100D000370084
:107D680002022000EE0047006E0047001108710073
:107D78007E019000011020006E004700010871008C
:107D8800C70037007E019000012020006E004700E8
:107D980001087100C200370002042000EE0047000D
:107DA8006E00470011087100BD003700BC003700A5
:107DB80002022000EE0047006E0047001108710023
:107DC80002082000EE0047006E004700110871000D
:107DD800B30037008C0078001C00780000A0ED008C
:107DE800000E78001100780010007800300F98001D
:107DF8006000E10002003A0050AB2000300F98000C
:107E08000020EF00400F9800BE089000780047005F
:107E1800108040001004E000040032004E0890007A
:107E28000020EC00400F9800F7FF3700680047007B
:107E38001000E00006003200CE00900078004700F5
:107E48001008E100020031004E009000400F980039
:107E5800EE009000780047001008E10005003600A9
:107E68006E019000F80047006C00470011085100AF
:107E7800020037000020EF00600798006E004700FE
:107E88001030A7000F0037006E019000EE00900040
:107E98006C004700618850000400E20009003200CD
:107EA8008C1F78008A9FBE008A1F78000AC2B30020
:107EB800CF047800090001004F05BE004F06780086
:107EC800F1FF3700CE0890004E0890000020ED002A
:107ED800400F98000200E2000D0032003E089000BA
:107EE8008C1F78008A9FBE008A1F78001045780092
:107EF800CF047800090001004F05BE004F06780046
:107F08003E0890000020EC00300F9800EDFF37008D
:107F18006E0047001030A6000F0037006E01900079
:107F2800EE0090006C004700618850000400E200F9
:107F3800090032008C1F78008A9FBE008A1F7800D3
:107F48000AC2B300CF047800090001004F05BE0043
:107F58004F067800F1FF3700B8FE37008C00780034
:107F68001C00780000A0ED00000E780011007800D9
:107F780010007800204F98006A004700300F9800E2
:107F880010002000400F9800A8FF3700020C2000C6
:107F9800EE0047006E0047001108710040003700EE
:107FA8002E4890006004E10062FF3200AE48900065
:107FB800C0C6B300000CE10060FF3200AE4890007C
:107FC800C0C4B300000CE1005CFF3200AE48900072
:107FD80060C6B300000CE1005CFF3200AE489000C0
:107FE80050C4B300000CE1005DFF3200AE489000C1
:107FF80050C6B300000CE1005DFF3200AE489000AF
:1080080070C6B300000CE1005EFF3200AE4890007D
:10801800F0C6B300000CE1005FFF3200AE489000EC
:1080280040C6B300000CE10060FF3200AE4890008B
:1080380090C6B300000CE1005CFF3200AE4890002F
:1080480000C7B300000CE10059FF3200AE489000B1
:1080580080C5B300000CE10055FF3200AE48900027
:1080680080C7B300000CE10055FF3200AE48900015
:1080780030C7B300000CE10056FF3200AE48900054
:1080880030C6B300000CE100B4FF3200AE489000E7
:1080980050C7B300000CE100BCFF3200B6FF370048
:1080A800FE0090000070200000806000AF043200E5
:1080B8006E00470010C0A6000200370060002000D4
:1080C800400798008C0078001C007800640050007D
:1080D800000E7800110178001200BE00000F980011
:1080E800110F98008C1F78008A9FBE000420EF00B3
:1080F8000620EF004FE807000000E0000060EF00F6
:1081080001003D000060EC004F05BE004F067800FE
:108118000040E2000A0032008E0990001E0A90001A
:108128000100200002002800700047000198690043
:1081380002106A00FE0090006E004700638870001D
:108148000020EF00200F98008C1F78008A9FBE0047
:108158000E0890009E0890000420EF000620EF0013
:1081680034E807000000E0000060EF000100320082
:108178000060EC004F05BE004F0678000040E200AA
:1081880049003200F401470070004700B000780051
:1081980020017800C710DE000001EB00F00F20007E
:1081A80080806000E007200000805000800978008F
:1081B800110020007400470010881000AE089000DD
:1081C800300020000088B900200F9800A20020008D
:1081D800110009000200D800200F98006000E1009B
:1081E80003003D00110020007400470010881000B3
:1081F8002E089000600010008C1F78008A9FBE0037
:108208000045780010E807000E0990009E099000CC
:1082180094E30700300F9800410F980002002000F7
:1082280003F823003E089000CE08900001E80700FC
:108238000000E0000060EF0001003D000060EC007D
:108248004F05BE004F0678000040E20004003200EF
:108258001100200074004700108810001200370039
:108268008C1F78008A9FBE000200200003122400A1
:108278003E089000CE0890003EE907000000E000AC
:108288000060EF00010035000060EC004F05BE0003
:108298004F0678000040E200030032001100200081
:1082A80074004700108840002E0890006000E1002C
:1082B80003003C0010C0B300204F980002003700B4
:1082C8004E509000204F98006E0047001080A70085
:1082D8000E0037006E0047001090A6000A00370015
:1082E800C1FF2F00740047001008E10005003C00A2
:1082F800AE089000680047001008E10001003D004A
:1083080001003700010037001102370068004700FC
:108318001000E000060032006E0047001090A60032
:1083280003003700CE0090006800470061885000C5
:108338004E0090006800E1000300360080C0B300E2
:10834800204F9800020037000E489000204F9800F8
:108358008C1F78008A9FBE000E0890009E0890002F
:108368000420EF000620EF00B2E707000000E0005D
:108378000060EF00010032000060EC004F05BE0015
:108388004F0678000040E200720032008C1F78002F
:108398008A9FBE004E559000ABE707000001BE0063
:1083A8000E0890009E089000F7E80700000F98005C
:1083B800110F98006A0047001080FB006000100051
:1083C80000457800A0E707000001BE000E089000F5
:1083D8009E089000ECE80700000F9800110F980025
:1083E800AEE807004DE80700600F9800710F98008D
:1083F8000E0890009E0890006E099000FE099000FB
:10840800A1E807000200200003F02300D9E80700D4
:108418000000E0000060EF00010035000060EC00A3
:108428004F05BE004F0678000040E2000B00320006
:108438000E0990009E0990000000200001F0230022
:108448008C1F78008A9FBE0048E507004F05BE00D4
:108458004F067800000F9800110F98008C1F7800C5
:108468008A9FBE000E0890009E0890008BE80700C7
:108478004F05BE004F0678006A0147001281FB00D5
:108488000420EC00C211DD0062462800030241000E
:108498001401BE000200E1000388E1000F0039006A
:1084A8008C1F78008A9FBE000E0890009E089000DE
:1084B800D2CC2C00C3DC2300EAE207004F05BE0043
:1084C8004F067800000F9800110F98001100200047
:1084D80074004700108840001E0037008C1F780089
:1084E8008A9FBE000E0890009E0890006BE8070067
:1084F8004F05BE004F0678006A0147001281FB0055
:10850800C211DD0062462800030241001401BE00CA
:108518000200E1000388E1000E0031008C1F7800A2
:108528008A9FBE000E0890009E089000020020005E
:1085380003122400CBE207004F05BE004F06780067
:10854800000F9800110F98001100200074004700D8
:10855800108810006E0047001090A60049003700F0
:108568006E00470010B0A700460037004E0090008C
:108578006A00E10002003400A000200040079800D3
:108588008C1F78008A9FBE000E0890009E089000FD
:1085980042E807004F05BE004F067800300F9800EC
:1085A800410F9800F6004700310078002100700064
:1085B8001D0032008C1F78008A9FBE00A200200098
:1085C800030020003E089000CE0890000002EB0057
:1085D8009BE907004F05BE004F0678006000E100E8
:1085E8006088E10010003A00CE0090006800470063
:1085F800618850008C1F78008A9FBE00A20020006E
:10860800030020003E089000CE0890000002EB0016
:108618004EE907004F05BE004F067800300F98005E
:10862800410F9800DFFF37006A0047009080FB0089
:10863800680047001008E100120034006A00470093
:108648009080FB0068004700108050008C1F780065
:108658008A9FBE0000457800FBE607000001BE00C7
:108668000E0890009E08900047E807004F05BE00DE
:108678004F067800000F9800110F98000E489000E0
:10868800204F98004E00900065014000EC00470024
:108698006C00470011081100680047001000E00056
:1086A80004003A006E00470010B0A7000100370030
:1086B80003003700EE0090006C004700618850000E
:1086C8007E009000630060000000E20003003200BA
:1086D800EE0090006C004700618850006E00470073
:1086E8001020A6002F0037006E0047001010A600CB
:1086F800110037006E0047001000A6000300370085
:10870800D0C2B3000047980002003700B0C2B300DF
:10871800004798008C1F78008A9FBE008A1F780047
:108728000E459000CF047800090001004F05BE00F7
:108738004F0678000B0037006E0047001000A600B7
:10874800080037008C1F78008A9FBE008A1F7800B7
:108758000AC2B300CF047800090001004F05BE002B
:108768004F0678006E0090006000E1000C003400B5
:108778008C1F78008A9FBE008A1F78000AC3B30046
:10878800CF047800090001004F05BE004F067800AD
:10879800EE0090006C00470061885000F1FF370040
:1087A800310037006E0047001030A7000F00370077
:1087B8006E0090006000E1000C0034008C1F78000F
:1087C8008A9FBE008A1F78000AC2B300CF047800CF
:1087D800090001004F05BE004F067800EE0090002A
:1087E8006C00470061885000F1FF37006E004700B9
:1087F8001010A600110037006E0047001000A600F8
:1088080003003700D0C2B3001047980002003700B9
:10881800B0C2B300104798008C1F78008A9FBE0032
:108828008A1F78001E459000CF04780009000100D7
:108838004F05BE004F0678000B0037006E0047005A
:108848001000A600080037008C1F78008A9FBE0021
:108858008A1F78000AC2B300CF047800090001001B
:108868004F05BE004F0678008C1F78008A9FBE0017
:108878000E0890009E08900088E70700300F9800C7
:10888800410F98006A0047001080FB00C200DD001D
:1088980060462800810040001101BE003E0890009B
:1088A800CE0890000002EB00A8E807004F05BE00C4
:1088B8000203200003002000020040008A9FBE003F
:1088C8008A1F780000457800CF047800090001006D
:1088D8004F05BE004F067800680047001000E00012
:1088E80004003A006E00470010B0A70001003700EE
:1088F8003E0037008C1F78008A9FBE008A1F7800D0
:10890800EAC2B300CF047800090001004F05BE0099
:108918004F0678006A0047001081FB00E800470016
:1089280068004700110811006A0047001004E000C1
:108938001F00320011C0B3006A00470010C81000C1
:108948006A0047001080FB00C200DD006046280076
:10895800810040001101BE008C1F78008A9FBE0074
:108968003E089000CE0890000002EB0077E8070070
:10897800A2002000030020000002EB00B0E807007E
:108988004F05BE0002032000030020000000410044
:108998008A9FBE008A1F780000457800CF047800BF
:1089A800090001004F05BE004F067800DEFF3700C2
:1089B800680047001000E0000C0032008C1F7800AF
:1089C8008A9FBE008A1F78000AC3B300CF047800CC
:1089D800090001004F05BE004F067800CE00900048
:1089E8006800470061885000F1FF37006E004700BB
:1089F8001050A600090037008C1F78008A9FBE001F
:108A08008A1F78005AC4B300CF0478000900010017
:108A18004F05BE004F067800080037008C1F78000D
:108A28008A9FBE008A1F78005AC6B300CF04780018
:108A3800090001004F05BE004F0678002E0890007F
:108A48006000E1000C003D00AE0890007400470093
:108A5800608810008C1F78008A9FBE008A1F7800EB
:108A6800DAC2B300CF047800090001004F05BE0048
:108A78004F067800080037008C1F78008A9FBE00D8
:108A88008A1F7800BAC2B300CF0478000900010039
:108A98004F05BE004F0678002E089000A200200067
:108AA800110009000200D8008000780000032000AF
:108AB800008040008C1F78008A9FBE008A1F7800C3
:108AC80000457800CF047800090001004F05BE007A
:108AD8002E089000A2002000110009000200D80012
:108AE80000032000008040008A9FBE008A1F780093
:108AF80000457800CF047800090001004F05BE004A
:108B08004F0678006E0047001030A6000F003700AF
:108B18006E0090006000E1000C0034008C1F7800AB
:108B28008A9FBE008A1F78000AC2B300CF0478006B
:108B3800090001004F05BE004F0678006E00900046
:108B48000020ED0060079800F4FF3A00BBFB3700F7
:108B58006E0047001090A600670037002E089000AE
:108B68006000E10005003D002E0890006101500002
:108B7800E800470068004700110811008C1F7800C2
:108B88008A9FBE000E0890009E089000C3E607006A
:108B98004F05BE004F067800300F9800410F98002F
:108BA80010C0B300204F98006A0047001080FB00F7
:108BB8006A00E100100032006A0047001080FB00E4
:108BC800C200DD006046280081014000B300780043
:108BD80023017800760047003008E1002090E1008A
:108BE800010036000400370011C0B3006A004700D6
:108BF80010C84000ECFF37006A0047001081FB00F6
:108C0800E800470068004700110811008C1F780031
:108C18008A9FBE003E089000CE0890003FE60700FD
:108C2800600F9800710F98000E0890009E08900041
:108C38006E099000FE09900093E60700001798005F
:108C4800111798000E4D90007FE507000E11900057
:108C58009E11900003E107000200200003F02300AA
:108C680042E307008DE607004F05BE004F06780077
:108C7800300F9800410F9800680047001000E0008E
:108C88001D0032008C1F78008A9FBE00A2002000C1
:108C9800030020003E089000CE0890000002EB0080
:108CA800E7E707004F05BE004F0678006000E100C7
:108CB8006088E10010003A008C1F78008A9FBE008F
:108CC800A2002000030020003E089000CE0890007B
:108CD8000002EB009DE707004F05BE004F06780035
:108CE800300F9800410F9800CE00900068004700B0
:108CF80061885000E0FF37004E0090006C00E100F2
:108D08000B003C008C1F78008A9FBE000E4D90001F
:108D1800EAE407000E0990009E09900013E307009B
:108D28004F05BE004F067800000F9800110F9800FD
:108D38008C1F78008A9FBE000E0890009E08900045
:108D48000420EF000620EF003AE507000000E000ED
:108D58000060EF00010032000060EC004F05BE002B
:108D68004F0678000040E200390032008C1F78007E
:108D78008A9FBE000E0890009E08900047E60700F4
:108D88004F05BE004F0678006000E1006088E100F2
:108D98002F003A002E0890006100E1002C003400FA
:108DA8008C1F78008A9FBE004E55900026E507006C
:108DB8000001BE000E0890009E08900072E60700B1
:108DC800F2052700930824001AE507000000E000D8
:108DD8000060EF0001003D000060EC004F05BE00A0
:108DE8004F0678000040E2000400320091002000A5
:108DF800740047001088100003003700810020002D
:108E080074004700108810008C1F78008A9FBE00ED
:108E18004E5590000CE507000001BE000E089000BA
:108E28009E08900058E607001CE607004F05BE00A4
:108E38004F067800300F9800410F98000020EF008F
:108E48000220EF00000F9800110F9800170037005C
:108E58008C1F78008A9FBE000E0890009E08900024
:108E68000EE60700300F9800410F98003E0890006A
:108E7800CE089000A9E50700600F9800710F9800D0
:108E88000E0890009E0890006E099000FE09900060
:108E9800FDE507004F05BE004F067800000F98005B
:108EA800110F98000020EF00200F980010C0B300A9
:108EB800204F98006A0047001080FB006A00E1001C
:108EC800100032006A0047001080FB00C200DD007D
:108ED8006046280081014000B30078002301780033
:108EE800760047003008E1002090E10001003600DC
:108EF8000400370011C0B3006A00470010C84000E2
:108F0800ECFF37006A0047009080FB0068004700CC
:108F1800908040007400470010814000EC0047003A
:108F28006C004700110811006E00470010B0A70040
:108F380004003700680047001000E00001003A0014
:108F480003003700EE0090006C0047006188500075
:108F58007E009000630060000000E2000300320021
:108F6800EE0090006C004700618850006E004700DA
:108F78001020A6002F0037006E0047001010A60032
:108F8800110037006E0047001000A60003003700EC
:108F9800D0C2B3002047980002003700B0C2B30027
:108FA800204798008C1F78008A9FBE008A1F78008F
:108FB8002E459000CF047800090001004F05BE003F
:108FC8004F0678000B0037006E0047001000A6001F
:108FD800080037008C1F78008A9FBE008A1F78001F
:108FE8000AC2B300CF047800090001004F05BE0093
:108FF8004F0678006E0090006000E1000C0034001D
:109008008C1F78008A9FBE008A1F78000AC3B300AD
:10901800CF047800090001004F05BE004F06780014
:10902800EE0090006C00470061885000F1FF3700A7
:10903800310037006E0047001030A7000F003700DE
:109048006E0090006000E1000C0034008C1F780076
:109058008A9FBE008A1F78000AC2B300CF04780036
:10906800090001004F05BE004F067800EE00900091
:109078006C00470061885000F1FF37006E00470020
:109088001010A600110037006E0047001000A6005F
:1090980003003700D0C2B300304798000200370001
:1090A800B0C2B300304798008C1F78008A9FBE007A
:1090B8008A1F78003E459000CF047800090001001F
:1090C8004F05BE004F0678000B0037006E004700C2
:1090D8001000A600080037008C1F78008A9FBE0089
:1090E8008A1F78000AC2B300CF0478000900010083
:1090F8004F05BE004F0678002E49900011C0B300FE
:109108006A00470010C810000440E2001C0032004A
:109118006A0047001080FB00C200DD00604628009E
:10912800810040001101BE008C1F78008A9FBE009C
:109138003E089000CE0890000002EB0083E607008E
:10914800A2002000030020000002EB00BCE607009C
:109158004F05BE000203200003002000000041006C
:109168008A9FBE008A1F780000457800CF047800E7
:10917800090001004F05BE004F067800DEFF3700EA
:109188002E0890006000E1000C0034008C1F78006D
:109198008A9FBE008A1F78000AC3B300CF047800F4
:1091A800090001004F05BE004F067800110020009D
:1091B8007400470010881000F1FF37004E0090003F
:1091C8006800E1000300340080C0B300204F98001D
:1091D800020037000E489000204F98006A004700B0
:1091E8001081FB00E80047006800470011081100E3
:1091F8006A0047001004E00004003A006E004700CF
:1092080010B0A70001003700080037008C1F780055
:109218008A9FBE008A1F7800EAC2B300CF04780094
:10922800090001004F05BE004F0678008C1F78002A
:109238008A9FBE002E4D900003E407000E0990009F
:109248009E09900087DF0700B9E607004F05BE00BA
:109258004F067800300F9800410F98006A004700C9
:109268001004E0001F00320011C0B3006A0047007C
:1092780010C810006A0047001080FB00C200DD0023
:1092880060462800810040001101BE008C1F780054
:109298008A9FBE003E089000CE0890000002EB00B6
:1092A8002AE60700A2002000030020000002EB00CD
:1092B80063E607004F05BE000203200003002000FC
:1092C800000041008A9FBE008A1F78000045780090
:1092D800CF047800090001004F05BE004F06780052
:1092E800DEFF3700680047001000E0000C00320085
:1092F8008C1F78008A9FBE008A1F78000AC3B300BB
:10930800CF047800090001004F05BE004F06780021
:10931800CE0090006800470061885000F1FF3700D8
:109328006E0047001030A6000F0037006E00900056
:109338006000E1000C0034008C1F78008A9FBE009A
:109348008A1F78000AC2B300CF0478000900010020
:109358004F05BE004F0678006E0090000020ED001B
:1093680060079800F4FF3A00B4F93700010C2000B8
:109378006E004700108060006000E10024003A00A1
:109388006E0047001040A600090037008C007800E6
:109398001C00780064005000000E7800110178006D
:1093A8001200BE00300F9800410F980009003700E6
:1093B8008C0078001C00780000A0ED00000E7800FA
:1093C8001100780010007800CF80DE00300F980080
:1093D800410F98003E089000CE0890006000E10020
:1093E8006088E10009003D00FE0090006E00470023
:1093F800638870003E089000CE089000600010005E
:10940800E0801800300F9800410F980015003700D1
:109418006E0047001040A600090037008C00780055
:109428001C00780064005000000E780011017800DC
:109438001200BE00300F9800410F98000900370055
:109448008C0078001C00780000A0ED00000E780069
:1094580011007800100078008000EB00300F9800B1
:10946800410F98004E0090006000E10008003A00AB
:109478003E089000CE0890006000E1006088E1009E
:1094880003003A00CE009000680047006188400061
:10949800010C20006E004700108060000042780038
:1094A8004500370010C0B300204F98006A004700FD
:1094B8001080FB006A00E100100032006A004700DB
:1094C8001080FB00C200DD006046280081014000DA
:1094D800B300780023017800760047003008E100E7
:1094E8002090E1000100360004003700AE489000EB
:1094F8006A00470061C84000ECFF370039003700B8
:1095080010C0B300204F98006A0047001080FB008D
:109518006800E100100032006A0047001080FB007C
:10952800C200DD000052280081014000B30078002D
:1095380023017800760047003008E1002090E10020
:109548000100360004003700AE4890006A0047006A
:1095580061C84000ECFF37002200370010C0B3009C
:10956800204F98006A0047001080FB006C00E10063
:10957800100032006A0047001080FB00C200DD00C6
:109588006040280081014000B30078002301780082
:10959800760047003008E1002090E1000100360025
:1095A80004003700AE4890006A00470061C84000D8
:1095B800ECFF37000B0037006024E100B9FF3200F0
:1095C80000CCB3000024E100B6FF320000C8B300AD
:1095D8000024E100CAFF320000C4B3000024E10007
:1095E800DEFF32006A0047009080FB0068004700F9
:1095F8001008E10003003D000E489000204F98003D
:10960800080037006A0047009080FB0068004700A8
:109618001008E100030034006A0047001080FB00D6
:10962800400798006C0047001000E0000700320077
:109638007E009000630060000000E200030032003A
:10964800EE0090006C00470061885000EE0090002A
:10965800680047001008E100050034006E01900022
:10966800E80047006C00470011085100020037006D
:109678000020EF0060079800FE009000408C20005A
:1096880080806000008420000008E10007003A00A4
:109698006C0047001000E00003003200EE0090006C
:1096A8006C004700618850000F003700FE009000F2
:1096B800008C200080806000008820000008E10005
:1096C80009003A006E0090006200E10004003400D6
:1096D800EE0090006C0047006288500002003700DE
:1096E8000020EF00600798006E0047001020A600D9
:1096F8004E0037006E0047001010A600110037001A
:109708006E0047001000A60003003700D0C2B30067
:109718004047980002003700B0C2B30040479800A5
:109728008C1F78008A9FBE008A1F78004E459000E3
:10973800CF047800090001004F05BE004F067800ED
:109748002A0037006E0047001000A6000900370005
:109758008C1F78008A9FBE008A1F78000AC2B30057
:10976800CF047800090001004F05BE004F067800BD
:109778001E003700FE009000008C200080806000F2
:10978800008820000008E10018003A008C1F7800CB
:109798008A9FBE008A1F78000AC3B300CF047800EE
:1097A800090001004F05BE004F0678006E00470013
:1097B8001050A6000300370080C5B300504798003A
:1097C8000200370080C7B300504798008C1F78000C
:1097D8008A9FBE008A1F78005E459000CF047800FB
:1097E800090001004F05BE004F0678006C004700D5
:1097F8001000E0000C0032008C1F78008A9FBE0029
:109808008A1F78000AC3B300CF047800090001005A
:109818004F05BE004F0678006E0090000020ED0056
:1098280060079800F4FF3A005E0037006C004700BC
:109838001000E0000F0032006E0047001030A70053
:109848000C0037008C1F78008A9FBE008A1F7800A2
:109858000AC2B300CF047800090001004F05BE001A
:109868004F0678006E0090000020ED006007980019
:10987800F4FF3A006E0047001010A60011003700F0
:109888006E0047001000A60003003700D0C2B300E6
:109898006047980002003700B0C2B30060479800E4
:1098A8008C1F78008A9FBE008A1F78006E45900042
:1098B800CF047800090001004F05BE004F0678006C
:1098C8000B0037006E0047001000A60008003700A4
:1098D8008C1F78008A9FBE008A1F78000AC2B300D6
:1098E800CF047800090001004F05BE004F0678003C
:1098F800FE009000008C2000808060000084200022
:109908000008E10009003A008C1F78008A9FBE0019
:109918008A1F78000AC3B300CF0478000900010049
:109928004F05BE004F0678001E003700FE0090006D
:10993800008C200080806000008820000008E10082
:1099480018003A008C1F78008A9FBE008A1F780092
:109958000AC3B300CF047800090001004F05BE0018
:109968004F0678006E0047001050A600030037002D
:1099780080C5B300704798000200370080C7B30065
:10998800704798008C1F78008A9FBE008A1F780055
:109998007E459000CF047800090001004F05BE0005
:1099A8004F0678006A0047009080FB006800470077
:1099B8001008E10009003D008C1F78008A9FBE0056
:1099C8008A1F78000AC3B300CF0478000900010099
:1099D8004F05BE004F067800F2FF37004E01900099
:1099E800CE00900068004700618850000400E20043
:1099F8006C003200010C20006E00470010806000EF
:109A080000679800520037004E009000C200DD0049
:109A180060462800810040001101BE008C1F7800BC
:109A28008A9FBE003E089000CE0890000002EB001E
:109A380046E40700A2002000030020000002EB001B
:109A48007FE407004F05BE004F06780003C3B3004C
:109A58006A01470003494000490037006E0047008B
:109A68001050A600140037004E009000C200DD0020
:109A780000522800810040001101BE008C1F7800B0
:109A88008A9FBE003E089000CE0890000002EB00BE
:109A98002EE407004F05BE004F0678006F016000F6
:109AA800E0816000206D28008200400011407800AD
:109AB800204F9800130037004E009000C200DD00D0
:109AC80000522800810040001101BE008C1F780060
:109AD8008A9FBE003E089000CE0890000002EB006E
:109AE8001AE407004F05BE004F0678006F016000BA
:109AF800E0816000306E280082004000114078004C
:109B0800204F98001E0037004E009000C200DD0074
:109B180060402800810040001101BE008C1F7800C1
:109B28008A9FBE003E089000CE0890000002EB001D
:109B380006E407004F05BE004F0678006701600085
:109B480001C3B3006A004700014841000C00370018
:109B58008E609000600CE100ABFF320000CCB300D7
:109B6800000CE100A8FF320000C8B300000CE100BF
:109B7800BAFF320000C4B300000CE100E2FF32007B
:109B88008C1F78008A9FBE008A1F78002E4D900097
:109B9800CF047800090001004F05BE004F06780089
:109BA8008EFF37006E0047001030A6000F00370008
:109BB8006E0090006000E1000C0034008C1F7800FB
:109BC8008A9FBE008A1F78000AC2B300CF047800BB
:109BD800090001004F05BE004F0678006E00900096
:109BE8000020ED0060079800F4FF3A0093F7370073
:0C9BF8005E0890000080FA0000000600EB
:0C24E4000A85FB0052FC07000000060007
:101634000000FA00B103AF0001003700FDFF3700DE
:0C1644009A1D88000080FA0000000600DB
:1024F0000000FA0090C3B3000054E10005003E0064
:1025000000C3B3000054E1000200390010C0B30062
:10251000010037000020EF000080FB000080FA007F
:0425200000000600B1
:102250000400FA006054E10052003D000A00FB0057
:10226000E000100001457800E0C6B300000CE1007A
:102270002C0035000A00FB00420620001100090076
:102280000200D80072004000C200DD006033280068
:10229000010140001200BE000007980011079800DD
:1022A0000A00FB0042062000110009000200D800CD
:1022B00001007800A2002000110009000200D800EF
:1022C00069004000C200DD0060332800810040004A
:1022D0001101BE000E0090009E0090008A1F780041
:1022E00062FB07004F05780000079800110798006F
:1022F0000A00FB00A2002000110009000200D80023
:1023000001007800C200DD00603328008100400039
:102310001101BE000E0090009E00900053FB0700CC
:102320006E0037006A54E100180034000A00FB0018
:10233000A2002000110009000200D800690040003E
:10234000C200DD0060332800010140001200BE0021
:1023500000079800110798000A00FB00A200200067
:10236000110009000200D80001007800C200DD0061
:1023700060332800810040001101BE000E00900073
:102380009E00900039FB0700540037000A00FB0054
:10239000C200DD0060332800010140001200BE00D1
:1023A0004E003700E0C6B3000054E1002C003500B9
:1023B0000A00FB0042062000110009000200D800BC
:1023C00072004000C200DD00A0362800010140007C
:1023D0001200BE0000079800110798000A00FB00D9
:1023E00042062000110009000200D8000100780018
:1023F000A2002000110009000200D800690040007E
:10240000C200DD00A0362800810040001101BE009E
:102410000E0090009E0090008A1F780013FB0700BA
:102420004F05780000079800110798000A00FB008C
:10243000A2002000110009000200D800010078006D
:10244000C200DD00A0362800810040001101BE005E
:102450000E0090009E00900004FB07001F00370054
:102460006A54E100180034000A00FB00A2002000BA
:10247000110009000200D80069004000C200DD0020
:10248000A0362800010140001200BE00000798009D
:10249000110798000A00FB00A200200011000900AB
:1024A0000200D80001007800C200DD00A03628003C
:1024B000810040001101BE000E0090009E009000BF
:1024C000EAFA0700050037000A00FB00C200DD0041
:1024D000A0362800010140001200BE000080FA0072
:0424E00000000600F2
:10106C000000FA00020007004C0904000000000018
:10107C00889FBE008A9FBE008C1F7800300007003E
:10108C003700330003866C006450E100240032000A
:10109C006420E100270032006150E10022003200A0
:1010AC006120E100210032008B854200EB07B1008A
:1010BC000134B800003AB8000804420089844A00A0
:1010CC00013AB8000030B8008880400009014A009D
:1010DC0004003300000040008180480002014900F8
:1010EC008B05E900C909DD008301700001003200A5
:1010FC0013002000C814DE004814DD004709DE0090
:10110C001200B200C808DE0008847000240007003A
:10111C0001F0A1000CF0A70003E0A80019003700B3
:10112C006120E1001B0032000881BE000280BE007D
:10113C00F7FF37006150E100FCFF3A001500370063
:10114C000084BE003C0007000083BE000485BE0086
:10115C000280BE0038000700844F750000000600B6
:10116C000280BE006450E100050036006420E100FE
:10117C00020036000968A30001003A000880BE0096
:10118C0002C0A8004F0678004F05BE004F04BE00F9
:10119C0000000600F0FF2F00F1FF2700F9FF3700D9
:1011AC0081002000618055000B003D000B002000E9
:1011BC0061FE2F000100E1001D00340082817100EE
:1011CC00610164008904D1000884D3000000E800A8
:1011DC00FAFF3A0071002000610064000300700007
:1011EC00020060000900320061044400E0844C00FD
:1011FC000988A500050032008B05E8006808E100AD
:10120C0002003A008904D1000884D300F20F2000B8
:10121C000258E10005003D00C75DDD00F907B20092
:10122C008980750008008800000006000BF8270074
:10123C001B00880000000500C70ADE00F107B200A1
:10124C00F50FB20008003200E1CF4200020032007C
:10125C0002E0A80024000500810F7000010032009C
:10126C000408050044000500810F700002003A00DC
:10127C00140005008502E9000000400081C0480010
:10128C00FCFF3B0002E0A800240005000080FA00EF
:04129C000000060048
:1020C4000400FA00E0C6B3000054E1003100390016
:1020D4000A80FB0042062000110009000200D8001B
:1020E40072004000C200DD0060332800010140009E
:1020F4001200BE008A1F78000200200003F02300B3
:10210400D9FB07004F0578000007980011079800D5
:102114000A80FB0042062000110009000200D800DA
:1021240001007800A2002000110009000200D8007C
:1021340069004000C200DD006033280081004000D7
:102144001101BE000E0090009E0090008A1F7800CE
:10215400C5FB07004F057800000798001107980099
:102164000A80FB00A2002000110009000200D80030
:1021740001007800C200DD006033280081004000C7
:102184001101BE000E0090009E009000B6FB0700F7
:10219400270037006A54E1001D0036000A80FB0066
:1021A400A2002000110009000200D80069004000CC
:1021B400C200DD0060332800010140001200BE00AF
:1021C4008A1F78000200200003F02300A6FB07000A
:1021D4004F05780000079800110798000A80FB005B
:1021E400A2002000110009000200D80001007800BC
:1021F400C200DD0060332800810040001101BE00F0
:102204000E0090009E00900097FB07000800370026
:102214000A80FB00C200DD00603328000101400099
:102224001200BE000200200003F023008EFB070012
:082234000080FA000000060022
:10223C000000FA001400200016FC07000080FA00D1
:04224C000000060088
:1012A0000000FA0002000700BE0904000000000070
:1012B000841F7800140007004F00780011003300ED
:1012C000F0FF2F00838F6C0006003B0004056500D3
:1012D0000A00A7000800370009F0A600100020004F
:1012E00008003700820F5400838F5C000300390030
:1012F0001000200001003E000000200009F0A700BF
:101300000000EA00000006000084BE00060007009E
:101310000083BE000485BE000280BE0002000700FC
:10132000844F750000000600C70ADE00F107B20016
:10133000F50FB20008003200E1CF42000200320097
:1013400002E0A80024000500810F700001003200B7
:101350000408050044000500810F700002003A00F7
:10136000140005008502E9000000400081C048002B
:10137000FCFF3B0002E0A800240005000080FA000A
:041380000000060063
:10277C000000FA00F4FF2F00C6FA07000080FA00F0
:04278C000000060043
:102790000000FA0002000700FA1404000000000024
:1027A000889FBE008A9FBE008C1F78003E000700F5
:1027B0004500330003866C006450E1002E003200B7
:1027C0006420E100330032006150E1002F0032004C
:1027D0006120E1003100320085855500EB07B00033
:1027E0000900200008042000050037000804440008
:1027F00089844C000A0031000603430087834B00A4
:102800000001530081815B00F8FF33000283BE00AA
:102810001000A8000804440089844C00F6FF390029
:10282000C639DD008301730001003200130020006F
:102830008904D1000884D3000998A3000500320060
:102840000800A7000600A8008904D1000884D3006E
:102850008B05E8008904D1000884D3000001EB0057
:102860000281D2002800070001F0A1000CF0A700AF
:1028700003E0A8001D0037006420E1001F003200C3
:102880000881BE000280BE00F7FF37006120E10032
:102890001A0032006000B800F3FF3700000020008B
:1028A00001F82700F0FF37000084BE003C0007005D
:1028B0000083BE000485BE000280BE003800070011
:1028C000844F7500000006000280BE006450E100E5
:1028D000050036006420E100020036000968A3000C
:1028E00001003A000880BE0002C0A8004F06780030
:1028F0004F05BE004F04BE0000000600F0FF2F0091
:10290000F1FF2700F9FF37008100200061805500AA
:102910000B003D000B00200061FE2F000100E100D4
:102920001D00340082817100610164008904D100BE
:102930000884D3000000E800FAFF3A00710020008C
:1029400061006400030070000200600009003200B2
:1029500061044400E0844C000988A50005003200B1
:102960008B05E8006808E10002003A008904D10004
:102970000884D300F20F20000258E10005003D005A
:10298000C75DDD00F907B200898075000800880086
:10299000000006000BF827001B008800000005005F
:1029A000C70ADE00F107B200F50FB20008003200DE
:1029B000E1CF42000200320002E0A800240005003E
:1029C000810F70000100320004080500440005007A
:1029D000810F700002003A00140005008502E90032
:1029E0000000400081C04800FCFF3B0002E0A8005E
:0C29F000240005000080FA000000060032
:1026A4000000FA0002000700BA1304000000000052
:1026B4000081BE00190007000470A70003F0A10008
:1026C40003F8A30013003A006509B10010003200BA
:1026D400090035006928E1000200350001002800E6
:1026E4000000050000004000818048008502E900E8
:1026F400FCFF3A0000000600F88F42000500350098
:102704008100D1000080D3008502E800FCFF3A007C
:10271400000006008000EB0000000500C70ADE0090
:10272400F107B200F50FB20008003200E1CF420019
:102734000200320002E0A80024000500810F7000AE
:10274400010032000408050044000500810F7000F8
:1027540002003A00140005008502E9000000400070
:1027640081C04800FCFF3B0002E0A80024000500F3
:082774000080FA0000000600DD
:102524000000FA0002000700441304000000000049
:102534000400E20006003A000005EB000200E2009D
:102544000F003E000000E200270032000C003700BC
:10255400A10088000200E2000400350008003C00ED
:102564000000E20020003200050037006000100087
:10257400E080180002003B0001F02C001A00370034
:102584000084BE006011B8006B0920000982CF00EE
:10259400020039000882CF000441B00069425200B1
:1025A4000E00320008003B0082817100610164006A
:1025B4008904D1000884D3008B05E8000442E800B4
:1025C400F9FF3A00050037000804440089844C00F0
:1025D4008B05E9000442E900FBFF3A000300070011
:1025E4000AF0A70003E0A800000006008100200014
:1025F400618055000B003D000B00200061FE2F00A0
:102604000100E1001D003400828171006101640059
:102614008904D1000884D3000000E800FAFF3A00DE
:10262400710020006100640003007000020060007B
:102634000900320061044400E0844C000988A500CC
:10264400050032008B05E8006808E10002003A004A
:102654008904D1000884D300F20F20000258E1005D
:1026640005003D00C75DDD00F907B20089807500F3
:1026740008008800000006000BF827001B008800F3
:0C268400000005000080FA0000000600C5
:102690000000FA0007E0AA00B6FC07000080FA007C
:0426A0000000060030
:101974000000FA0002000700220E0400000000002C
:10198400889FBE008A9FBE008C1F78005900070004
:10199400600033006450E1004F0032006420E10035
:1019A4005200320003826C0007003B000905D0009E
:1019B4000306D000820F54000C065D0002003900BB
:1019C4000200320039008800C30088008582550077
:1019D40004003D000003FD008103FD008502EA00D0
:1019E4008B854200840F720002003B0060001000EF
:1019F400E08018006011B8000005EB007A28E100CF
:101A04000A00390006008800C75DDD00F707B20050
:101A1400878075002D003700828171002A008800BC
:101A2400610560008180D1000080D3008502E90057
:101A3400F9FF3B00060440008784480002003B0095
:101A440060041400E0841C000988A300070032002D
:101A54008A81710082817100610164008904D1006E
:101A64000884D3008B05E800170037000978A30029
:101A740013003A001600E200130034008B05E9005D
:101A84000804440089844C000A4474000978A300C3
:101A94000D003A001600E200070034008B05E9004F
:101AA4000804440089844C0001003A000B00200023
:101AB4000978A300F7FF32000001EB0002003700B1
:101AC400828171002A008800220007000CF0A70020
:101AD40003E0A800180037006420E10002003A0087
:101AE400838F6C00180033000881BE000280BE00A2
:101AF400110037000084BE003C0007000083BE00D4
:101B04000485BE000280BE0038000700844F7500C3
:101B1400000006000280BE006450E10005003600AB
:101B24006420E100020036000968A30001003A00C5
:101B34000880BE0002C0A8004F0678004F05BE0012
:101B44004F04BE0000000600F0FF2F00F1FF270045
:101B5400F9FF370081002000618055000B003D0033
:101B64000B00200061FE2F000100E1001D00340085
:101B740082817100610164008904D1000884D3006A
:101B84000000E800FAFF3A007100200061006400E0
:101B94000300700002006000090032006104440088
:101BA400E0844C000988A500050032008B05E8009C
:101BB4006808E10002003A008904D1000884D300D7
:101BC400F20F20000258E10005003D00C75DDD0072
:101BD400F907B2008980750008008800000006003B
:101BE4000BF827001B00880000000500C70ADE0070
:101BF400F107B200F50FB20008003200E1CF420055
:101C04000200320002E0A80024000500810F7000E9
:101C1400010032000408050044000500810F700033
:101C240002003A00140005008502E90000004000AB
:101C340081C04800FCFF3B0002E0A800240005002E
:081C44000080FA000000060018
:102D38000000FA000200070010170400000000005D
:102D48000081BE001F0007000470A70003F0A10067
:102D58006509B100160032000D0035006828E10051
:102D680006003500F0FF2F00F1FF27000600E20003
:102D780013003B000100280000000500000040008F
:102D8800818048008502E900FCFF3A00080037000E
:102D9800F88F420002003C008000EB0000000500B4
:102DA8008100D1000080D3008502E800FCFF3A00D2
:102DB8000600E20002003B0060001000E0801800FE
:102DC80000000600C70ADE00F107B200F50FB200E6
:102DD80008003200E1CF42000200320002E0A80001
:102DE80024000500810F700001003200040805006E
:102DF80044000500810F700002003A00140005002D
:102E08008502E9000000400081C04800FCFF3B004B
:102E180002E0A800240005000080FA000000060077
:10B48000120037006354E10002003A007BC6A900B5
:10B49000010037007BE6A900120037006354E10089
:10B4A00002003A007BC6A800010037007BE6A80036
:10B4B0000C0037006354E10002003A007BC6AA008A
:10B4C000010037007BE6AA0006003700605CE1005F
:10B4D000ECFF3200615CE100F0FF3200625CE100F1
:08B4E000F4FF32000000060039
:10B4E8008A1F78008B1F78004B0620001AC0B30013
:10B4F8003CF10700F6F0070085EF070078EF07003A
:10B5080057052D000E20ED00FEFF3A000000000058
:10B51800C6C6A8009F26A900A326A8007AA6A80048
:10B528007EA6A90076A6A900B2A6A900B6A6A8007C
:10B53800CA86A80056EF0700AAEF07001BC0B30091
:10B548001420EF0057DE07001BC0B3003AC0B30059
:10B5580054DE070097EF070080EF0700CF0578005B
:08B568004F0578000000060009
:1079EC000D003700B6E6A8000020EF000B00E10008
:1079FC0006003100574D21000E20ED00FEFF3A002D
:107A0C00000000000020EC00F8FF370006003700F3
:107A1C00B6E6A900040037006154E100F1FF320022
:0C7A2C006054E100FAFF32000000060088
:1078D8000400FA008A1F78007E06A8007606A80031
:1078E800A266A8007FA6A80077A6A800A2C6A8003E
:1078F800DA002000FFF60700DA002000FDF6070096
:107908008000EB0005EB07000007980011079800BE
:10791800DA002000F7F607008000EB00FFEA070016
:107928000E0190009E01900010E807000200200060
:107938000300240094EB0700F22621003300240002
:10794800C8E5070002002F00F35724008EEB07005C
:1079580002DB230003182400C2E507000001BE0073
:10796800829FBE00020020000309240031EA0700BC
:107978000000E0000060EF0001003C000060EC0047
:107988004F01BE000040E200050032007986AF00DA
:10799800030037001AC0B300E6F607000E003700F0
:1079A8000200BE00020020000309240071EB07005A
:1079B8000000E0000060EF00010034000060EC000F
:1079C8000040E200040032007986AE000200370071
:1079D8001420EF00D7F607004F0578000080FA0062
:0479E8000000060095
:1054FC000000FA007050E1000400310010002000A0
:10550C008A00DD00E0672000108870006A3A88008D
:10551C004627A8004607AF0001003700FDFF370003
:10552C004607A9001287BF000080FA0000000600A1
:10553C001440E200020032007B86A8000100370014
:08554C007B86A90000000600A7
:107318000000FA00003D2000705A8800C048200094
:10732800605A88009920A9009940A9009F40A900A7
:10733800F5E3A9000024EF000224EF00F403A900FC
:107348000424EF00FCC3A90000122000F4A3B70036
:0C735800F5E3A8000080FA000000060029
:1072E800F623EF00F823EF00FC23EF001000200046
:1072F80004A4B7000824EF000A24EF000C24EF00D0
:107308000E24EF0010122800F4A3B70000000600B6
:107298008A1F78008B1F78007AA6A8007EA6A9000E
:1072A80076A6A9008BC2B3001420EF0085F807006A
:1072B8000BC1B3001AC0B30082F80700EBCFB300CC
:1072C8003AC1B3007FF807007BC1B3002AC1B300FD
:1072D8007CF80700CF0578004F057800000006000D
:1054CC008A1F78007AA6A9008A1F78000AC4B30044
:1054DC0026EE07004F05780024EE07000B457800F8
:1054EC0022EE07007AA6A8004F05780000000600FF
:0C0D78000A85FB00E6FE070000000600F4
:100918000000FA00A0FF07000080FA0000000600AF
:1007A0000000FA00FCC3A900FC23AE0001003700E2
:1007B000FDFF37000A208800FC03AF00010037006E
:1007C000FDFF37000084BF000080FA000000060033
:1073EC008A1F78008B1F7800B2A6A900B6A6A80049
:1073FC001620EF002AC0B300A9EE070057052D0098
:10740C000E20ED00FEFF3A00000000001BC0B30090
:10741C002AC0B300A2EE070057052D000E20ED0088
:10742C00FEFF3A00000000003BC8B3003AC0B300B6
:10743C0064EF07008BC0B3001420EF0061EF07006E
:10744C001620EF001AC0B3005EEF07003BC0B3007C
:10745C003AC0B3005BEF07007BC0B3002AC0B30097
:10746C0058EF07003BC0B3001AC0B30055EF07003C
:0C747C00CF0578004F05780000000600E6
:102EAC008A1F78008B1F7800A90037003AC1B30045
:102EBC005CF80700804078001640E2000200320007
:102ECC0061C0700002003700E0CFB30000C06000AA
:102EDC00804578005AC1B30079090700B600370065
:102EEC003AC1B3004FF80700804078001640E2006A
:102EFC000200320062C0700002003700D0CFB30075
:102F0C0000C06000804578005AC1B3006C0907000E
:102F1C00A90037003AC1B30042F80700804078009E
:102F2C001640E2000200320064C07000020037005C
:102F3C00B0CFB30000C06000804578005AC1B30028
:102F4C005F0907009C0037003AC1B30035F8070051
:102F5C00804078001640E2000200320068C0700029
:102F6C000200370070CFB30000C0600080457800CD
:102F7C005AC1B300520907008F0037003AC1B300A1
:102F8C0028F80700804078001640E2000300320069
:102F9C0000C2B30000C0700002003700F0CDB300D7
:102FAC0000C06000804578005AC1B3004409070096
:102FBC00810037003AC1B3001AF80700804078004E
:102FCC001640E2000300320000C4B30000C07000E1
:102FDC0002003700F0CBB30000C0600080457800E1
:102FEC005AC1B30036090700730037003AC1B30069
:102FFC000CF80700804078001640E2000300320015
:10300C0000C8B30000C0700002003700F0C7B30066
:10301C0000C06000804578005AC1B3002809070041
:10302C00650037002AC1B300FEF707008040780026
:10303C001640E2000200320062C07000020037004D
:10304C00D0CFB30000C06000804578004AC1B30007
:10305C001B090700580037002AC1B300F1F707001D
:10306C00804078001640E2000200320064C070001C
:10307C0002003700B0CFB30000C06000804578007C
:10308C004AC1B3000E0907004B0037002AC1B30038
:10309C00E4F70700804078001640E200020032009E
:1030AC0070C0700002003700F0CEB30000C06000AA
:1030BC00804578004AC1B300010907003E00370083
:1030CC002AC1B300D7F7070000A0AE0002003700FA
:1030DC0010C0B300380037000020EF003600370076
:1030EC002AC1B300CFF70700804078001640E200F9
:1030FC000300320000C4B30000C0700002003700AF
:10310C00F0CBB30000C06000804578004AC1B3002A
:10311C00EB080700280037002AC1B300C1F70700ED
:10312C00804078001640E2000300320000C8B30073
:10313C0000C0700002003700F0C7B30000C0600090
:10314C00804578004AC1B300DD0807001A0037003B
:10315C006054E10055FF32006154E10060FF320021
:10316C006254E1006BFF32006354E10076FF3200E1
:10317C006454E10081FF32006554E1008DFF3200A0
:10318C006654E10099FF32006C54E100A5FF320057
:10319C006B54E100B0FF32006A54E100BBFF320017
:1031AC006954E100C6FF32006854E100CCFF3200E4
:1031BC006754E100D8FF3200CF0578004F05780046
:0431CC0000000600F9
:101030008A1F78007AA6A9008A1F78001AC4B30014
:101040004DFF07004F0578004BFF07001420EF000D
:1010500026FF07007AA6A8004F05780000000600CA
:0C0CEC000A85FB00ABFE070000000600BC
:1031D0008A1F78000A80FB004300DD00004578006C
:1031E0008080FB00F0072000008060000045780030
:1031F000B6A6A9000045780087F707000B457800C0
:1032000085F70700B6A6A8004F0578000000060065
:0C1018000A85FB003EFE070000000600F9
:1073BC008A1F78008B1F78009F26A900A326A8009F
:1073CC001BC0B3004AC0B300B5EE07001420EF0099
:1073DC0092EE0700CF0578004F05780000000600FC
:102E2800A326A9008A1F78001AC0B3008AF80700F1
:102E38004F05780088F80700A326A80000000600C0
:0C1060000A85FB002CFE070000000600C3
:107364008A1F7800A2E6A80057052D000E20ED0024
:10737400FEFF3A0000000000A2E6A9006A00200017
:1073840064E50700A2E6A800B7EF07000040E200AA
:1073940001003A00FCFF3700A2E6A9001A00200011
:1073A4005CE507002A0020005AE50700A2E6A800D1
:0873B4004F05780000000600FF
:10326C008A1F7800A2E6A9005A002000A7F50700E3
:10327C001420EF0047F50700A2E6A8000000AF00FD
:10328C000200370010C0B300010037000020EF002F
:08329C004F0578000000060058
:0CB570005ADE88006BDE88000000060038
:10B074004200FA008A1F780060004700000578004B
:10B0840071FB07006BFB07006000470000057800B8
:10B09400E3FA0700DAFA07006000470000057800C9
:10B0A40027FB07004F0578000080FA000000060027
:109E4C008A1F78008B1F78008C1F78008D1F78007C
:109E5C001A20EF001CC0B3008B022000F1E40700B5
:109E6C00F80045008A1F78001A20EF001CC0B300D0
:109E7C008005780001057800EAE407004F057800BA
:109E8C00E60045008A1F78001A20EF001CC0B300C2
:109E9C008005780001057800E2E407004F057800A2
:109EAC00EC0045008A1F78001A20EF001CC0B3009C
:109EBC008005780001057800DAE407004F0578008A
:109ECC00C1032000810045008A1F78001A20EF0092
:109EDC001CC0B3008005780001057800D1E40700B0
:109EEC004F057800F20045008A1F78001A20EF0019
:109EFC001CC0B3008005780001057800C9E4070098
:109F0C004F057800FE0045008A1F7800EDC1B300B4
:109F1C002CC0B3008005780001057800C1E407006F
:109F2C004F05780041022000810045008A1F78000F
:109F3C00EDC1B3001CC0B3008005780001057800AA
:109F4C00B8E407004F057800A1022000810045000D
:109F5C008A1F7800EDC1B3001CC0B30080057800E7
:109F6C0001057800AFE407004F05780001032000DD
:109F7C00810045008A1F78008DC0B3001CC0B3005F
:109F8C008005780001057800A6E407004F057800ED
:109F9C0061032000810045004DC1B3001CC0B3001B
:109FAC0080057800010578009EE40700CF06780054
:109FBC004F067800CF0578004F05780000000600AA
:103230000B0D7800640045000C4878001A40E2004D
:10324000020032000D417800010037000C41780087
:10325000E20045000280FB00008045008008780005
:0C3260006200450010007800000006002D
:109E38008A1F78001420EF00B4DF07004F05780070
:049E48000000060010
:081D1400CDFF070000000600EE
:0C1C4C0061DE80000100010000000600C5
:10085400850A07000040E20001003A00FCFF37006F
:10086400A2E6A9008A1F78003A00200029000700A8
:100874004F05780000F02F00000065004800DE00FE
:100884008A1F780000057800220007004F057800D1
:10089400F00F2000000065008A1F78000005780032
:1008A4001C0007001420EF00BCFF07004F05780070
:0808B400A2E6A8000000060006
:100928000000FA009A84BF007F0060000000E20027
:1009380001003200FBFF37009A64A800B5FF0700EA
:100948009A84BF007F0060000000E20001003200CE
:10095800FBFF37001400E200020032009AA4A8004E
:10096800010037009AA4A9009A84A800A9FF0700EB
:0C09780094C4BF000080FA0000000600DC
:10081C000000FA008A20AF0001003700FDFF37000E
:0C082C008A20A9000080FA0000000600ED
:1008BC000000FA00AA84BF007F0060000000E20084
:1008CC0001003200FBFF3700AA64A800D7FF070025
:1008DC00AA84BF007F0060000000E200010032002B
:1008EC00FBFF37001400E20002003200AAA4A800AB
:1008FC0001003700AAA4A900AA84A800CBFF070016
:0C090C00A4C4BF000080FA000000060038
:100838000000FA008E40AF0001003700FDFF3700CE
:0C0848008E40A9000080FA0000000600AD
:100C90000000FA00BA84BF007F0060000000E2009C
:100CA00001003200FBFF3700BA64A800C8FE07004D
:100CB000BA84BF007F0060000000E2000100320043
:100CC000FBFF37001400E20002003200BAA4A800C3
:100CD00001003700BAA4A900BA84A800BCFE07002E
:0C0CE000B4C4BF000080FA000000060051
:1007D0000000FA0090E0AF0001003700FDFF370095
:0C07E00090E0A9000080FA000000060074
:109C24008A1F78008B1F78008A1F78002B852000FC
:109C3400EFE007004F057800780045008A1F7800A0
:109C4400AB84200000057800E9E007004F057800A8
:109C5400660045008A1F7800AB8E2000000578005E
:109C6400E3E007004F057800C00320000000450032
:109C74008A1F78009B8E200000057800DCE0070036
:109C84004F0578006C0045008A1F7800BB842000D3
:109C940000057800D6E007004F0578007200450003
:109CA4008A1F78000B80200000057800D0E00700B0
:109CB4004F0578007E0045008A1F7800CB81200084
:109CC40000057800CAE007004F0578004002200034
:109CD400000045008A1F7800CB8020000005780032
:109CE400C3E007004F057800A002200000004500F3
:109CF4008A1F78001B80200000057800BCE0070064
:109D04004F05780000032000000045008A1F7800FA
:109D1400CB84200000057800B5E007004F057800EB
:109D24006003200000004500AB832000000578009C
:109D3400AFE00700CF0578004F057800000006006B
:101FF4000200FA000B0798001A007800000178002C
:1020040062004500100078000010E1000E0031006D
:102014000E009000821F78008A9FBE0090457800D1
:1020240002057800FEFB07004F05BE004F01780053
:102034008E0090006000470061884000E10041008C
:1020440001017800EEFF37000080FA00000006006E
:0C10240050DE800000000100000006000B
:1009C800280A07000040E20001003A00FCFF370057
:1009D800A2E6A9008A1F78006A002000CCFF070061
:1009E8004F057800A2E6A8001E0A07000040E200B2
:1009F80001003A00FCFF3700A2E6A9008A1F780030
:100A08002A002000C2FF07004F05780000F02F00E1
:100A1800000065004800DE008A1F780000057800A5
:100A2800BBFF07004F057800F00F200000006500AD
:100A38008A1F780000057800B5FF07000B85FB00CA
:100A4800B3FF07004F057800A2E6A800A78226009A
:100A58000E20ED00FEFF3A0000000000000000003C
:040A68000000060084
:109C04008A1F78008B1F78001620EF001420EF00C5
:109C140003DD0700CF0578004F057800000006003B
:109D44008A1F7800D9E007004F0578008A1F780041
:109D5400CDE007004F0578008A1F7800F7DF070081
:109D64004F0578008A1F7800EBDF07004F05780065
:109D74008A1F7800FDDF07004F05780052E00700D6
:049D840000000600D5
:1020B0008B1F78002B852000A3FD0700CF0578003B
:0420C0000000060016
:101748000600FA001B0798002B0798001A0078007B
:10175800000798006200450090007800600047008C
:101768001008E100210036006400450010407800B0
:101778006204E1000C003A008A9FBE000E0590004A
:101788007EFC07004F05BE00AE0090008008780080
:101798008E0090006000470062884000AE00900014
:1017A80064004700628840006400450010407800EB
:1017B8006104E1000C003A008A9FBE000E0590000B
:1017C800520107004F05BE009E0090008048780037
:1017D8009E00900062004700618840008E009000E3
:1017E8006000470061884000DAFF37000080FA0097
:0417F80000000600E7
:100984000200FA008A1F78008B1F78008A1F780003
:10099400AD0407004F05780000479800610045004A
:1009A40000057800A80407008E45900000457800F3
:1009B40094FF0700CF0578004F0578000080FA0007
:0409C4000000060029
:100808000A80FB00C800DD000B80FB000080700040
:0408180000000600D6
:10208C008A1F78008B1F780078004500AB842000F5
:10209C0000057800A9FD0700CF0578004F057800F2
:0420AC00000006002A
:101D40008A1F78008B1F780066004500AB8E20004C
:101D5000000578007CFE0700A08E2000104578006A
:101D6000BDFF0700CF0578004F0578000000060092
:101C58008A1F78008B1F78008A4578007AC0B30005
:101C680090040700CF0578004F05780000000600B3
:101D1C008A1F78008B1F78007E004500EBBC2100E9
:101D2C000005780085FE0700CF0578004F05780088
:041D3C00000006009D
:101D70005800FA008A1F78008B1F78008C1F7800AB
:101D80008D1F7800E0004700400220000000450061
:101D90008A1F780081057800000578006AFE070038
:101DA0004F057800FE004700A0022000000045001B
:101DB0008A1F7800810578000005780062FE070020
:101DC0004F057800C1032000810047000003200078
:101DD000000045008A1F7800810578000005780022
:101DE00059FE07004F05780041042000810047009C
:101DF00060032000000045008105780000057800A0
:101E000051FE0700C3032000830147004204200065
:101E100002014700FE00470060004700830678008B
:101E200002067800810578000005780008FE0700AA
:101E300054FD0700CF0678004F067800CF057800E4
:0C1E40004F0578000080FA00000006004A
:101650008A1F78008B1F7800614B2800202721000B
:101660008C9FBE008A9FBE008D1F78008C1F780063
:101670008B1F78008A1F7800811F7800801F7800F8
:10168000BD260700CF00B1004F05BE004F06BE00CB
:101690008A9FBE002B8F20004AB32100F3FC070075
:1016A0004F05BE008B1F78008A0578004AB32100E1
:1016B00091FD0700EB8E20004AB321008EFD07004C
:1016C000CF0578004AB321008BFD07004B90200026
:1016D0004AB3210088FD0700AB892000BAE521004C
:1016E000E2FC07008C057800BAE5210082FD0700C6
:1016F0007B892000BAE521007FFD07008D05780079
:10170000BAE521007CFD0700AB8C2000BAE5210082
:1017100079FD0700B0E52100801F780040B321006B
:10172000801F7800C0722800801F780020272100C9
:10173000801F7800902607008F00B100CF05780049
:081740004F05780000000600CF
:100A6C000000FA000A00780000017800E101400063
:100A7C008B00780061804500800578001149780072
:100A8C001204E0000200320003007800F6FF370089
:0C0A9C000A0078000080FA00000006004C
:100CF8000000FA000A0078001004E0000200320048
:100D08000020EC00FCFF370000017800E101400002
:100D18008B007800618045008005780011497800D3
:100D28001204E0000200320003007800F6FF3700EA
:0C0D38000A0078000080FA0000000600AD
:101384000400FA008A1F78008B1F780000002000F8
:101394000007980000002000100798000060FE007D
:1013A400A05D2800801F780020272100801F78007E
:1013B400702707004F00B100BA8D200060FE0700BF
:1013C4008A3E20000B002000E6FD0700DA8C200096
:1013D4005BFE07008A3E20000B002000E1FD0700B1
:1013E40030652800801F780020272100801F7800A6
:1013F400602707004F00B1004AB3210050FE0700E8
:101404008E0190001E0290008E0090001E0190003C
:1014140060004700619840006010490000F421001A
:10142400010020000018E10001A0E1000A003100E1
:101434008A3E20000B002000CAFD0700DB8F20003D
:10144400CABE21008DFC07000000E200010032004A
:1014540001003700EAFF370001F4210002002000F8
:10146400600047003008E1002090E10008003E00E1
:10147400C0682800801F780020272100801F780082
:101484003C2707004F00B1000020EF003E0037006A
:1014940000562800801F780020272100801F780034
:1014A400342707004F00B100380A2000F72D2C0024
:1014B4000E20ED00FEFF3A001020ED00FCFF3A0084
:1014C400000000000000000076FD070080007800A6
:1014D4000000E20008003200811F780040712800FB
:1014E400801F780020272100801F78002127070013
:1014F4006F00B10006003700F0632800801F7800F9
:1015040020272100801F78001A2707004F00B10010
:10151400605F2800801F780020272100801F78004A
:10152400142707004F00B100BAFD07000040E20095
:101534000B003A00B7FD07000040E20008003A0043
:1015440000542800801F780020272100801F780085
:10155400082707004F00B1000020EF000A00370001
:10156400D04F2800801F780020272100801F78009A
:10157400002707004F00B1001620EF003AC0B30067
:10158400BE27070010C0B300CF0578004F057800D0
:081594000080FA0000000600CF
:100D44000220EF0001004500104078006004E1003B
:100D540007003200010045008A1F78001085FB005F
:100D6400A1FE07004F0578000220EC00F5FF3700D4
:040D74000000060075
:1007EC000000FA009B03AF0001003700FDFF37004B
:0C07FC00EA1C88000080FA0000000600E3
:100B68001020EF001220EF008A9FBE00E0FE070071
:100B78004F05BE000040E2000200320020C0B30072
:100B8800220037008960A9009960A8000801BE000A
:100B98000200BE0061014100E08149000A00E10055
:100BA8000B88E100080031008960AF0006003700BB
:100BB8000060FE000060FE000060FE000060FE00B5
:100BC8000060FE00F2FF37009A23A9008960AE009A
:100BD8000B0037008A9FBE00C5FE07004F05BE0008
:100BE8000040E2000200320020C0B30007003700D6
:100BF8008960A9009960A80010C0B30003003700FD
:100C08008960A9009960A8000020EF000000060094
:1006F8008A1F78008B1F78008960AE0022003700BF
:100708005B862000CABE2100DBFF07000000E20074
:100718001D003200CBBE21002AB321009DFF070037
:10072800000178000000E20005003A00A1852000E1
:100738000020EF00804878000020EF001300370009
:10074800A185200010C0B300804878000620EF0083
:1007580020B321001018E10006003100A08D21000F
:100768008300400003004100904878000620EC0018
:10077800F7FF37009A23A9008960A9009960A800AB
:1007880010C0B300010037000020EF00CF0578004B
:080798004F0578000000060087
:100680000000FA008C1F78006050E1001600320074
:100690001A04E000140032008A1F78000B0578006D
:1006A000B3FF07004F0578008A9FBE000046780020
:1006B00095FF07004F05BE006000E10002003A0010
:1006C0000A00780009003700610045008A9FBE00DB
:1006D0009B457800000578004BFF07004F05BE00E2
:1006E00000057800E8FF37000020EF004F06780093
:0806F0000080FA000000060082
:100508000000FA008C4078006140560000467800F0
:100518000240E200110032001A4078006004E10055
:10052800040032001A4078001B04E10001003A0080
:10053800050037001B4078009A80FB000080FB0014
:100548000080500006003700610045000005780073
:100558006180450080057800EAFF37000020EF0041
:080568000080FA00000006000B
:100570000000FA008A007800010078000220EC00F8
:100580001004E00001003200FBFF37000A80500039
:0C0590000020ED000080FA0000000600D2
:100408000000FA001A5CE10002003A000A007800D5
:10041800060037008A007800610045000005780072
:100428001104E000F7FF3A000020EF000080FA0016
:0404380000000600BA
:10059C000A00FA008B1F78008A9FBE000B057800BA
:1005AC00EB882000330007004F05BE000000E2007E
:1005BC002D0032008A1F78000B0578005B8B200021
:1005CC002C00070000017800EB8A20000005780061
:1005DC00280007004F057800000378000400E200B3
:1005EC001F0032000C00E2001D00320057C0B300A7
:1005FC000780FB000000410090407800A0C3B300CE
:10060C00000CE100090032000780FB00E5005000FF
:10061C0060004700810040000780FB0000004100A3
:10062C00904878000E60EC00F1FF37000780FB006B
:10063C006500500060014700800041000020EF0081
:10064C00804878008A1F78000205780078FF070040
:10065C004F057800000D7800610043000200370060
